:100000000C94D7000C94F7320C94F7320C94F7321E
:100010000C94F7320C94F7320C94BF2C0C947F257F
:100020000C94F7320C94F7320C94F7320C94F732AC
:100030000C94F7320C94F7320C94F7320C94F7329C
:100040000C94F7320C9437230C94F7320C94F7325B
:100050000C94F7320C94F7320C9441250C94F7323F
:100060000C94C5240C9403250C94F7320C94F732AD
:100070000C94F7320C94AC170C94F7320C94BF2903
:100080000C94F2290C9443200C942B2D0C94F732F1
:100090000C94F7320C94F7320C94F7320C94F7323C
:1000A0000C94F7320C94F7320C94F7320C94F7322C
:1000B0000C94E32C0C94072D0C94F7320C94F7322B
:1000C0000C94F7320C94F7320C94F7320C94F7320C
:1000D0000C94F7320C94F7320C94F7320C94F732FC
:1000E0000C94F7320C94F7324000400680400644EE
:1000F000490065FC4449484A80484A4BBD006A3F74
:100100004BBD4BDD804BDD4C62006DB24C624C72DE
:10011000804C724C82006E374C824CA7804CA74CAE
:10012000B4006E474CB44CC8804CC84CE0006E54D0
:100130004CE04CE8804CE84CEC006E6C4CEC4CF421
:10014000804CF44CF8006E704CF84CFF804CFF4D26
:1001500001006E744D014D05804D054D09006E7610
:100160004D094D0D804D0D4D13006E7A4D134D35DB
:10017000804D354D37006E804D374D39804D394DAE
:100180003B006E824D3B4D40804D404D41006E84A2
:100190004D414D4A804D4A4D4B006E854D4B4D5261
:1001A000804D524D53006E864D534D5480001124A6
:1001B0001FBECFEFCDBFDFE7DEBFE8EEF0E041E0EE
:1001C00019C0B791A79137912791079107FD0EC0EC
:1001D00097918791EF01F92FE82F0BBF07900D92B0
:1001E000A217B307D9F7FE011BBE04C01D92A217C8
:1001F000B307E1F7ED3AF40721F70E9403010C94ED
:060200003B32F894FFCF31
:10020600EF92FF920F931F93CF93DF93CDB7DEB795
:10021600AF97CDBFDEBF0E94B22E0E941E3086E091
:1002260090E40E94873281E08F938EE68F9386E377
:100236008F931F928EE190E4892F8F938EE190E445
:100246008F930E94CA2E0F900F900F900F900F90D1
:100256000F908DE390E40E9487320E94DE3088235F
:1002660019F089E590E402C08FE590E4292F2F93D9
:100276008F9381E790E4892F8F9381E790E48F93A2
:100286000E94CA2E0F900F900F900F9088E990E46D
:100296000E9487320E9464270E949D2F292F2F9348
:1002A6008F9384EC90E4892F8F9384EC90E48F9362
:1002B6000E94CA2E0F900F900F900F90CE01889635
:1002C60028E0AC0160EA76E881E090E00E947D23B8
:1002D6008A8B8A89882F90E0292F2F938F938EEE11
:1002E60090E4892F8F938EEE90E48F930E94CA2E0E
:1002F6000F900F900F900F9019821FC08981882F41
:1003060090E09E01285D3F4F820F931FFC01808184
:10031600882F90E0292F2F938F9380E191E4892FE6
:100326008F9380E191E48F930E94CA2E0F900F90D5
:100336000F900F9089818F5F898399818A89981799
:10034600E8F28A89882359F488E191E4892F8F930A
:1003560088E191E48F930E94CA2E0F900F908AE451
:1003660091E40E9487320E9427198B8B8B89882300
:1003760019F08CE491E402C08FE491E4292F2F93C5
:100386008F931F928DE38F9386E591E4892F8F9348
:1003960086E591E48F930E94CA2E0F900F900F90DE
:1003A6000F900F900F909B8981E089278823F1F0A9
:1003B6000E947E32082F10E00E947532882F90E04E
:1003C600212F2F93202F2F93292F2F938F9381E760
:1003D60091E4892F8F9381E791E48F930E94CA2E2F
:1003E6000F900F900F900F900F900F908AE491E46A
:1003F6000E9487320E9422178C8B8C89882319F0E1
:100406008CE491E402C08FE891E4292F2F938F9317
:100416001F9284E28F938BE991E4892F8F938BE966
:1004260091E48F930E94CA2E0F900F900F900F9019
:100436000F900F9088ED91E40E9487328B89882374
:1004460009F422C28091F94B9091FA4BA091FB4B93
:10045600B091FC4B8A839B83AC83BD838FEF9FEF68
:100466008E839F838091F94B9091FA4BA091FB4B21
:10047600B091FC4B88879987AA87BB878FEF9FEF40
:100486008C879D878FEF9FEF8E879F87188A8CE0DA
:1004960092E40E9487321F9284E28F938FE98F93B2
:1004A6001F9281E08F938EE68F9386E38F931F9240
:1004B6008CE392E4892F8F938CE392E48F930E94CE
:1004C600CA2E4DB75EB7465F5F4FCDBFDEBF1F92E8
:1004D6008FE08F9382E48F9380E48F938DE792E48D
:1004E600892F8F938DE792E48F930E94CA2E0F90E7
:1004F6000F900F900F900F900F908DEB92E40E944B
:100506008732198A1CC18989882F90E0880F991F24
:10051600880F991F8750944BFC0180819181A2819D
:10052600B3818D8B9E8BAF8BB88F8D899E89AF895A
:10053600B88DBC01CD010E94F61A898F8D899E89DE
:10054600AF89B88DBC01CD010E9430218A8F9B8F67
:1005560089898823C1F08989882F90E00197880FBF
:10056600991F880F991F8750944BFC0180819181B8
:10057600A281B381BC01CD010E94F61A982F898D04
:10058600981709F4D8C08D899E89AF89B88DBC01AA
:10059600CD010E94F12D0E9425320E944F2DDC01D3
:1005A600CB018C8F9D8FAE8FBF8F0E94AC0F88A31F
:1005B6000E944F2DDC01CB019C018C8D9D8DA901E4
:1005C600481B590BCA0189A39AA38D899E89AF89B5
:1005D600B88DBC01CD010E94FB25882319F002EFDE
:1005E60012E402C007EF12E48D899E89AF89B88DA7
:1005F600BC01CD010E9405247C018D899E89AF89AD
:10060600B88DBC01CD010E942927DC01CB01298DC3
:10061600222F30E0412F4F93402F4F934F2D4F9372
:100626004E2D4F934B8D4F934A8D4F934B2F4F9398
:100636004A2F4F93492F4F938F93832F8F93822F58
:100646008F93888D8F938F898F938E898F938D89C2
:100656008F938CEF92E4892F8F938CEF92E48F9394
:100666000E94CA2E8DB79EB74296CDBFDEBF88A127
:10067600882309F447C08AA18F9389A18F9383E2C7
:1006860093E4892F8F9383E293E48F930E94CA2E7B
:100696000F900F900F900F9029A13AA18C859D8500
:1006A6002817390760F489A19AA18C879D878D89BF
:1006B6009E89AF89B88D88879987AA87BB8729A124
:1006C6003AA18E819F812817390760F489A19AA1E2
:1006D6008E839F838D899E89AF89B88D8A839B83FC
:1006E600AC83BD838D899E89AF89B88D8034924451
:1006F600AF40B105D9F481E0888B89A19AA18E8794
:100706009F8714C00E945132882F90E0292F2F9383
:100716008F938BE293E4892F8F938BE293E48F93ED
:100726000E94CA2E0F900F900F900F908AE491E4CA
:100736000E94873201C0000089898F5F898B898971
:10074600873008F4E0CE8889882369F080E492E453
:10075600AFE0B0E08A839B83AC83BD838E859F85A3
:100766008E839F8316C01F928FE08F9382E48F93B0
:1007760080E48F9387E393E4892F8F9387E393E451
:100786008F930E94CA2E0F900F900F900F900F908C
:100796000F908A819B81AC81BD81BC01CD010E94F5
:1007A600F12D8A819B81AC81BD81BC01CD010E9466
:1007B600FB25882319F007E613E402C00FE613E4CD
:1007C6008A819B81AC81BD81BC01CD010E94292714
:1007D600DC01CB01212F2F93202F2F932F812F93D5
:1007E6002E812F932B2F2F932A2F2F93292F2F9341
:1007F6008F938D818F938C818F938B818F938A8139
:100806008F9385E893E4892F8F9385E893E48F93FC
:100816000E94CA2E4DB75EB7425F5F4FCDBFDEBFA7
:10082600288539854A855B858A819B81AC81BD8116
:10083600281739074A075B0719F188859985AA851C
:10084600BB85BC01CD010E942927DC01CB012D858A
:100856002F932C852F932B2F2F932A2F2F93292FCE
:100866002F938F9384EC93E4892F8F9384EC93E4F6
:100876008F930E94CA2E8DB79EB70896CDBFDEBF56
:100886008AE491E40E9487320E945A32881F8827A0
:10089600881F8BA39B8981E08927882329F08BEE0B
:1008A60093E40E9487320CC08BA1882339F08CE137
:1008B60094E40E9487320E944B1F02C00E94A41338
:1008C6000E944F2DDC01CB018CA39DA3AEA3BFA339
:1008D6000E9402130E94CA218B89882341F08BA1B2
:1008E600882319F00E948A0402C00E944514CE0192
:1008F600849644EF51E060E070E00E94F21F882386
:0E09060039F387E494E020E4FC012083E1CF84
:10091400EF92FF920F931F93CF93DF93CDB7DEB780
:100924002C97CDBFDEBF0E944F2DDC01CB01898304
:100934009A83AB83BC838091B44C9091B54CA091C5
:10094400B64CB091B74C29813A814B815C817901D5
:100954008A01E81AF90A0A0B1B0BD801C70105978B
:10096400A105B10508F4C7C189819A81AB81BC8115
:100974008093B44C9093B54CA093B64CB093B74CC1
:100984008091FB4C9091FC4C01968093FB4C90938E
:10099400FC4C8091B84C9091B94CA091BA4CB09158
:1009A400BB4C29813A814B815C8179018A01E81A27
:1009B400F90A0A0B1B0BD801C701883E9340A10515
:1009C400B105C0F08091FB4C9091FC4C8093FD4CA0
:1009D4009093FE4C1092FB4C1092FC4C89819A81AE
:1009E400AB81BC818093B84C9093B94CA093BA4C22
:1009F400B093BB4C0E949D2F8D839E830E94D42D67
:100A04008F830E945A3288870E946332898767E005
:100A140081E00E949F1F21E040E869E070E080E0EF
:100A240090E00E94622246EA5AE46CE070E080E0C2
:100A340090E00E9418118A879B878A859B8504967B
:100A44004D815E8124E06CE070E00E94E80E8A87AC
:100A54009B878F81482F50E08A859B85089623E0E9
:100A64006CE070E00E94E80E8A879B878A859B85EC
:100A74004EEA5AE46CE070E00E94181101E029E0AB
:100A84004CE766E170E082E090E00E94A31C8D8157
:100A94009E819C0140E050E088E790E0DC010E94E8
:100AA4003032DC01CB012FEF3FE040E050E0BC01ED
:100AB400CD010E94722DDA01C9018C878C858823AF
:100AC40049F001E025E04C8568E170E084E090E0C5
:100AD4000E947A2B4AEA5AE462E270E080E090E0F5
:100AE4000E9418118885882F90E08072992721E050
:100AF400892B09F420E0422F6AE488E190E00E9407
:100B0400D7278885882F90E08074992721E0892B46
:100B140009F420E0422F63E588E290E00E94D727A1
:100B24008885881F8827881F482F62E588E390E01E
:100B34000E94D72740EB5AE462E270E08CE490E034
:100B44000E9418118A879B878A859B85498562E262
:100B540070E00E94252A44EB5AE46EE270E080E0E3
:100B640090E00E9418118A879B870E946C32882328
:100B740019F081EC9AE402C084EC9AE42A853B855E
:100B8400AC016EE270E0C9010E94181147EC5AE40E
:100B940068E370E080E090E00E9418118A879B87E8
:100BA4004091FD4C5091FE4C8A859B85049622E031
:100BB40068E370E00E94E80E8A879B878A859B859C
:100BC40008964BEC5AE468E370E00E9418118A8797
:100BD4009B870E944F2DDC01CB0128EE33E040E0DF
:100BE40050E0BC01CD010E94722DDA01C901AC01B3
:100BF4008A859B85049624E068E370E00E94E80EF1
:100C04008A879B878A859B854EEC5AE468E370E06B
:100C14000E9418110E94AC0F8091394D9885981745
:100C240031F480913A4D9F81981709F465C0888505
:100C34008093394D8F8180933A4D0091FD4C1091F2
:100C4400FE4C0E946C32882319F061EC7AE402C0F5
:100C540064EC7AE48985A82FB0E0888588231CF4A5
:100C64004AE250E002C04EE250E08885882F90E0CE
:100C740080749927892B19F02AE230E002C02EE211
:100C840030E08885882F90E080729927892B19F0AD
:100C94008AE290E002C08EE290E0EF81EE2FF0E075
:100CA400F12EFF92102F1F93172F1F936F936B2F0B
:100CB4006F936A2F6F93652F6F934F93432F4F93C7
:100CC4002F93292F2F938F938F2F8F938E2F8F9363
:100CD4008E818F938D818F9380ED9AE4892F8F93EA
:100CE40080ED9AE48F930E94CA2E8DB79EB74296E8
:100CF400CDBFDEBF01C000002C96CDBFDEBFDF91AB
:0C0D0400CF911F910F91FF90EF90089588
:100D1000AEE0B0E0EEE8F6E00C949C2E4C016B01E6
:100D200019821A828FEF9FEF8B839C831D821E8214
:100D30004F83588729873A87A12CB12CD6016D9013
:100D40007C90F301EA0DFB1D808181110FC0D6015B
:100D5000ED93FC938081853209F0D3C13F01BFEF51
:100D60006B1A7B0AF6016082718219C0853279F3B1
:100D7000B401082E000C990B0E9416224FEFA41A02
:100D8000B40ADCCF8C32ACF08D32F9F489819A81CF
:100D9000816089839A833196D601ED93FC93D601C5
:100DA000ED91FC9180818B3269F789819A81846011
:100DB000F0CF803221F489819A818860EACF833232
:100DC00051F489819A818061E4CF803321F4898153
:100DD0009A818260DECFB701C6010E944C2B8D83C1
:100DE0009E8397FF0BC029813A81B1E02B2729838D
:100DF0003A839195819591098D839E8389819A810A
:100E000080FF03C08D7F89839A83D601ED91FC9189
:100E1000119780818E3249F43196ED93FC93B7019E
:100E2000C6010E944C2B8B839C83C6010E94B42D6B
:100E3000582ED601ED91FC918081082E000C990B63
:100E40000E94EA32893609F443C084F4833609F4F7
:100E500002C134F4853209F427C18136E1F030C192
:100E60008436B1F188360CF4D9C02AC1803709F430
:100E70009AC03CF48E3609F4BCC08F3609F461C0C8
:100E80001FC1853709F440C0883709F476C083371D
:100E900009F016C1F3C0652D70E0A701CE010B96D5
:100EA0000E940000892B09F426C1D601ED91FC9126
:100EB0001197CF0101968D939C932081AE01455FE0
:100EC0005F4FBE016F5F7F4FC4010E94000010C1E1
:100ED000652D70E0970141E050E0CE010B960E9435
:100EE0003B1C892B09F407C1F60180819181019691
:100EF00080839183AE01455F5F4FBE016F5F7F4F7F
:100F0000C4010E94841AF4C0652D70E0970140E08E
:100F100050E0CE010B960E943B1C892B09F4EBC0DC
:100F2000D6018D919C91119701968D939C93AE0162
:100F3000455F5F4FBE016F5F7F4FC4010E94AA22D1
:100F4000D7C0652D70E0970140E050E0CE010B96D0
:100F50000E943B1C892B09F4CEC0F601808191814F
:100F6000019680839183AE01455F5F4FBE016F5F45
:100F70007F4FC4010E94F21EBBC0652D70E0970137
:100F800040E050E0CE010B960E943B1C892B09F4F7
:100F9000B2C0D601ED91FC911197CF0101968D93CE
:100FA0009C9320811CC0970140E050E060EF70E00E
:100FB000CE010B960E943B1C892B09F49CC0F601C4
:100FC000808191810196808391838B859C85892B7B
:100FD00029F420E030E04EEA5CE484C028E7AE016A
:100FE000455F5F4FBE016F5F7F4FC4010E94FA0DE6
:100FF0007FC0A501400F511F652D70E09701CE0104
:101000000B960E940000892B09F475C0D6018D91C2
:101010009C91119701968D939C9373C0652D70E000
:10102000A701CE010B960E940000892B09F463C032
:10103000D601ED91FC911197CF0101968D939C9370
:101040002081AE01455F5F4FBE016F5F7F4FC401DE
:101050000E9400004DC0B0E85B124DC0F6018081D7
:101060009181019680839183D701ED91FC91119735
:10107000CF0102968D939C93808120C0B0E85B12D3
:101080003AC0F60180819181019680839183D701D6
:10109000ED91FC911197CF0102968D939C93408125
:1010A000518120E030E01EC0B0E85B1224C0F601A0
:1010B000208131812F5F3F4F208331838B870DC08B
:1010C00085E28B87D6016D927C9219821A821D82ED
:1010D0001E828FEF9FEF8B839C8321E030E0AE0177
:1010E000455F5F4FBE016F5F7F4FC4010E94D12BF0
:1010F0008A0D9B1D07C0F601808191810196808336
:0C1100009183C5012E96EFE00C94152F92
:10110C00CF93DF93CDB7DEB72697CDBFDEBF0E945E
:10111C00B8318C838C8188232CF40E94BC2A1092C9
:10112C003B4DD2C180913B4D813081F08C81882F19
:10113C0090E080749927892B09F4C5C10E94742C06
:10114C000E94BC2A81E080933B4DBDC18091094D2A
:10115C0090910A4D96958795969587959C01ABE352
:10116C00BDE60E94D63196958795929582958F70A3
:10117C0089279F7089278A839B838A819B814197CA
:10118C0024F080E190E08A839B8364E370E080E14B
:10119C0090E00E947D219C018A819B81820F931F8C
:1011AC008093054D9093064D8C81882F90E0807232
:1011BC009927892B89F090913C4D81E089278823D0
:1011CC0059F08091034D9091044D8093014D909373
:1011DC00024D81E080933C4D80913C4D882309F475
:1011EC0042C08091014D9091024D04968093014D27
:1011FC009093024D2091FF4C3091004D8091014D08
:10120C009091024D820F931F8093FF4C9093004D51
:10121C008091FF4C9091004D8038910584F480E8CA
:10122C0090E08093FF4C9093004D8091014D9091F4
:10123C00024D992324F41092014D1092024D80918D
:10124C00FF4C9091004D80369240F4F080E692E095
:10125C008093FF4C9093004D1092014D1092024DD3
:10126C0010923C4D11C080913E4D8F5F80933E4D4E
:10127C0080913E4D843040F010923E4D90913D4D0A
:10128C0081E0892780933D4D1982BDC08981282F2B
:10129C0030E0C901880F991F880F991F820F931F87
:1012AC008A57934BFC018081882309F4A9C089815A
:1012BC00282F30E08981482F50E0CA01880F991FF0
:1012CC00880F991F840F951F8E57934BFC014081FB
:1012DC0051818091054D9091064D481B590BC901C8
:1012EC00880F991F880F991F820F931F8E57934B4E
:1012FC00FC01408351838981282F30E0C901880F7C
:10130C00991F880F991F820F931F8E57934BFC01C7
:10131C0080819181AC01559547955595479555958B
:10132C004795559547958981282F30E0C901880F3D
:10133C00991F880F991F820F931F8C57934BFC0199
:10134C0080819181FC018081882F90E0840F951F12
:10135C0099237CF48981282F30E0C901880F991FCB
:10136C00880F991F820F931F8A57934BFC01108291
:10137C0047C08981282F30E0C901880F991F880F39
:10138C00991F820F931F8E57934B0E949716882399
:10139C00B9F12091094D30910A4D80910B4D9091EE
:1013AC000C4D8217930740F48091094D90910A4D92
:1013BC0080930B4D90930C4D82E080933B4D81E0DC
:1013CC008093404D20910B4D30910C4D8091094DE7
:1013DC0090910A4D432F4F932F93292F2F938F9337
:1013EC008AE899E4892F8F938AE899E48F930E9475
:1013FC00E22E0F900F900F900F900F900F9064C0F3
:10140C0089818F5F89838981833008F43FCF0E9463
:10141C000A1D8D839E838091074D9091084D9C01F0
:10142C0080E890E0AC01421B530B9A018D819E81A8
:10143C008217930714F40E9467108091054D9091C8
:10144C00064D9C01990F440B550B8091BC4C90910F
:10145C00BD4CA091BE4CB091BF4C820F931FA41FEA
:10146C00B51F8093BC4C9093BD4CA093BE4CB093D5
:10147C00BF4C8091BC4C9091BD4CA091BE4CB09196
:10148C00BF4C689415F8B695A795979587951694C3
:10149C00D1F78093094D90930A4D80913F4D882F41
:1014AC0090E02091054D3091064D35952795359559
:1014BC0027953595279535952795820F931F87701E
:1014CC0080933F4D01C000002696CDBFDEBFDF915B
:0414DC00CF9108950F
:1014E000CF93DF93CDB7DEB780E094E0FC011482A8
:1014F00080E294E0FC01148280E494E021E0FC01AD
:10150000248380E694E0FC01148280E894E0FC01EE
:10151000148280EA94E0FC01148280E094E0FC01F3
:10152000108280E294E0FC01108280E494E021E4E7
:10153000FC01208380E694E0FC01108280E894E0C6
:10154000FC01108280EA94E0FC01108280E094E0CB
:10155000FC01108A80E094E0FC01118A80E094E0B4
:10156000FC01128A80E094E0FC01138A80E094E0A0
:10157000FC01148A80E094E0FC01158A80E094E08C
:10158000FC01168A80E094E0FC01178A80E294E076
:10159000FC01108A80E294E0FC01118A80E294E070
:1015A000FC01128A80E294E0FC01138A80E294E05C
:1015B000FC01148A80E294E0FC01158A80E294E048
:1015C000FC01168A80E294E0FC01178A80E494E032
:1015D000FC01108A80E494E0FC01118A80E494E02C
:1015E000FC01128A80E494E0FC01138A80E494E018
:1015F000FC01148A80E494E0FC01158A80E494E004
:10160000FC01168A80E494E0FC01178A80E694E0ED
:10161000FC01108A80E694E0FC01118A80E694E0E7
:10162000FC01128A80E694E0FC01138A80E694E0D3
:10163000FC01148A80E694E0FC01158A80E694E0BF
:10164000FC01168A80E694E0FC01178A80E894E0A9
:10165000FC01108A80E894E0FC01118A80E894E0A3
:10166000FC01128A80E894E0FC01138A80E894E08F
:10167000FC01148A80E894E0FC01158A80E894E07B
:10168000FC01168A80E894E0FC01178A80EA94E065
:10169000FC01108A80EA94E0FC01118A80EA94E05F
:1016A000FC01128A80EA94E0FC01138A80EA94E04B
:1016B000FC01148A80EA94E0FC01158A80EA94E037
:1016C000FC01168A80EA94E0FC01178A80EE95E01E
:1016D000FC01118680EE95E0FC01118280EE95E020
:1016E000FC01108280EE95E0FC01148280EE95E012
:1016F000FC01168280EE95E0FC01178280EE95E0F9
:10170000FC01108680EE95E022E0FC01258380EE4E
:1017100095E0FC01128280EE95E0FC01138280EEE0
:1017200095E0FC01128682EA92E30E9459308AEA2F
:1017300092E30E946C3082EB92E30E947F308AEB4E
:1017400092E30E94923082EC92E30E94A5308AECF0
:0E17500092E30E94B8300000DF91CF9108951F
:10175E00CF93DF93CDB7DEB72597CDBFDEBF809198
:10176E00FF4C9091004D95958795959587959595FC
:10177E008795959587958C839D830E943A1E66E08A
:10178E0081E00E949F1F80913B4D882F90E0009733
:10179E0019F00297F1F08EC06CEA79E480E190E0E6
:1017AE000E94582A65EB79E48EE190E00E94582A57
:1017BE0069EC79E488E290E00E94582A0E9475262E
:1017CE0040ED5CE466E270E08AE090E00E94E50C99
:1017DE00ECC068ED79E48EE090E00E94582A62EE4B
:1017EE0079E48AE190E00E94582A0E94752640ED25
:1017FE005CE466E270E08AE090E00E94E50C1B82F9
:10180E0054C08B81282F30E0C901880F991F880F93
:10181E00991F820F931F8A57934BFC018081882357
:10182E0009F440C08B81282F30E0C901880F991F21
:10183E00880F991F820F931F8C57934BFC01408189
:10184E0051818B81282F30E0C901880F991F880F95
:10185E00991F820F931F8C57934BFC0180819181AE
:10186E00FC018181882F90E026E330E0B901681BEE
:10187E00790B8B81282F30E0C901880F991F880FB3
:10188E00991F820F931F8E57934BFC01808191817C
:10189E009595879595958795959587959595879522
:1018AE000E94E50C8B818F5F8B838B81833008F4D4
:1018BE00A8CF7BC00E94752680913C4D882329F0CD
:1018CE0080ED9CE489839A830BC080913D4D8823E3
:1018DE0019F08CEC9CE402C088EC9CE489839A831A
:1018EE0029813A818C819D81A901BC018AE090E019
:1018FE000E94E50C1B8254C08B81282F30E0C90159
:10190E00880F991F880F991F820F931F8A57934B29
:10191E00FC018081882309F440C08B81282F30E0A0
:10192E00C901880F991F880F991F820F931F8C571B
:10193E00934BFC01408151818B81282F30E0C901EE
:10194E00880F991F880F991F820F931F8C57934BE7
:10195E00FC0180819181FC018181882F90E026E33A
:10196E0030E0B901681B790B8B81282F30E0C9015B
:10197E00880F991F880F991F820F931F8E57934BB5
:10198E00FC01808191819595879595958795959583
:10199E008795959587950E94E50C8B818F5F8B833C
:1019AE008B81833008F4A8CF00000E94AC0F00009A
:0C19BE002596CDBFDEBFDF91CF910895CC
:1019CA00CF93DF93CDB7DEB76597CDBFDEBF888BE8
:1019DA00998B6A8B7B8B4C8B5D8B8C899D89892B30
:1019EA0009F4FCC08C899D89FC0182819381892B31
:1019FA0009F4F4C08C899D89FC018181813208F047
:101A0A00EDC01982E3C08C899D89FC018081282F51
:101A1A0030E08981882F90E0A901481B590BCA013F
:101A2A009C012150310981E090E002C0880F991F82
:101A3A002A95E2F789879A871A821B821C821D825D
:101A4A001E8232C08C899D89FC01228133818E815C
:101A5A00882F90E0880F991F820F931FFC01208125
:101A6A00318189859A8582239323892BD1F08E81AE
:101A7A00282F30E081E090E0A0E0B0E004C0880FB9
:101A8A00991FAA1FBB1F2A95D2F72A813B814C8135
:101A9A005D81822B932BA42BB52B8A839B83AC83EA
:101AAA00BD838E818F5F8E838C899D89FC01918194
:101ABA008E81891738F28A819B81AC81BD81892BFD
:101ACA008A2B8B2B09F47FC08981282F30E08889E3
:101ADA009989820F931F8B879C878A899B898F8319
:101AEA00988766C08F8187708D878F819885969534
:101AFA00879596958795969587958E878A818F87FC
:101B0A008D858823B9F18F85882F90E02D85222F26
:101B1A0030E002C0880F991F2A95E2F7382F8B858B
:101B2A009C8521E0432FBC018E850E94101A8D8569
:101B3A00882F90E028E030E0281B390B8A819B81AE
:101B4A00AC81BD8104C0B695A795979587952A95CE
:101B5A00D2F78A839B83AC83BD832F8138858D8599
:101B6A00882F90E0A901481B590BCA0108968F8358
:101B7A00988719C08B859C8521E04F85BC018E858D
:101B8A000E94101A8A819B81AC81BD81892F9A2F6C
:101B9A00AB2FBB278A839B83AC83BD838F819885B8
:101BAA0008968F8398878F8198858034910554F49D
:101BBA008A819B81AC81BD81892B8A2B8B2B09F071
:101BCA0091CF01C0000089818F5F89838C899D89AB
:101BDA00FC0190818981891708F415CF0000659668
:0A1BEA00CDBFDEBFDF91CF9108955B
:101BF400AFE0B0E0E0E0FEE00C94992E1C016B0134
:101C040049835A832B83FB0182819381848095804D
:101C140000811181A680B78097FD02C00D7F02C0AC
:101C240081E090E0E981FA81408051806280738094
:101C34009801207133272C833D83740104FF08C06D
:101C4400411451046104710419F032E0E31AF108FB
:101C5400F801E870FF27EE83FF8303FF03C0F1E080
:101C6400EF1AF108F6010084F185E02D3197EE8733
:101C7400FF87EA0DFB1D10829C012E193F0928875E
:101C84003987C801827099278A879B87EB818E2FB9
:101C9400EE0F990B9C01215431092C873D872E8529
:101CA4003F852230310530F48C819D81892B09F0E8
:101CB40042C05CC0411451046104710461F18E8519
:101CC4009F8501978E879F87C2018F7099278A30DD
:101CD400910514F4C09602C0895A9F4FEC85FD8586
:101CE4007A9748F49C012062215631092A31310542
:101CF40010F40E949932EE85FF85EA0DFB1D808366
:101D0400F1E0EF1AF10884E07694679457944794CD
:101D14008A95D1F7C4CF888599858E0D9F1D181695
:101D240019066CF21E141F040CF0BECFEA85FB8565
:101D3400EF2B29F6B9CFE981FA8180819181A281C3
:101D4400B381892B8A2B8B2B89F0EE85FF85EA0DD5
:101D5400FB1D31972B8120838E859F8502978E876B
:101D64009F87FC01EA0DFB1D80E38083EE81FF81E8
:101D7400EF2B59F02E853F85215031092E873F875F
:101D8400F901EA0DFB1D80E28083F601408551854F
:101D9400415051092E853F85421B530BB9016A0DF1
:101DA4007B1D9401C1010E949E279C01F101808149
:101DB400918190FF06C0F601828193818217930777
:0C1DC4000CF4C9012F96E2E10C94122FE0
:101DD000CF93DF93CDB7DEB76097CDBFDEBF8A87E5
:101DE0009B876C877D874E875F87288B19828981C7
:101DF000E82FF0E04E855F859A01ADECBCEC0E94C7
:101E0000D631969587959695879596958795880F5F
:101E1000991F9C01220F331F220F331F820F931F24
:101E20009A01281B390BC90120E3280FCE01049623
:101E30008E0F9F1FFC0120838E859F859C01ADEC3A
:101E4000BCEC0E94D6319695879596958795969588
:101E500087958E879F8789818F5F89838E859F85F0
:101E6000892B91F08981853010F20EC08981882FED
:101E700090E09E012C5F3F4F820F931F20E3FC01F7
:101E8000208389818F5F898399818889981718F4C5
:101E90008981853058F31A823EC08A81882F90E06C
:101EA0009E012C5F3F4F820F931FFC0180818B832B
:101EB0008A81882F90E02981422F50E02A81222FA9
:101EC00030E0BA01621B730B9B0121503109AE0156
:101ED0004C5F5F4F240F351FF90140819E012C5F3D
:101EE0003F4F820F931FFC0140838981282F30E0F0
:101EF0008A81882F90E0A901481B590BCA010197DC
:101F00009E012C5F3F4F820F931F2B81FC0120838A
:101F10008A818F5F8A838981982F96958A81891714
:101F200008F4BBCF8981882F90E09E012C5F3F4F42
:101F3000820F931FFC011082AE014C5F5F4F2C8516
:101F40003D858A859B85B9010E9418116096CDBF99
:081F5000DEBFDF91CF9108957F
:101F58000F931F93CF93DF93CDB7DEB72897CDBFED
:101F6800DEBF198281E08A83A1C08091514D282F5C
:101F780030E08981482F50E081E090E002C0880F6E
:101F8800991F4A95E2F7992782239323892B21F4F5
:101F980089818F5F89838AC089818B8303C08B8104
:101FA8008F5F8B838B81882F90E001960897B0F420
:101FB8008091514D282F30E08B81882F90E0AC0123
:101FC8004F5F5F4F81E090E002C0880F991F4A95EC
:101FD800E2F7992782239323892B09F76B8189815B
:101FE8000E94A72B882309F452C08B81282F30E048
:101FF8008981882F90E0A901481B590BCA010196D5
:102008009695982F8827979587958C839D838981A6
:10201800882F90E09695982F882797958795875BC6
:102028009B4B8E839F838E819F81FC018081888753
:102038008E819F8120E4FC0120838C819D81AC01ED
:102048004F5F5F4F8091F44C9091F54CA091F64C06
:10205800B091F74C2E813F818A014DE350E0BC01DD
:10206800CD010E948C29882331F08A81882319F0B8
:1020780081E090E002C080E090E08A838A818170EC
:102088008A838E819F812885FC01208301C01A8262
:102098006B8189810E944C2C982F90958091514D8D
:1020A80089238093514D8B818F5F89838981883003
:1020B80008F45BCF8A812896CDBFDEBFDF91CF9130
:0620C8001F910F91089525
:1020CE00CF93DF9300D000D0CDB7DEB719829EC07C
:1020DE008981282F30E0C901880F991F880F991F19
:1020EE00820F931F8A57934BFC01908181E08927C1
:1020FE00882309F488C00E941E2B8A839B838981C2
:10210E00282F30E0C901880F991F880F991F820F61
:10211E00931F8A57934B21E0FC0120838981282F3E
:10212E0030E0C901880F991F880F991F820F931FE6
:10213E008E57934B20E038E0FC01208331838A8157
:10214E0087708C838C81843090F48981282F30E0C5
:10215E00C901880F991F880F991F820F931F8C57E3
:10216E00934B24ED3CE4FC012083318326C08C810B
:10217E00873090F48981282F30E0C901880F991F8C
:10218E00880F991F820F931F8C57934B28ED3CE4B9
:10219E00FC012083318311C08981282F30E0C901D1
:1021AE00880F991F880F991F820F931F8C57934B7F
:1021BE002CED3CE4FC01208331838A819B81AC01B0
:1021CE005695479556954795569547959A01A9E880
:1021DE00B8E80E94D63196958795929582958F7024
:1021EE0089279F7089276CE3689F9001699F300D46
:1021FE001124CA01821B930B805C9F4F8093074D65
:10220E009093084D07C089818F5F898389818330C0
:10221E0008F45ECF00002496CDBFDEBFDF91CF91D4
:02222E00089511
:10223000CF93DF93CDB7DEB76097CDBFDEBF8B877F
:102240009C876D877E874F87588B8B859C8589837C
:102250009A838F859889892B09F487C08F859889FF
:102260008B839C838D8587708E838D859E859695C7
:10227000879596958795969587958F836FC08B8167
:102280009C81FC0180810E94942D282F30E0C9019F
:10229000880F991F880F991F820F931F865B974B9A
:1022A000888799871D824CC08D81882F90E0288572
:1022B0003985820F931FFC0180818A878A85882354
:1022C000E1F18A85882F90E02E81222F30E002C034
:1022D000880F991F2A95E2F7482F8D81282F30E02B
:1022E00089819A81820F931F21E0BC018F810E9416
:1022F000101A8E81882309F18A85882F90E02E811B
:10230000222F30E048E050E0BA01621B730B9B01C2
:1023100002C0959587952A95E2F7482F8D81282F41
:1023200030E089819A81820F931F2F8131E0320F33
:1023300021E0BC01832F0E94101A8D818F5F8D8355
:102340008D81853008F4B0CF89819A810696898382
:102350009A838B819C8101968B839C838B819C814A
:10236000FC018081882309F08ACF89819A81609657
:0A237000CDBFDEBFDF91CF910895CD
:10237A00CF93DF9300D0CDB7DEB78091474D882F3A
:10238A0090E0880F991F8E59934BFC01108211829D
:10239A0080E298E0FC018181882F90E0847099277F
:1023AA00892BC9F08091474D882F90E0880F991F9B
:1023BA008E59934BFC0120812260FC01208380917D
:1023CA00294D90912A4D892B31F08091294D909178
:1023DA002A4DFC01099580E298E0FC018181882F51
:1023EA0090E082709927892B89F08091274D81602E
:1023FA008093274D80912D4D90912E4D892B31F050
:10240A0080912D4D90912E4DFC01099580E298E026
:10241A00FC018181882F90E080749927892BC9F06B
:10242A008091474D882F90E0880F991F8E59934BC2
:10243A00FC0120812460FC01208380912B4D909126
:10244A002C4D892B31F080912B4D90912C4DFC0114
:10245A00099580E298E0FC01808189838091474D4B
:10246A008F5F87708A838091484D9A81981789F087
:10247A008091474D882F90E08156934B2981FC012A
:10248A0020838A818093474D8091494D8F5F809345
:10249A00494D8091314D9091324D892B31F0809187
:1024AA00314D9091324DFC01099500000F900F902B
:0624BA00DF91CF910895AF
:1024C000EF92FF920F931F93CF93DF93CDB7DEB7B9
:1024D0006097CDBFDEBF8D879E876F87788B8D8598
:1024E0009E85CC01A0E0B0E0880F991FAA1FBB1FFA
:1024F000880F991FAA1FBB1F880F991FAA1FBB1FF8
:10250000880F991FAA1FBB1F8B839C83AD83BE833B
:1025100080EE91E08F8398878F859889892B19F4B5
:1025200080E090E065C08F8598899C0140E050E094
:102530008F859889CC01A0E0B0E0BC01CD010E945C
:102540007B317B018C018F8598899C0140E050E0B4
:102550008B819C81AD81BE81BC01CD010E947B310C
:10256000DC01CB01880F991FAA1FBB1F880F991F81
:10257000AA1FBB1F880F991FAA1FBB1F8E0D9F1D6F
:10258000A01FB11F89879A87AB87BC8789859A85E9
:10259000AB85BC85BC01CD010E94AB189C018F8529
:1025A0009889A901481B590BCA019695879589837B
:1025B0009A8305C089819A81019789839A832981A9
:1025C0003A818F8598898217930768F42F85388917
:1025D00089819A81B9010E9493209C018F819885FD
:1025E0008217930738F389819A8191958195910992
:1025F0006096CDBFDEBFDF91CF911F910F91FF900D
:04260000EF900895BA
:10260400EF92FF920F931F93CF93DF93CDB7DEB773
:102614002A97CDBFDEBF0E944F2DDC01CB018983F9
:102624009A83AB83BC838091E44C9091E54CA09158
:10263400E64CB091E74C29813A814B815C81790168
:102644008A01E81AF90A0A0B1B0BD801C70105977E
:10265400A105B10508F46BC08FEF8A8789819A813F
:10266400AB81BC818093E44C9093E54CA093E64C01
:10267400B093E74CCE010A96BC0189E00E94B728CA
:10268400882309F452C080914B4D8D8381E080935F
:102694004F4D8A8580934A4D8A858095807E8E83AE
:1026A40080914C4D882F90E08850934B2E81FC01F3
:1026B400208380914C4D8F5F80934C4D80914C4D85
:1026C400833010F010924C4D9091F84C8091F94C5D
:1026D40098238091FA4C89238F839091F84C8091B0
:1026E400F94C982B8091FA4C892B888790914B4D0B
:1026F400888598238F81892B80934B4D90914B4DE6
:102704008D818927898790914B4D89859823809164
:102714004D4D892B80934D4D99858D8198238091C2
:102724004E4D892B80934E4D02C010924F4D0000A8
:102734002A96CDBFDEBFDF91CF911F910F91FF90FD
:04274400EF90089575
:10274800EF92FF920F931F93CF93DF93CDB7DEB72E
:102758000E94F1300E94AC0F10923B4D10920B4D2D
:1027680010920C4D64E070E088E190E00E946012E5
:102778008093034D9093044D0E94BC2A0E944F2DD4
:10278800DC01CB018093C04C9093C14CA093C24C08
:10279800B093C34C8091C04C9091C14CA091C24C55
:1027A800B091C34C8093C44C9093C54CA093C64C35
:1027B800B093C74C0E94AF0B87EF99E40E94873211
:1027C8008091034D9091044D9C0183E090E0821B21
:1027D800930B969587959695879528E2289F700183
:1027E800299FF00C11248091034D9091044D9C0178
:1027F80083E090E0821B930B8C0116950795169544
:1028080007958091034D9091044D9195819591097B
:1028180064E070E00E9493209C01329522952F700D
:1028280023273F7023278091034D9091044D4F2D0E
:102838004F934E2D4F93412F4F93402F4F93432F3C
:102848004F932F93292F2F938F931F9288E18F9364
:102858001F9284E08F9384E39AE4892F8F9384E313
:102868009AE48F930E94E22E8DB79EB70E96CDBF45
:10287800DEBF0000DF91CF911F910F91FF90EF9085
:022888000895B1
:10288A00EF92FF920F931F93CF93DF93CDB7DEB7EB
:10289A002597CDBFDEBF0E944F2DDC01CB018A8375
:1028AA009B83AC83BD83198218C00E9486088091DD
:1028BA00C04C9091C14CA091C24CB091C34C44966B
:1028CA00A11DB11D8093C04C9093C14CA093C24CE2
:1028DA00B093C34C89818F5F89838091C04C90915A
:1028EA00C14CA091C24CB091C34C2A813B814C810E
:1028FA005D8179018A01E81AF90A0A0B1B0BD801D2
:10290A00C7014497A105B10518F08981843068F29E
:10291A008091C04C9091C14CA091C24CB091C34CD3
:10292A002A813B814C815D8179018A01E81AF90A81
:10293A000A0B1B0BD801C70180359105A105B1050A
:10294A0060F08A819B81AC81BD818093C04C909359
:10295A00C14CA093C24CB093C34C8091C44C90918B
:10296A00C54CA091C64CB091C74C2A813B814C8181
:10297A005D8179018A01E81AF90A0A0B1B0BD80151
:10298A00C7014497A105B10570F08A819B81AC818A
:10299A00BD818093C44C9093C54CA093C64CB09310
:1029AA00C74C0E94AF0B00002596CDBFDEBFDF915A
:0C29BA00CF911F910F91FF90EF900895B6
:1029C600CF93DF93CDB7DEB72997CDBFDEBF8D831B
:1029D6009E836F83788749878D819E8199230CF426
:1029E6007BC08D819E81803891050CF075C08F81EA
:1029F600988599230CF470C08F8198858034910551
:102A06000CF06AC08F8198859695879596958795DF
:102A16009695879589838F8198859C01277081E09B
:102A260090E002C0880F991F2A95E2F78A83898170
:102A3600882F90E09C013695322F222737952795CF
:102A46008D819E81820F931F8B839C838985882F1E
:102A560090E0009719F0029789F01FC08B819C8146
:102A6600865B9B4B2B813C81265B3B4BF90130817E
:102A76002A8120952323FC0120831EC08B819C8103
:102A8600865B9B4B2B813C81265B3B4BF90130815E
:102A96002A812327FC0120830FC08B819C81865BC2
:102AA6009B4B2B813C81265B3B4BF90130812A8174
:102AB600232BFC01208300008981282F30E081E050
:102AC60090E002C0880F991F2A95E2F7982F80910F
:102AD600514D892B8093514D00002996CDBFDEBF05
:062AE600DF91CF9108957D
:102AEC00CF93DF93CDB7DEB76097CDBFDEBF8B87BB
:102AFC009C876D877E874F87288B8D859E858983E4
:102B0C009A838F85282F30E08D859E85820F931FA9
:102B1C0001978B839C838F85882309F46BC08B81F1
:102B2C009C8199230CF466C089819A81803491052B
:102B3C000CF060C089819A81992314F419821A824D
:102B4C008B819C818034910524F08FE390E08B8302
:102B5C009C8389819A81969587959695879596956C
:102B6C0087958E838B819C81969587959695879575
:102B7C00969587958F838E818D8338C09D818E81AC
:102B8C00981719F48981877001C080E088879D812E
:102B9C008F81981719F48B81877001C087E0898722
:102BAC008885282F30E08FEF90E002C0880F991FA6
:102BBC002A95E2F7482F8985882F90E027E030E0AE
:102BCC00281B390B8FEF90E002C0969587952A95BC
:102BDC00E2F784238A878B859C8528894A85BC01EA
:102BEC008D810E94101A8D818F5F8D839D818F81C5
:102BFC00891720F600006096CDBFDEBFDF91CF9124
:022C0C00089529
:102C0E000F931F93CF93DF93CDB7DEB72697CDBF2C
:102C1E00DEBF6B837C838D839E838091E04C90918D
:102C2E00E14CA091E24CB091E34C2B813C814D8163
:102C3E005E81281739074A075B0709F468C021E04F
:102C4E008B819C81AD81BE8181389A41A640B105B0
:102C5E0008F420E0298380E099E0FC018081882F30
:102C6E0090E08270992721E0892B09F420E02A83D5
:102C7E0068E572E080E090E00E940F2800E019E025
:102C8E008B819C81AD81BE81BC01CD010E94F61A63
:102C9E00F801868399818A81981769F180E099E01D
:102CAE0020E039E0F90123812E7FFC012383898105
:102CBE00882351F080E099E020E039E0F90120818D
:102CCE002260FC01208309C080E099E020E039E019
:102CDE00F90120812D7FFC01208380E099E020E026
:102CEE0039E0F90123812160FC01238380E099E022
:102CFE0021E0FC0125838B819C81AD81BE81809377
:102D0E00E04C9093E14CA093E24CB093E34C000066
:102D1E002696CDBFDEBFDF91CF911F910F91089503
:102D2E00CF93DF93CDB7DEB76097CDBFDEBF8F8772
:102D3E00988B8091FF4C9091004D95958795959528
:102D4E008795959587959595879589839A838DE037
:102D5E0090E08B839C8383E190E08D839E838981B9
:102D6E009A8140968F8398878F859889FC01808100
:102D7E009181959587959595879595958795959537
:102D8E008795019689879A878F859889FC0180811E
:102D9E0091819C01359527953595279535952795E4
:102DAE00359527958F859889FC0182819381FC0149
:102DBE008081882F90E0820F931F01978B879C87CD
:102DCE008F859889FC0182819381FC018181882FF6
:102DDE0090E027E330E0A901481B590BCA018D870B
:102DEE009E8789819A81039689839A832D813E815C
:102DFE0089859A8582179307ACF42B813C818B854C
:102E0E009C852817390774F42F8138858D859E850A
:102E1E00821793073CF489819A81C6971CF481E04E
:102E2E0090E002C080E090E081706096CDBFDEBF82
:062E3E00DF91CF91089521
:102E4400CF93DF9300D00F92CDB7DEB760E085E07B
:102E54000E94FB2B89838981882349F06FEF80E0EE
:102E64000E94FB2B882319F081E090E002C080E0EF
:102E740090E089838981817089838981882349F0DD
:102E840060E081E00E94FB2B882319F081E090E050
:102E940002C080E090E0898389818170898389817F
:102EA400882349F060E086E00E94FB2B882319F018
:102EB40081E090E002C080E090E0898389818170A4
:102EC4008983898180934F4D10924B4D10924D4DC3
:102ED40010924E4D10924C4D0E944F2DDC01CB01AF
:102EE4008093E44C9093E54CA093E64CB093E74C6C
:102EF4008981882341F18FEF8B83CE010396BC0136
:102F040089E00E94B7288823D9F08B8180934A4DA9
:102F14001A820DC08A81882F90E02B812095207E13
:102F24008850934BFC0120838A818F5F8A838A8136
:102F3400833080F38B818095807E80934B4D03C0DA
:102F440010924F4D198289812396CDBFDEBFDF9148
:042F5400CF9108957C
:102F58001F920F920FB60F9211240BB60F922F9358
:102F68003F934F935F936F937F938F939F93AF9309
:102F7800BF93EF93FF93CF93DF93CDB7DEB788E08E
:102F880090E0FC018381882F90E082709927892B3B
:102F980031F080911B4D90911C4DFC01099588E002
:102FA80090E0FC018381882F90E081709927892B1C
:102FB80031F080911D4D90911E4DFC01099588E0DE
:102FC80090E0FC018381882F90E088709927892BF5
:102FD80031F080911F4D9091204DFC01099588E0BA
:102FE80090E0FC018381882F90E084709927892BD9
:102FF80031F08091214D9091224DFC01099588E096
:1030080090E0FC018381882F90E080749927892BB8
:1030180031F08091234D9091244DFC01099588E071
:1030280090E02FEFFC0123830000DF91CF91FF9107
:10303800EF91BF91AF919F918F917F916F915F9128
:103048004F913F912F910F900BBE0F900FBE0F9095
:043058001F90189518
:10305C00CF93DF93CDB7DEB72A97CDBFDEBF89877D
:10306C009A8788E592E0A0E0B0E089839A83AB83ED
:10307C00BC838091E04C9091E14CA091E24CB091DA
:10308C00E34C892B8A2B8B2B09F453C089859A85A9
:10309C009C0140E050E0DA01C901880F991FAA1F7A
:1030AC00BB1F880F991FAA1FBB1F880F991FAA1F30
:1030BC00BB1F820F931FA41FB51F4296A11DB11DEC
:1030CC008D839E83AF83B8872D813E814F81588538
:1030DC0088EE93E0DC010E943032DC01CB012091C0
:1030EC00E04C3091E14C4091E24C5091E34CBC01EE
:1030FC00CD010E94722DDA01C9010596A11DB11DE9
:10310C00880F991FAA1FBB1F89839A83AB83BC832B
:10311C0089819A81AB81BC8189359240A105B10529
:10312C0040F088E592E0A0E0B0E089839A83AB831D
:10313C00BC8389819A81AB81BC81BC01CD012A966B
:0A314C00CDBFDEBFDF91CF910895E3
:10315600CF93DF93CDB7DEB72C97CDBFDEBF6987A0
:103166007A878B879C8789859A85AB85BC850297EC
:10317600A105B10518F489859A8560C089859A8567
:10318600AB85BC8589839A83AB83BC8389859A8505
:10319600AB85BC8529813A814B815C81BC01CD011F
:1031A6000E94722DDA01C9019C01AD0189819A81C3
:1031B600AB81BC81820F931FA41FB51FB695A7953F
:1031C600979587958D839E83AF83B88728C08D8119
:1031D6009E81AF81B88589839A83AB83BC838985B9
:1031E6009A85AB85BC8529813A814B815C81BC017E
:1031F600CD010E94722DDA01C9019C01AD018981C0
:103206009A81AB81BC81820F931FA41FB51FB6950F
:10321600A795979587958D839E83AF83B8872D81D4
:103226003E814F81588589819A81AB81BC8128175F
:1032360039074A075B0758F289819A812C96CDBFD8
:08324600DEBFDF91CF91089576
:10324E00CF93DF93CDB7DEB72597CDBFDEBF198203
:10325E001A821B8281E08C8380E4809349448FEF35
:10326E008093524D1092534D2AC089819A81815F6D
:10327E00944BFC0180818D8389819A810196815FB7
:10328E00944B6D810E94BD25982F81E0892788235C
:10329E0049F08B818093524D0E9451328093534D51
:1032AE001C8215C08D81282F30E089819A81820F72
:1032BE00931F019689839A838B818F5F8B8389817C
:1032CE009A81815F944BFC018081882371F68C81F9
:1032DE00882389F00E94F1300E94AC0F982F81E074
:1032EE008927882341F080EF8093524D0E945132FE
:1032FE008093534D1C828C81882381F08FEA0E942B
:10330E00C731982F81E08927882341F081EF809380
:10331E00524D0E9451328093534D1C828C812596C2
:0A332E00CDBFDEBFDF91CF910895FF
:10333800CF93DF93CDB7DEB780E099E0FC018581BC
:10334800882F90E084709927892B51F480E099E0C8
:10335800FC018581882F90E088709927892B61F07E
:1033680086E080939E4C83E080939D4C80E099E0BA
:103378002CE0FC0125832DC080E099E0FC018781C9
:10338800882389F080E099E0FC018581882F90E00E
:1033980080719927892B39F085E080939E4C81E0D4
:1033A80080939D4C16C080E099E0FC0180858823BD
:1033B80081F080E099E0FC018581882F90E08071A0
:1033C8009927892B31F085E080939E4C82E0809389
:1033D8009D4C80919E4C882F90E0880F991F815CAE
:1033E800934BFC0180819181FC01099580939E4C4F
:1033F80080919D4C882361F08091174D9091184DD4
:10340800892B31F08091174D9091184DFC01099549
:083418000000DF91CF9108953F
:10342000CF93DF93CDB7DEB72797CDBFDEBF8B83BA
:103430006C837D834E832F838E81882309F45DC046
:103440008C819D8199230CF458C08C819D8180389A
:1034500091050CF052C08B81883008F04EC08B81F2
:10346000882F90E09C013695322F2227379527959B
:103470008C819D81820F931F865B9B4B89839A83EE
:103480008F81882F90E0009719F0029771F019C092
:1034900089819A81FC0190818E818095292F282332
:1034A00089819A81FC01208318C089819A81FC015D
:1034B00090818E81292F282789819A81FC01208380
:1034C0000CC089819A81FC0190818E81292F282B43
:1034D00089819A81FC01208300008B81282F30E0B4
:1034E00081E090E002C0880F991F2A95E2F7982F9B
:1034F0008091514D892B8093514D00002796CDBF6F
:08350000DEBFDF91CF910895B9
:10350800A2E0B0E0EAE8FAE10C94992E3C016B01E4
:10351800FB0122813381A480B580808191818983D8
:103528009A8386809780FA01208031804280538078
:10353800B201A10157FE07C044275527BA01421915
:1035480053096409750937FD03C08D7F89839A8300
:10355800950157FC05C0898182FD02C083FF02C026
:1035680021503109CE0101967C010AE010E0C60124
:103578000E94D51D57FC03C0298122FF0AC001976C
:10358800F401E80FF91F57FC02C02BE209C02DE235
:1035980007C023FF06C00197F401E80FF91F20E2D6
:1035A800208309811A81F6014085518541505109CE
:1035B800481B590BB401680F791F9501C3010E947C
:1035C8009E279C01F3018081918190FF06C0F6013E
:1035D80082819381821793070CF4C9012296E2E154
:0435E8000C94122FFE
:1035EC00EF92FF920F931F93CF93DF93CDB7DEB77C
:1035FC006197CDBFDEBF6E877F87888B998B1982D1
:10360C008E859F85A889B989892B8A2B8B2B09F4E8
:10361C004DC080E096E3AEE6B1E02E853F8548894B
:10362C005989BC01CD010E94722DDA01C9018A832E
:10363C009B83AC83BD838DE08E831F821886198695
:10364C002A813B814C815D818E819F81A885B985C2
:10365C0082179307A407B50748F52A813B814C8153
:10366C005D818E819F81A885B98579018A01E81ACF
:10367C00F90A0A0B1B0BD801C7010196A11DB11D3C
:10368C00B695A795979587958A879B87AC87BD87B5
:10369C008A859B85AC85BD858F3F9105A105B105BC
:1036AC0009F010F48A8501C08FEF898389816196B6
:1036BC00CDBFDEBFDF91CF911F910F91FF90EF90A7
:0236CC0008955F
:1036CE00CF93DF93CDB7DEB78DEB91E180930240C0
:1036DE00909303408DEE9AE28093004090930140C8
:1036EE0080E298E021E433E0FC012087318780E21C
:1036FE0098E020EDFC01258380E298E020ECFC01AF
:10370E00268380E298E023E0FC01278380E298E0A4
:10371E00FC01138680E298E0FC01148680E298E0BA
:10372E00FC01168680E298E0FC01158682ED92E39C
:10373E000E94582F8AED92E30E946F2F82EE92E341
:10374E000E94862F1092274D1092284D1092434DB5
:10375E001092444D80E28093454D81E08093464D1A
:10376E001092474D1092484D1092494D80E298E0CC
:10377E0020E238E0F90125812068FC012583809143
:10378E00354D9091364D22E73CE4FC012083318388
:08379E000000DF91CF910895B6
:1037A600CF93DF930F92CDB7DEB784E08983809104
:1037B6009A4C90919B4C019751F480E099E020E05F
:1037C60039E0F90124812460FC01248309C080E0EA
:1037D60099E020E039E0F90124812B7FFC01248364
:1037E60080919A4C90919B4C019780939A4C909320
:1037F6009B4C892BC9F08091984C9091994C20E074
:1038060039E0F9012085FC0120838091984C909144
:10381600994C01968093984C9093994C82E00E9423
:10382600412F84E089831FC08091984C9091994CD8
:1038360020E039E0F9012085FC0120838091984C35
:103846009091994C01968093984C9093994C80E076
:1038560099E020E039E0F90124812460FC01248309
:103866000E94F331898389810F90DF91CF9108956A
:10387600CF93DF93DC01F90168387105F1F05CF450
:103886006138710561F164387105A1F1603871051F
:1038960009F051C02FC0603C710509F441C0603F7A
:1038A6007105F1F1603A710509F045C0C081D18119
:1038B600CE0102968083918325C0C081D181CE013D
:1038C600029680839183452B39F04881042E000CA3
:1038D600550B660B770B1CC0488150E029C0C08190
:1038E600D181CE01049680839183488159816A8172
:1038F6007B810EC0C081D181CE01029680839183E7
:10390600452BA1F048815981052E000C660B770BDB
:103916004D935D936D937C93139781E090E00DC07A
:10392600C081D181CE0102968083918348815981DD
:1039360060E070E0EDCF80E090E0DF91CF910895F8
:103946000F93CF93DF93CDB7DEB72897CDBFDEBFFA
:103956008A839B836C837D834E832F8308878E8126
:10396600882309F44CC08F81882309F448C06C81F0
:103976007D818A819B8128854E810E9462228F816A
:10398600282F30E08C819D81820F931FBC016150EE
:1039960071098A819B8128854E810E94622281E07D
:1039A600898323C08981282F30E08C819D81280F4F
:1039B600391F8A819B814885B9010E94E314898158
:1039C600282F30E08C819D81B901680F791F8E8187
:1039D600282F30E08A819B81820F931F01974885AB
:1039E6000E94E31489818F5F89838981282F30E0C3
:1039F6008F81882F90E001972817390798F20000E9
:0E3A06002896CDBFDEBFDF91CF910F910895BE
:103A1400CF93DF93CDB7DEB72597CDBFDEBF8FEF52
:103A24009FEF89839A831B824DC08B81282F30E0BE
:103A3400C901880F991F880F991F820F931F8A57F6
:103A4400934BFC0180818823D1F18B81282F30E0B6
:103A5400C901880F991F880F991F820F931F8E57D2
:103A6400934BFC0180819181AC0155954795559507
:103A7400479555954795559547958B81282F30E067
:103A8400C901880F991F880F991F820F931F8C57A4
:103A9400934BFC0180819181FC018081882F90E00F
:103AA400840F951F8C839D832C813D8189819A810C
:103AB4008217930724F48C819D8189839A838B8157
:103AC4008F5F8B838B81833008F4AFCF89819A8198
:0C3AD4002596CDBFDEBFDF91CF91089595
:103AE000CF93DF93CDB7DEB780E096E020E036E0FD
:103AF000F90120812E7FFC01208380E096E020E008
:103B000036E0F90124852C7FFC01248780E096E0D3
:103B100023E0FC0125871092134D1092144D109252
:103B2000154D1092164D80E096E0FC01118280E068
:103B300096E0FC01128280E096E0FC01138280E0B6
:103B400096E0FC01148280E096E0FC01158280E0A2
:103B500096E027E0FC01208780E096E020E4FC016D
:103B6000218780E096E0FC01128680E096E0FC016F
:103B7000138680E096E0FC01168680E096E0FC016A
:103B8000148A158A80E096E0FC01128A138A80E08C
:103B900096E021E0FC01248780E096E021E0FC0132
:0A3BA00020830000DF91CF9108950B
:103BAA00A0E0B0E0EBEDFDE10C949B2EDC012801D6
:103BBA001696AD90BC901797F70180819181129665
:103BCA00ED91FC9113971896CD91DC911997219755
:103BDA00F7FF02C0E1E0F0E0CA0DDB1D18826901BF
:103BEA00A1E0B0E08F01021B130B4C01F2E08F221F
:103BFA009924052C000C66087708CE018A199B09BE
:103C0A00CA15DB0519F1411551056105710589F0E0
:103C1A00CB01BA01A30192010E94722DCA01A62FFB
:103C2A00B72F605D6A9341E0C41AD108A901BC01AB
:103C3A00E4CF98012C0D3D1D121613064CF31C14EB
:103C4A001D0434F48114910419F702C080E090E055
:103C5A00AB2B31F4F701208131812F7E2083318310
:0A3C6A00CDB7DEB7E0E10C94142F93
:103C7400CF93DF9300D0CDB7DEB78091404D88233A
:103C8400B1F42091094D30910A4D80910D4D9091E0
:103C94000E4D2817390759F420910B4D30910C4DD6
:103CA40080910F4D9091104D28173907D1F160E0A4
:103CB40080E00E949F1F49EA59E460E070E080E0E0
:103CC40090E00E94181189839A8340910B4D509182
:103CD4000C4D89819A81039625E060E070E00E9492
:103CE400E80E89839A838091094D90910A4D25E0CD
:103CF400AC0160E070E082E690E00E94E80E809102
:103D0400094D90910A4D80930D4D90930E4D8091E5
:103D14000B4D90910C4D80930F4D9093104D10923C
:0E3D2400404D00000F900F90DF91CF91089559
:103D3200CF93DF93CDB7DEB780E09AE0FC0110A607
:103D420011A680E09AE0FC0112A613A680E09AE098
:103D5200FC0114A615A680E09AE0FC0110A211A2B3
:103D620080E09AE0FC01118280E09AE0FC0112827C
:103D720080E09AE0FC01138280E09AE0FC01148268
:103D820080E09AE0FC01158280E09AE0FC01168254
:103D920080E09AE0FC01178280E09AE0FC0116863E
:103DA20080E09AE0FC01118680E09AE021E0FC01CB
:103DB200228780E09AE0FC01138680E09AE02FEBF4
:103DC2003DE5FC0126A337A380E09AE0FC011786BB
:103DD20080E09AE021E0FC0120830000DF91CF9196
:023DE200089542
:103DE400A2E0B0E0E8EFFEE10C949D2E4C016B01E3
:103DF400FB01228133816480758080819181898374
:103E04009A83A680B78037FD03C08D7F89839A8308
:103E1400FA014081518162817381CE0101967C0156
:103E240008E010E09301C6010E94D51D298124FFFA
:103E340006C00197F501E80FF91F20E320832981CB
:103E440023FF06C00197F501E80FF91F20E2208344
:103E540009811A81F6014085518541505109481B59
:103E6400590BB501680F791F9301C4010E949E2765
:103E74009C01F4018081918190FF06C0F60182814A
:103E84009381821793070CF4C9012296EEE00C94F7
:023E9400162FE7
:103E9600CF93DF93CDB7DEB70E94F13069E97AE4BC
:103EA60080E090E00E94582A21E040E869E070E056
:103EB60080E090E00E94622246EA5AE46CE070E0FC
:103EC60080E090E00E9418114AEA5AE462E270E04B
:103ED60080E090E00E9418110E944F2DDC01CB017A
:103EE6008093B44C9093B54CA093B64CB093B74C1A
:103EF6008091B44C9091B54CA091B64CB091B74C12
:103F06008093B84C9093B94CA093BA4CB093BB4CE9
:103F16001092FB4C1092FC4C1092FD4C1092FE4CF1
:103F26008FEF8093394D8FEF80933A4D0E94AC0FFF
:083F36000000DF91CF91089516
:103F3E00CF93DF9300D000D0CDB7DEB78B836C83E9
:103F4E008B81883008F040C08C818830E8F59B81E9
:103F5E008C818917C8F19C818B81292F281B822F78
:103F6E008F5F8A838A81882F90E09C013695322F4D
:103F7E002227379527958B81882F90E09695982F3D
:103F8E00882797958795865B9B4BA90160E070E02B
:103F9E000E9490328B81898313C08981282F30E053
:103FAE0081E090E002C0880F991F2A95E2F7982FC2
:103FBE008091514D892B8093514D89818F5F8983DB
:103FCE0099818C81891748F700002496CDBFDEBFFA
:063FDE00DF91CF91089570
:103FE400CF93DF93CDB7DEB72B97CDBFDEBF8E83E4
:103FF4009F83488759876A877B8719828E819F812F
:10400400892BC1F10E944F2DDC01CB018A839B8354
:10401400AC83BD838E819F81FC0180819181A281CB
:10402400B3812A813B814C815D81281B390B4A0B6A
:104034005B0B88859985AA85BB85281739074A07AC
:104044005B07C0F08E819F81FC0120813181428118
:10405400538188859985AA85BB85820F931FA41FE8
:10406400B51F2E813F81F90180839183A283B3839D
:1040740081E0898389812B96CDBFDEBFDF91CF910B
:0240840008959D
:104086001F920F920FB60F9211240BB60F922F9319
:104096003F934F935F936F937F938F939F93AF93CA
:1040A600BF93EF93FF93CF93DF93CDB7DEB780E255
:1040B60098E0FC018481882F90E08074992721E0A4
:1040C600892B09F420E02093464D80912F4D909145
:1040D600304D892B31F080912F4D9091304DFC0160
:1040E600099580E298E020E238E0F9012481206415
:1040F600FC0124830000DF91CF91FF91EF91BF91E6
:10410600AF919F918F917F916F915F914F913F9169
:104116002F910F900BBE0F900FBE0F901F9018950A
:10412600CF93DF93CDB7DEB72697CDBFDEBF8B83A8
:104136009C836D837E832B813C818D819E81820F42
:10414600931F01972D813E81B9010E943230CB0128
:1041560089839A8329813A818B819C81289FF001EA
:10416600299FF00D389FF00D11248D819E819C01B1
:1041760040E050E089819A81CC01A0E0B0E0BC012A
:10418600CD010E947B319B01AC0189819A81019707
:10419600CC01A0E0B0E0BC01CD010E947B31DC0186
:1041A600CB01B695A795979587959F01281B390B47
:0E41B600C9012696CDBFDEBFDF91CF910895DF
:1041C4000F931F93CF93DF93CDB7DEB72B97CDBF5C
:1041D400DEBF8A839B836C837D834E835F832887C2
:1041E40039870A871B8719820E94632E982F81E0E2
:1041F4008927882351F181E08093914C8A819B81A6
:104204008093924C9093934C81E080939C4C8C814E
:104214009D818093944C9093954C8E819F81809343
:10422400964C9093974C888599858093984C90935D
:10423400994C8A859B8580939A4C90939B4C1092C1
:104244009D4C0E94193281E0898389812B96CDBFD0
:0C425400DEBFDF91CF911F910F91089504
:10426000CF93DF93CDB7DEB72C97CDBFDEBF698785
:104270007A878B879C8789859A85AB85BC85BC01AD
:10428000CD010E94F61A882F90E0A0E0B0E00596DC
:10429000A11DB11D89839A83AB83BC8389819A81D7
:1042A000AB81BC819C01AD0160E472E48FE090E0E1
:1042B0000E947B31DC01CB0120EC3DE540E050E089
:1042C000BC01CD010E94722DDA01C9018D839E834C
:1042D000AF83B8878D819E81AF81B8850097A1405B
:1042E000B10518F48D819E8102C08FEF9FEF2C964F
:0A42F000CDBFDEBFDF91CF9108952E
:1042FA00CF93DF93CDB7DEB72A97CDBFDEBF8F83CB
:10430A00988769877A878F81988589839A8329858F
:10431A003A858F8198858217930778F529853A859A
:10432A008F819885A901481B590BCA01CC01A0E0CD
:10433A00B0E08B839C83AD83BE830E949D2F9C013A
:10434A0040E050E08B819C81AD81BE81BC01CD01F2
:10435A000E947B31DC01CB012FEF3FE040E050E0CF
:10436A00BC01CD010E94722DDA01C9019C018F8125
:10437A009885820F931F89839A8389819A812A96C5
:0A438A00CDBFDEBFDF91CF91089593
:10439400EF92FF920F931F93CF93DF9300D000D03F
:1043A400CDB7DEB70E944F2DDC01CB0189839A8300
:1043B400AB83BC839091504D81E08927882349F1D8
:1043C4008091F04C9091F14CA091F24CB091F34C4F
:1043D40029813A814B815C8179018A01E81AF90AC1
:1043E4000A0B1B0BD801C7010A97A105B10588F078
:1043F40089819A81AB81BC818093F04C9093F14C7C
:10440400A093F24CB093F34C81E08093504D0E9402
:10441400383100002496CDBFDEBFDF91CF911F91CC
:084424000F91FF90EF90089545
:10442C000F931F93CF93DF93DB01109719F48FEF4A
:10443C009FEF3DC02D913C91119730FF25C01696F2
:10444C004D915C91179714962D913C9115974217AD
:10445C00530778F41296ED91FC9113978083129682
:10446C002D913C9113972F5F3F4F12962D933C93B8
:10447C00139716962D913C9117972F5F3F4F1696D9
:10448C002D933C93179713C01C96ED91FC911D979F
:10449C00309769F2EB01092F182F0995892B39F602
:1044AC008E819F8101968E839F83812F902FDF9128
:0844BC00CF911F910F910895AB
:1044C400CF93DF93CDB7DEB72997CDBFDEBF8C8303
:1044D4009D836E837F83488729878E819F8199235B
:1044E40084F18E819F81803491055CF58E819F815A
:1044F4009695879596958795969587958A838E81C7
:104504009F819C01277081E090E002C0880F991F71
:104514002A95E2F78B83198210C08981282F30E015
:104524008C819D81820F931F29854B81BC018A81D7
:104534000E94101A89818F5F8983998188859817D1
:1045440060F300002996CDBFDEBFDF91CF910895BF
:10455400A2E0B0E0E0EBF2E20C949D2E5C016B0172
:10456400FB012281338184809580808191818983BC
:104574009A836680778037FD03C08D7F89839A8311
:10458400FA014081518162817381CE0101967C01DF
:104594000AE010E09401C6010E94D51D09811A8128
:1045A400F6014085518541505109481B590BB3010F
:1045B400680F791F9401C5010E949E279C01F50193
:1045C4008081918190FF06C0F601828193818217D8
:0E45D40093070CF4C9012296EEE00C94162F0A
:1045E200CF92DF92EF92FF920F931F93CF93DF93BD
:1045F200CDB7DEB72E97CDBFDEBF69837A838B83BB
:104602009C834D835E832F83388709871A87EB86C5
:10461200FC86CD86DE8689819A81AB81BC81BC0114
:10462200CD010E94071629853A858D859E857901DF
:10463200E80EF91EED85FE852B853C8549855A8558
:104642006F8178858D819E818F010E94E220B70162
:104652000E9447282E96CDBFDEBFDF91CF911F91DA
:0C4662000F91FF90EF90DF90CF90089533
:10466E001F920F920FB60F9211240BB60F922F932B
:10467E003F934F935F936F937F938F939F93AF93DC
:10468E00BF93EF93FF93CF93DF93CDB7DEB780E069
:10469E0099E0FC018581882F90E08C719927892BF8
:1046AE0019F00E949C190CC080E099E0FC018581F4
:1046BE00882F90E0807E9927892B11F00E942A2F57
:1046CE000000DF91CF91FF91EF91BF91AF919F913C
:1046DE008F917F916F915F914F913F912F910F909D
:0C46EE000BBE0F900FBE0F901F90189590
:1046FA00CF93DF93CDB7DEB72997CDBFDEBF6B83EC
:10470A007C838D839E834F835887298719828F8163
:10471A009885892B51F188E08A8322C099818985FD
:10472A00981710F58A81282F30E08B819C81AD8102
:10473A00BE81A901BC01CD010E94B126882369F07E
:10474A008981882F90E02F813885820F931F2A81D3
:10475A00FC01208389818F5F89838A818F5F8A83A5
:10476A008A818837D8F201C0000089812996CDBF95
:08477A00DEBFDF91CF9108952D
:10478200CF93DF9300D000D0CDB7DEB70E940D32B9
:1047920089839A8389819A81992314F419821A82CE
:1047A2008091334D9091344D9C0189819A81821B75
:1047B200930B8B839C838B819C81049764F48B8104
:1047C2009C818D3F9F4F3CF089819A818093334D2C
:1047D2009093344D10C08B819C81959587959595CA
:1047E20087952091334D3091344D820F931F8093E2
:1047F200334D9093344D1092504D00002496CDBF0E
:08480200DEBFDF91CF910895A4
:10480A00CF93DF93CDB7DEB72A97CDBFDEBF6F83D5
:10481A00788789879A878F819885A985BA85BC0107
:10482A00CD010E942927DC01CB018B839C83AD83B8
:10483A00BE838B819C81AD81BE81813A9648A1401D
:10484A00B10528F48CE592E189839A8312C08B81A1
:10485A009C81AD81BE8181389A41A640B10528F478
:10486A0084E195E089839A8304C084EF91E0898387
:10487A009A8389819A812A96CDBFDEBFDF91CF9133
:02488A0008958F
:10488C00CF93DF93CDB7DEB72797CDBFDEBF8A833B
:10489C009B836C837D834E835F8319820E94632E7E
:1048AC00982F81E08927882329F181E08093914C0E
:1048BC008A819B818093924C9093934C10929C4C48
:1048CC008C819D818093944C9093954C8E819F818B
:1048DC008093964C9093974C1092984C1092994CC4
:1048EC0010929A4C10929B4C10929D4C0E94193233
:1048FC0081E0898389812796CDBFDEBFDF91CF917F
:02490C0008950C
:10490E00CF93DF930F92CDB7DEB719822FC0898177
:10491E00282F30E0C901880F991F880F991F820F29
:10492E00931F8A57934BFC0110828981282F30E008
:10493E00C901880F991F880F991F820F931F8E57D9
:10494E00934BFC01108211828981282F30E0C9011E
:10495E00880F991F880F991F820F931F8C57934BA7
:10496E00FC011082118289818F5F89838981833056
:0C497E0070F200000F90DF91CF910895BF
:10498A001F920F920FB60F9211240BB60F922F930C
:10499A003F934F935F936F937F938F939F93AF93BD
:1049AA00BF93EF93FF93CF93DF93CDB7DEB780E04A
:1049BA0096E021E0FC0125878091134D9091144DDA
:1049CA00892B31F08091134D9091144DFC0109957A
:1049DA000000DF91CF91FF91EF91BF91AF919F912D
:1049EA008F917F916F915F914F913F912F910F908E
:0C49FA000BBE0F900FBE0F901F90189581
:104A06001F920F920FB60F9211240BB60F922F938F
:104A16003F934F935F936F937F938F939F93AF9340
:104A2600BF93EF93FF93CF93DF93CDB7DEB780E0CD
:104A360096E022E0FC0125878091154D9091164D58
:104A4600892B31F08091154D9091164DFC010995F9
:104A56000000DF91CF91FF91EF91BF91AF919F91B0
:104A66008F917F916F915F914F913F912F910F9011
:0C4A76000BBE0F900FBE0F901F90189504
:104A82001F920F920FB60F9211240BB60F922F9313
:104A92003F934F935F936F937F938F939F93AF93C4
:104AA200BF93EF93FF93CF93DF93CDB7DEB78CE045
:104AB20090E0FC018381882334F48091194D909118
:104AC2001A4DFC0109958CE090E02FEFFC01238345
:104AD2000000DF91CF91FF91EF91BF91AF919F9134
:104AE2008F917F916F915F914F913F912F910F9095
:0C4AF2000BBE0F900FBE0F901F90189588
:104AFE001F920F920FB60F9211240BB60F922F9397
:104B0E003F934F935F936F937F938F939F93AF9347
:104B1E00BF93EF93FF93CF93DF93CDB7DEB7809123
:104B2E00254D9091264D892B31F08091254D9091F8
:104B3E00264DFC01099580E09AE021E0FC012387D7
:104B4E000000DF91CF91FF91EF91BF91AF919F91B7
:104B5E008F917F916F915F914F913F912F910F9018
:0C4B6E000BBE0F900FBE0F901F9018950B
:104B7A000F931F93CF93DF93CDB7DEB72C97CDBF9B
:104B8A00DEBF8A879B876C8719828C85883028F5D7
:104B9A001A828C85482F50E02A853B85CE010296E1
:104BAA000196B9010E9446328C85882F90E0AC01AB
:104BBA004F5F5F4F8091F44C9091F54CA091F64C69
:104BCA00B091F74C9E012E5F3F4F8A014DE350E0B2
:104BDA00BC01CD010E948C29898389812C96CDBF85
:0C4BEA00DEBFDF91CF911F910F91089565
:104BF6000F931F93CF93DF9300D000D0CDB7DEB7CE
:104C060069837A838B839C8389819A81AB81BC81FA
:104C1600BC01CD010E942927DC01CB0181349244DD
:104C2600AF40B105B8F489819A81AB81BC81BC01E2
:104C3600CD010E9430218C0189819A81AB81BC8192
:104C4600BC01CD010E9405240817190718F081E060
:104C560090E002C080E090E081702496CDBFDEBF78
:0A4C6600DF91CF911F910F91089587
:104C7000CF93DF930F92CDB7DEB783E08983809126
:104C8000964C9091974C892BF9F08091964C90918D
:104C9000974C01978093964C9093974C80E099E0C5
:104CA0002091944C3091954CF9012081FC01208792
:104CB0008091944C9091954C01968093944C909354
:104CC000954C83E089830CC080919C4C882329F00B
:104CD00010929C4C81E0898303C00E94F331898348
:0A4CE00089810F90DF91CF910895B4
:104CEA00CF93DF9300D00F92CDB7DEB721E040E833
:104CFA0066E370E080E090E00E946222198222C09E
:104D0A008981282F30E080913F4D882F90E091953E
:104D1A008195910987709927820F931F8A839B83B4
:104D2A008A819B8141E063E370E00E94E3148A81F7
:104D3A009B81049641E064E370E00E94E314898158
:104D4A00885F898389818823DCF600002396CDBF9A
:084D5A00DEBFDF91CF91089547
:104D6200CF93DF93CDB7DEB72797CDBFDEBF6A8380
:104D72007B838C839D834E835F8319828A819B818F
:104D8200AC81BD81BC01CD010E9407168E819F813D
:104D920041E050E09E012F5F3F4FB9010E9446243F
:104DA20061E070E00E9447288091424D813059F0C5
:104DB2008091424D803139F08091424D813119F01C
:104DC20081E090E002C080E090E081702796CDBF44
:084DD200DEBFDF91CF910895CF
:104DDA00CF93DF93CDB7DEB780E099E020E039E0EA
:104DEA00F90123812E7FFC01238380E099E0FC01F5
:104DFA00108280E099E0FC01128280E099E021E7CC
:104E0A00FC01268380E099E0FC01178280E099E0AA
:104E1A00FC01108680E099E0FC01158280E099E0AF
:104E2A00FC01148280E099E021ECFC01238380E0FC
:104E3A0099E021E0FC0125831092174D1092184D3C
:084E4A000000DF91CF910895F3
:104E5200CF93DF93CDB7DEB72897CDBFDEBF6D838B
:104E62007E838F8398878D819E81AF81B885BC01B7
:104E7200CD010E94F61A882F90E0A0E0B0E00596DE
:104E8200A11DB11D880F991FAA1FBB1F0396A11D4B
:104E9200B11D89839A83AB83BC8380E096E3AEE63F
:104EA200B1E029813A814B815C81BC01CD010E9434
:104EB200722DDA01C901BC01CD012896CDBFDEBF3A
:064EC200DF91CF9108957D
:104EC800CF93DF93CDB7DEB70E94273180E096E01D
:104ED80024E0FC01228380E096E02EE0FC0125839B
:104EE80080EA90E025E0FC0120830E94163181ECE5
:104EF80093E20E94463087E00E946B3187E00E946F
:104F0800242C87E00E94242C8093334D9093344DB9
:104F18001092504D0E944F2DDC01CB018093F04C34
:104F28009093F14CA093F24CB093F34C0000DF91B6
:044F3800CF91089578
:104F3C00A0E0B0E0E4EAF7E20C949F2E6C015B0178
:104F4C007A01E901480181E08822992400FD03C01F
:104F5C004217530750F0A701B501C6010E940E2E4F
:104F6C00EC16FD0610F0C70117C08E010E191F09B3
:104F7C000115110541F0B60180E290E00E94162265
:104F8C0001501109F5CF8114910429F4A701B50141
:104F9C00C6010E940E2ECE01CDB7DEB7ECE00C940C
:024FAC00182FBC
:104FAE000F93CF93DF93CDB7DEB72697CDBFDEBF7E
:104FBE008B839C836D834E838D8189831A828B8133
:104FCE009C8101E029E04BE061E270E00E94A31CAD
:104FDE008B819C8103969E012F5F3F4FA90162E258
:104FEE0070E00E9418118E81882351F08B819C8174
:104FFE00019602E027E049E062E270E00E947A2B1F
:10500E0000002696CDBFDEBFDF91CF910F910895A0
:10501E00CF93DF93CDB7DEB72997CDBFDEBF6E83BB
:10502E007F83888799870E944F2DDC01CB018A836D
:10503E009B83AC83BD8381E0898317C00E944F2D73
:10504E009B01AC018A819B81AC81BD81281B390BF0
:10505E004A0B5B0B8E819F81A885B985281739076E
:10506E004A075B0710F0198204C00E94632E882342
:10507E0029F789812996CDBFDEBFDF91CF910895A3
:10508E00CF93DF9300D000D0CDB7DEB78A836B838A
:10509E007C8319829A8181E08927882321F081E11E
:1050AE008093424D1EC08B819C810E942E18DC0184
:1050BE00CB01BC01CD010E940F28982F81E08927DA
:1050CE00882321F080E18093424D0BC00E948B31EA
:1050DE008093424D9091424D81E0992309F080E0FA
:1050EE00898389812496CDBFDEBFDF91CF9108954C
:1050FE00CF93DF9300D0CDB7DEB78A838091454D35
:10510E008823F9F08091434D882F90E08354944B7F
:10511E002A81FC0120838091434D8F5F8F7189839B
:10512E0089818093434D80E298E020E238E0F901D6
:10513E0025812F7DFC0125838091454D81508093E3
:10514E00454D80E298E020E238E0F90125812062A9
:10515E00FC01258300000F900F90DF91CF910895F1
:10516E00CF92DF92EF92FF920F931F93CF93DF9325
:10517E0000D000D0CDB7DEB78A836B837C838A8163
:10518E0089838091E84C9091E94CA091EA4CB091C2
:10519E00EB4C2B813C81CC24C394D12C790101E0C2
:1051AE0010E09E012F5F3F4F44E250E0BC01CD0165
:1051BE000E94F1222496CDBFDEBFDF91CF911F91C9
:0C51CE000F91FF90EF90DF90CF900895BC
:1051DA00CF93DF93CDB7DEB72697CDBFDEBF8D83E2
:1051EA009E8319828D819E81892B09F18D819E81F1
:1051FA00FC0180818823D9F08D819E818A839B83DB
:10520A001C8208C08C818F5F8C838A819B81019666
:10521A008A839B838A819B81FC018081882391F701
:10522A009C81892F880F890F880F815089838981F2
:0C523A002696CDBFDEBFDF91CF91089516
:10524600CF93DF93CDB7DEB760E080E690E00E94B3
:10525600B42F60E081E690E00E94B42F60E082E621
:1052660090E00E94B42F60E083E690E00E94B42FA5
:1052760064E288E690E00E94B42F60E089E690E060
:105286000E94B42F60E088E790E00E94B42F61E0AE
:1052960080E790E00E94B42F60E08CE790E00E94E7
:0A52A600B42F0000DF91CF910895AE
:1052B000A2E8B0E0EEE5F9E20C949F2E5C014A0111
:1052C00069837A83C12CD12CE981FA81808188237A
:1052D000E9F07401860120E830E0AE014D5F5F4FD8
:1052E000BE016F5F7F4FC5010E9488068C0D9D1D1A
:1052F0008C159D054CF48FE490E0809304409093CE
:1053000005408FEF9FEF03C06C01DECFC601CE5783
:08531000DF4FECE00C94182FB4
:105318000F931F93CF93DF93CDB7DEB72A97CDBFF7
:10532800DEBF69837A838B839C834D835E832F835F
:10533800388709871A8789819A81AB81BC81BC012A
:10534800CD010E94071649855A852F8138858D81A0
:105358009E81B9010E944624282F89859A85BC011F
:10536800822F0E9447282A96CDBFDEBFDF91CF91BA
:065378001F910F91089542
:10537E001F920F920FB60F9211240BB60F922F930E
:10538E003F934F935F936F937F938F939F93AF93BF
:10539E00BF93EF93FF93CF93DF93CDB7DEB780919B
:1053AE00024090910340FC0109950000DF91CF91DE
:1053BE00FF91EF91BF91AF919F918F917F916F91DF
:1053CE005F914F913F912F910F900BBE0F900FBE9B
:0653DE000F901F901895CE
:1053E4001F920F920FB60F9211240BB60F922F93A8
:1053F4003F934F935F936F937F938F939F93AF9359
:10540400BF93EF93FF93CF93DF93CDB7DEB7809134
:10541400004090910140FC0109950000DF91CF917B
:10542400FF91EF91BF91AF919F918F917F916F9178
:105434005F914F913F912F910F900BBE0F900FBE34
:065444000F901F90189567
:10544A00CF93DF93CDB7DEB72897CDBFDEBF8C836E
:10545A009D836E837F834887888582958F70882F86
:10546A0090E08F7099278F5A934BFC018081898332
:10547A008885882F90E08F7099278F5A934BFC016B
:10548A0080818A831B822E813F818C819D81AE011E
:10549A004F5F5F4FB9010E9418112896CDBFDEBF3A
:0654AA00DF91CF9108958F
:1054B000CF93DF93CDB7DEB72797CDBFDEBF8C8309
:1054C0009D836E837F838E819F810E94ED288B83D5
:1054D00019821A828B8188236CF08B81882F90E04F
:1054E00020E830E0A901481B590BCA019695879521
:1054F00089839A834E815F812C813D8189819A8144
:10550000B9010E94181100002796CDBFDEBFDF91C0
:04551000CF9108959A
:105514000F931F93CF93DF938C010F5F1F4FFC01F9
:1055240080816115710519F48FEF9FEF1EC0FB0197
:1055340024853585232BC1F3EB01EC85FD85BE0164
:10554400882339F00995892B79F7F80181918F0126
:10555400F4CF8AE0099521E030E0892B11F420E0B2
:1055640030E088279927821B930BDF91CF911F91FD
:045574000F910895F6
:10557800CF93DF93CDB7DEB780E692E08093FF4C00
:105588009093004D1092014D1092024D10923C4D97
:105598000E9487241092094D10920A4D1092BC4C1B
:1055A8001092BD4C1092BE4C1092BF4C80E490E01B
:1055B8008093074D9093084D10923D4D10923E4DAB
:1055C80010923F4D81E08093404D0000DF91CF91D4
:0255D800089534
:1055DA00CF93DF930F92CDB7DEB78091454D8032DE
:1055EA00D0F480E298E02091444D222F30E02354F9
:1055FA00344BF9012081FC0122838091444D8F5F55
:10560A008F71898389818093444D8091454D8F5F45
:10561A008093454D09C080E298E020E238E0F90124
:10562A0025812F7DFC01258300000F90DF91CF910A
:02563A000895D1
:10563C00CF93DF9300D0CDB7DEB78091114D909111
:10564C00124D8170992789839A838091114D909185
:10565C00124D969587958093114D9093124D89819B
:10566C009A81892B51F08091114D9091124D24EB20
:10567C0092278093114D9093124D8091114D9091E2
:0C568C00124D0F900F90DF91CF91089508
:10569800DC01ED91FC91119780818A3221F080E044
:1056A80090E03AE00EC03196ED93FC93DB01ED916A
:1056B800FC911197CF0102968D939C9380819181E3
:1056C8000895ED91FC911197208120532A3068F4B8
:1056D800389FA001399F500D1124CA01820F911DD6
:0C56E8003196ED93FC931197ECCF0895E0
:1056F4000F93CF93DF93CDB7DEB72897CDBFDEBF2F
:105704008A839B836C837D834E832F8308871982CE
:1057140010C08981282F30E08A819B81820F931FDA
:105724006C817D8128854F810E94761589818F5FE8
:10573400898399818E81981760F300002896CDBFE4
:0A574400DEBFDF91CF910F910895B1
:10574E00CF93DF93CDB7DEB72997CDBFDEBF888766
:10575E00698781E28A831B828FE78C8382E28D8345
:10576E0088858E8389858F83CE01029663E00E94A1
:10577E00BD2589838981882331F0CE01059663E0AA
:10578E000E94BD25898389812996CDBFDEBFDF9119
:04579E00CF9108950A
:1057A200A0E0B0E0E7EDFBE20C94A12E7C01FB014E
:1057B200EA01C901A280B380C480D5800081118131
:1057C200209711F4C7EADCE4009719F4CE010E9495
:1057D200E531B7FC04C0A816B90608F4C501960164
:1057E200AC01BE01C7010E949E27CDB7DEB7EAE039
:0457F2000C941A2FCA
:1057F6000F931F93CF93DF9300D000D0CDB7DEB7C2
:105806008B836C838B8189838C818A838091E84C1E
:105816009091E94CA091EA4CB091EB4C02E010E07B
:105826009E012F5F3F4F44E250E0BC01CD010E9434
:105836008C292496CDBFDEBFDF91CF911F910F91AA
:025846000895C3
:10584800CF93DF930F92CDB7DEB7898380E096E0E0
:105858002981FC01208780E096E020E036E0F9010C
:1058680022852160FC012287000080E096E0FC018F
:105878008285882F90E081709927892BB1F780E085
:1058880096E0FC01808991890F90DF91CF9108956E
:10589800CF93DF9300D000D0CDB7DEB78B836C8376
:1058A80019828B818A8311C08A81282F30E081E098
:1058B80090E002C0880F991F2A95E2F7982F8981F6
:1058C800892B89838A818F5F8A839A818C81891742
:1058D80058F789812496CDBFDEBFDF91CF91089517
:1058E800CF93DF9300D0CDB7DEB79091414D81E0E3
:1058F80089278823B1F00E944F2DDC01CB018983D1
:105908009A8389819A81892B19F089819A8102C0A9
:1059180081EE9CEA8093114D9093124D81E0809323
:0E592800414D00000F900F90DF91CF91089538
:10593600CF93DF93CDB7DEB71092914C8FEF90E007
:105946008093924C9093934C1092944C1092954C59
:105956001092984C1092994C10929E4C80E099E0CF
:1059660020ECFC01258380E099E021E0FC01258301
:085976000000DF91CF910895BC
:10597E001F920F920FB60F9211240BB60F922F9308
:10598E008F939F93EF93FF93CF93DF93CDB7DEB7B4
:10599E0080E090E02FEFFC0123830000DF91CF9198
:1059AE00FF91EF919F918F912F910F900BBE0F90C2
:0859BE000FBE0F901F90189519
:1059C6001F920F920FB60F9211240BB60F922F93C0
:1059D6008F939F93EF93FF93CF93DF93CDB7DEB76C
:1059E60084E090E02FEFFC0123830000DF91CF914C
:1059F600FF91EF919F918F912F910F900BBE0F907A
:085A06000FBE0F901F901895D0
:105A0E001F920F920FB60F9211240BB60F922F9377
