:100000000C94EF000C94A73B0C94A73B0C94A73BDB
:100010000C94A73B0C94A73B0C94D8340C941B2D48
:100020000C94A73B0C94A73B0C94A73B0C94A73BC8
:100030000C94A73B0C94A73B0C94A73B0C94A73BB8
:100040000C94A73B0C94172B0C94A73B0C94A73B48
:100050000C94A73B0C94A73B0C94DD2C0C94A73B71
:100060000C94612C0C949F2C0C94A73B0C94A73BF4
:100070000C94A73B0C94CE1C0C94A73B0C945B31C6
:100080000C948E310C94DD270C9444350C94A73BD2
:100090000C94A73B0C94A73B0C94A73B0C94A73B58
:1000A0000C94A73B0C94A73B0C94A73B0C94A73B48
:1000B0000C94FC340C9420350C94A73B0C94A73B77
:1000C0000C94A73B0C94A73B0C94A73B0C94A73B28
:1000D0000C94A73B0C94A73B0C94A73B0C94A73B18
:1000E0000C94A73B0C94A73B40004006804006447C
:1000F0002F00775C442F48308048304CB1007B851E
:100100004CB14CD1804CD14D560080064D564D66B9
:10011000804D664D7600808B4D764D9B804D9B4D7E
:10012000AE00809B4DAE4DCA804DCA4DE20080AE00
:100130004DE24DEA804DEA4DEE0080C64DEE4DFA9F
:10014000804DFA4DFE0080CA4DFE4E0C804E0C4E86
:100150000E0080CE4E0E4E1A804E1A4E200080D0D9
:100160004E204E24804E244E260080D64E264E2A07
:10017000804E2A4E2E0080D84E2E4E32804E324E69
:10018000380080DC4E384E5A804E5A4E5C0080E279
:100190004E5C4E61804E614E650080E44E654E6659
:1001A000804E664E680080E84E684E6D804E6D4E03
:1001B0006E0080EA4E6E4E77804E774E780080EB70
:1001C0004E784E7E804E7E4E7F0080EC4E7F4E817C
:1001D000804E814E820080ED4E824E83800011243D
:1001E0001FBECFEFCDBFDFE7DEBFE8EEF0E041E0BE
:1001F00019C0B791A79137912791079107FD0EC0BC
:1002000097918791EF01F92FE82F0BBF07900D927F
:10021000A217B307D9F7FE011BBE04C01D92A21797
:10022000B307E1F7ED3DF40721F70E941B010C94A1
:06023000EB3AF894FFCF49
:10023600EF92FF920F931F93CF93DF93CDB7DEB765
:10024600E197CDBFDEBF198219A60E940B370E9427
:10025600BB3886E090E40E94373B81E08F938EE6C0
:100266008F9386E38F931F928EE190E4892F8F936D
:100276008EE190E48F930E9423370F900F900F909A
:100286000F900F900F908DE390E40E94373B0E94F1
:100296008E39882319F089E590E402C08FE590E451
:1002A600292F2F938F9381E790E4892F8F9381E7EE
:1002B60090E48F930E9423370F900F900F900F902A
:1002C60088E990E40E94373B0E94002F0E9425385F
:1002D600292F2F938F9384EC90E4892F8F9384ECAE
:1002E60090E48F930E9423370F900F900F900F90FA
:1002F600CE018A9628E0AC0160EA76E881E090E0DB
:100306000E945D2B8B8B8B89882F90E0292F2F9352
:100316008F938EEE90E4892F8F938EEE90E48F93D9
:100326000E9423370F900F900F900F901A821FC0D4
:100336008A81882F90E09E01265D3F4F820F931F92
:10034600FC018081882F90E0292F2F938F9380E1E5
:1003560091E4892F8F9380E191E48F930E94233754
:100366000F900F900F900F908A818F5F8A839A81EA
:100376008B899817E8F28B89882359F488E191E4F0
:10038600892F8F9388E191E48F930E9423370F90F2
:100396000F908AE491E40E94373B0E94451F8C8BA4
:1003A6008C89882319F08CE491E402C08FE491E4EF
:1003B600292F2F938F931F928DE38F9386E591E4D8
:1003C600892F8F9386E591E48F930E9423370F90B0
:1003D6000F900F900F900F900F909C8981E08927C6
:1003E6008823F1F00E942E3B082F10E00E94253B47
:1003F600882F90E0212F2F93202F2F93292F2F9393
:100406008F9381E791E4892F8F9381E791E48F930E
:100416000E9423370F900F900F900F900F900F9020
:100426008AE491E40E94373B0E94441C8D8B8D899F
:10043600882319F08CE491E402C08FE891E4292F17
:100446002F938F931F9284E28F938BE991E4892FE8
:100456008F938BE991E48F930E9423370F900F902F
:100466000F900F900F900F9088ED91E40E94373B0C
:100476008C89882309F422C28091ED4C9091EE4C30
:10048600A091EF4CB091F04C8B839C83AD83BE83DF
:100496008FEF9FEF8F8398878091ED4C9091EE4C74
:1004A600A091EF4CB091F04C89879A87AB87BC87B7
:1004B6008FEF9FEF8D879E878FEF9FEF8F87988BAC
:1004C600198A8CE092E40E94373B1F9284E28F9354
:1004D6008FE98F931F9281E08F938EE68F9386E349
:1004E6008F931F928CE392E4892F8F938CE392E48F
:1004F6008F930E9423374DB75EB7465F5F4FCDBFE0
:10050600DEBF1F928FE08F9382E48F9380E48F93F8
:100516008DE792E4892F8F938DE792E48F930E9463
:1005260023370F900F900F900F900F900F908DEB39
:1005360092E40E94373B1A8A1CC18A89882F90E070
:10054600880F991F880F991F8351934BFC01808157
:100556009181A281B3818E8B9F8BA88FB98F8E8953
:100566009F89A88DB98DBC01CD010E9414218A8F67
:100576008E899F89A88DB98DBC01CD010E94CA289C
:100586008B8F9C8F8A898823C1F08A89882F90E077
:100596000197880F991F880F991F8351934BFC0170
:1005A60080819181A281B381BC01CD010E94142179
:1005B600982F8A8D981709F4D8C08E899F89A88D9F
:1005C600B98DBC01CD010E944A360E94D53A0E94DF
:1005D6008B35DC01CB018D8F9E8FAF8FB8A30E9428
:1005E6001F1289A30E948B35DC01CB019C018D8DE6
:1005F6009E8DA901481B590BCA018AA39BA38E890C
:100606009F89A88DB98DBC01CD010E94972D8823A5
:1006160019F002EF12E402C007EF12E48E899F89F7
:10062600A88DB98DBC01CD010E94A12B7C018E89BC
:100636009F89A88DB98DBC01CD010E94C52EDC0114
:10064600CB012A8D222F30E0412F4F93402F4F931D
:100656004F2D4F934E2D4F934C8D4F934B8D4F9364
:100666004B2F4F934A2F4F93492F4F938F93832F9F
:100676008F93822F8F93898D8F93888D8F938F89F8
:100686008F938E898F938CEF92E4892F8F938CEFC3
:1006960092E48F930E9423378DB79EB74296CDBFC3
:1006A600DEBF89A1882309F447C08BA18F938AA155
:1006B6008F9383E293E4892F8F9383E293E48F935E
:1006C6000E9423370F900F900F900F902AA13BA105
:1006D6008D859E852817390760F48AA19BA18D8791
:1006E6009E878E899F89A88DB98D89879A87AB87C2
:1006F600BC872AA13BA18F8198852817390760F40A
:100706008AA19BA18F8398878E899F89A88DB98D91
:100716008B839C83AD83BE838E899F89A88DB98D7B
:1007260080349244AF40B105D9F481E0898B8AA127
:100736009BA18F87988B14C00E94013B882F90E065
:10074600292F2F938F938BE293E4892F8F938BE23C
:1007560093E48F930E9423370F900F900F900F9082
:100766008AE491E40E94373B01C000008A898F5FCA
:100776008A8B8A89873008F4E0CE8989882369F0D4
:1007860080E492E4AFE0B0E08B839C83AD83BE83CC
:100796008F8598898F83988716C01F928FE08F93D5
:1007A60082E48F9380E48F9387E393E4892F8F937A
:1007B60087E393E48F930E9423370F900F900F9057
:1007C6000F900F900F908B819C81AD81BE81BC01F3
:1007D600CD010E944A368B819C81AD81BE81BC01D0
:1007E600CD010E94972D882319F007E613E402C075
:1007F6000FE613E48B819C81AD81BE81BC01CD01E6
:100806000E94C52EDC01CB01212F2F93202F2F9381
:1008160028852F932F812F932B2F2F932A2F2F93BA
:10082600292F2F938F938E818F938D818F938C8118
:100836008F938B818F9385E893E4892F8F9385E837
:1008460093E48F930E9423374DB75EB7425F5F4FA5
:10085600CDBFDEBF29853A854B855C858B819C8122
:10086600AD81BE81281739074A075B0719F18985CB
:100876009A85AB85BC85BC01CD010E94C52EDC01E5
:10088600CB012E852F932D852F932B2F2F932A2F38
:100896002F93292F2F938F9384EC93E4892F8F9393
:1008A60084EC93E48F930E9423378DB79EB7089606
:1008B600CDBFDEBF8AE491E40E94373B9C8981E08C
:1008C6008927882329F08BEE93E40E94373B02C0E8
:1008D6000E940E380E948B35DC01CB018DA39EA3AE
:1008E600AFA3B8A70E9426180E9464290E94683AFE
:1008F600982F89A5892B89A78C89882309F448C054
:1009060089A588235CF419A68981882339F0198280
:100916000E940E388CE194E40E94373B8981882F2F
:1009260090E08130910531F18230910541F1892BBA
:1009360059F5CE0189960E94F1148CA38CA1882FBB
:1009460090E08130910559F08230910569F0892B4C
:1009560009F00FC081E089830E94C8180AC082E0AE
:1009660089830E943A2605C083E089830E949126E6
:1009760000000EC0CE0189960E948D1309C0CE01DB
:1009860089960E94DA1204C00E94070719A6000081
:10099600CE01859644EF51E060E070E00E948C271E
:1009A600882309F49FCF87E494E020E4FC012083A8
:0209B60099CFD7
:1009B800CF93DF93CDB7DEB72997CDBFDEBF898749
:1009C80068E670E080E090E00E94172980930E4E60
:1009D80090930F4E80915E4E882F90E08130910564
:1009E80081F18330910519F0892B09F052C089856E
:1009F800882F90E080749927892B09F4F9C1909188
:100A0800654E81E089278823B1F00E948B35DC018F
:100A1800CB0189839A8389819A81892B19F08981ED
:100A28009A8102C084E392E180931E4E90931F4EF8
:100A380081E08093654E81E00E9471330E948B2A89
:100A4800D7C10E948F348985882F90E080729927BA
:100A5800892B09F4CFC180910C4E90910D4E919540
:100A68008195910980930A4E90930B4E0E94BA3259
:100A780081709927892B19F088E090E002C088EFEF
:100A88009FEF8093084E9093094E82E080935E4ECC
:100A9800B1C12091044E3091054E8091084E90913D
:100AA800094E820F931F8093044E9093054E209118
:100AB800064E3091074E80910A4E90910B4E820F50
:100AC800931F8093064E9093074E8091044E909109
:100AD800054E992384F41092044E1092054E80918D
:100AE800084E9091094E9195819591098093084EF1
:100AF8009093094E18C08091044E9091054E813D07
:100B080097408CF080ED97E08093044E9093054ECB
:100B18008091084E9091094E919581959109809305
:100B2800084E9093094E8091064E9091074E803959
:100B380091058CF480E990E08093064E9093074EDF
:100B480080910A4E90910B4E9195819591098093D1
:100B58000A4E90930B4E8091064E9091074E9C0141
:100B68003595279535952795359527953595279565
:100B78008091044E9091054E95958795959587950A
:100B88009595879595958795B9010E943D16882377
:100B980009F446C080910A4E90910B4E919581952B
:100BA800910980930A4E90930B4E80915F4E882353
:100BB800B9F58091624E8F5F8093624E80910C4EA2
:100BC80090910D4E86974CF480910C4E90910D4E5D
:100BD800039680930C4E90930D4E80E00E947133E3
:100BE8000E948B2A2091164E3091174E8091624EAA
:100BF800882F90E0432F4F932F93292F2F938F9374
:100C080082E89AE4892F8F9382E89AE48F930E946E
:100C18003B370F900F900F900F900F900F90EDC0F3
:100C28008091044E9091054E959587959595879559
:100C380095958795959587958B839C838091064E8E
:100C48009091074E95958795959587959595879554
:100C5800959587958D839E8380910A4E90910B4E32
:100C6800181619060CF068C08D819E810396CA97E4
:100C78000CF462C08D819E81CD970CF05DC08B8194
:100C88009C819C012D5F3F4F80910E4E90910F4E9D
:100C9800821793070CF050C080910E4E90910F4E22
:100CA8009C01285E3F4F8B819C81821793070CF033
:100CB80043C08B819C819C012F5F3F4F80910E4EDA
:100CC80090910F4E0C96A901481B590BCA018F83AE
:100CD800988780E793E08093064E9093074E809123
:100CE8000C4E90910D4E91958195910980930A4EE5
:100CF80090930B4E8F819885880F991F8093084E8B
:100D08009093094E8091084E9091094E4D973CF072
:100D18008CE190E08093084E9093094E0DC080912D
:100D2800084E9091094E843E9F4F34F484EE9FEF15
:100D38008093084E9093094E8091064E9091074EED
:100D48009595879595958795959587959595879583
:100D5800CF970CF451C08091614E882329F080917F
:100D6800614E81508093614E8091614E8823B9F520
:100D78002091164E3091174E8091184E9091194E31
:100D88008217930740F48091164E9091174E8093E6
:100D9800184E9093194E83E080935E4E81E08093C5
:100DA800644E2091184E3091194E8091164E9091B4
:100DB800174E432F4F932F93292F2F938F9387E904
:100DC8009AE4892F8F9387E99AE48F930E943B379F
:100DD8000F900F900F900F900F900F900DC00E94E2
:100DE8008F3481E080935E4E0E948B2A000004C0FD
:100DF800000003C0000001C000002996CDBFDEBF7F
:060E0800DF91CF91089577
:100E0E00EF92FF920F931F93CF93DF93CDB7DEB781
:100E1E002C97CDBFDEBF0E948B35DC01CB018983C1
:100E2E009A83AB83BC838091B64D9091B74DA091C0
:100E3E00B84DB091B94D29813A814B815C817901D0
:100E4E008A01E81AF90A0A0B1B0BD801C70105978C
:100E5E00A105B10508F4C7C189819A81AB81BC8116
:100E6E008093B64D9093B74DA093B84DB093B94DB6
:100E7E008091204E9091214E01968093204E90931A
:100E8E00214E8091BA4D9091BB4DA091BC4DB09129
:100E9E00BD4D29813A814B815C8179018A01E81A25
:100EAE00F90A0A0B1B0BD801C701883E9340A10516
:100EBE00B105C0F08091204E9091214E8093224E2C
:100ECE009093234E1092204E1092214E89819A813A
:100EDE00AB81BC818093BA4D9093BB4DA093BC4D1A
:100EEE00B093BD4D0E9425388D839E830E942D3672
:100EFE008F830E940A3B88870E94133B898767E095
:100F0E0081E00E94392721E040E869E070E080E04E
:100F1E0090E00E94FC2949E45BE46CE070E080E024
:100F2E0090E00E9498158A879B878A859B850496F8
:100F3E004D815E8124E06CE070E00E945B118A8737
:100F4E009B878F81482F50E08A859B85089623E0EA
:100F5E006CE070E00E945B118A879B878A859B8577
:100F6E0041E55BE46CE070E00E94981501E029E039
:100F7E004CE766E170E082E090E00E942D238D81C7
:100F8E009E819C0140E050E088E790E0DC010E94E9
:100F9E00E03ADC01CB012FEF3FE040E050E0BC0136
:100FAE00CD010E94AE35DA01C9018C878C8588236C
:100FBE0049F001E025E04C8568E170E084E090E0C6
:100FCE000E9444334DE45BE462E270E080E090E026
:100FDE000E9498158885882F90E08072992721E0CD
:100FEE00892B09F420E0422F6AE488E190E00E9408
:100FFE00732F8885882F90E08074992721E0892BA4
:10100E0009F420E0422F63E588E290E00E94732FFE
:10101E008885881F8827881F482F62E588E390E01F
:10102E000E94732F43E55BE462E270E08CE490E093
:10103E000E9498158A879B878A859B85498562E2DF
:10104E0070E00E94C13147E55BE46EE270E080E043
:10105E0090E00E9498158A879B870E941C3B8823EC
:10106E0019F084E69BE402C087E69BE42A853B8563
:10107E00AC016EE270E0C9010E9498154AE65BE48D
:10108E0068E370E080E090E00E9498158A879B8765
:10109E004091224E5091234E8A859B85049622E0E4
:1010AE0068E370E00E945B118A879B878A859B8527
:1010BE0008964EE65BE468E370E00E9498158A8716
:1010CE009B870E948B35DC01CB0128EE33E040E09C
:1010DE0050E0BC01CD010E94AE35DA01C901AC0170
:1010EE008A859B85049624E068E370E00E945B117C
:1010FE008A879B878A859B8541E75BE468E370E07E
:10110E000E9498150E941F128091664E988598171E
:10111E0031F48091674E9F81981709F465C08885D8
:10112E008093664E8F818093674E0091224E109170
:10113E00234E0E941C3B882319F064E67BE402C018
:10114E0067E67BE48985A82FB0E0888588231CF4A8
:10115E004AE250E002C04EE250E08885882F90E0CF
:10116E0080749927892B19F02AE230E002C02EE212
:10117E0030E08885882F90E080729927892B19F0AE
:10118E008AE290E002C08EE290E0EF81EE2FF0E076
:10119E00F12EFF92102F1F93172F1F936F936B2F0C
:1011AE006F936A2F6F93652F6F934F93432F4F93C8
:1011BE002F93292F2F938F938F2F8F938E2F8F9364
:1011CE008E818F938D818F9383E79BE4892F8F93ED
:1011DE0083E79BE48F930E9423378DB79EB7429689
:1011EE00CDBFDEBF01C000002C96CDBFDEBFDF91AC
:0C11FE00CF911F910F91FF90EF9008958A
:10120A00AEE0B0E0EBE0F9E00C94F5364C016B018E
:10121A0019821A828FEF9FEF8B839C831D821E8215
:10122A004F83588729873A87A12CB12CD6016D9014
:10123A007C90F301EA0DFB1D808181110FC0D6015C
:10124A00ED93FC938081853209F0D3C13F01BFEF52
:10125A006B1A7B0AF6016082718219C0853279F3B2
:10126A00B401082E000C990B0E94B0294FEFA41A62
:10127A00B40ADCCF8C32ACF08D32F9F489819A81D0
:10128A00816089839A833196D601ED93FC93D601C6
:10129A00ED91FC9180818B3269F789819A81846012
:1012AA00F0CF803221F489819A818860EACF833233
:1012BA0051F489819A818061E4CF803321F4898154
:1012CA009A818260DECFB701C6010E9416338D83F0
:1012DA009E8397FF0BC029813A81B1E02B2729838E
:1012EA003A839195819591098D839E8389819A810B
:1012FA0080FF03C08D7F89839A83D601ED91FC918B
:10130A00119780818E3249F43196ED93FC93B7019F
:10131A00C6010E9416338B839C83C6010E94F03556
:10132A00582ED601ED91FC918081082E000C990B64
:10133A000E949A3B893609F443C084F4833609F43F
:10134A0002C134F4853209F427C18136E1F030C193
:10135A008436B1F188360CF4D9C02AC1803709F431
:10136A009AC03CF48E3609F4BCC08F3609F461C0C9
:10137A001FC1853709F440C0883709F476C083371E
:10138A0009F016C1F3C0652D70E0A701CE010B96D6
:10139A000E940000892B09F426C1D601ED91FC9127
:1013AA001197CF0101968D939C932081AE01455FE1
:1013BA005F4FBE016F5F7F4FC4010E94000010C1E2
:1013CA00652D70E0970141E050E0CE010B960E9436
:1013DA00C522892B09F407C1F60180819181019602
:1013EA0080839183AE01455F5F4FBE016F5F7F4F80
:1013FA00C4010E94A220F4C0652D70E0970140E06C
:10140A0050E0CE010B960E94C522892B09F4EBC04D
:10141A00D6018D919C91119701968D939C93AE0163
:10142A00455F5F4FBE016F5F7F4FC4010E94442A30
:10143A00D7C0652D70E0970140E050E0CE010B96D1
:10144A000E94C522892B09F4CEC0F60180819181C0
:10145A00019680839183AE01455F5F4FBE016F5F46
:10146A007F4FC4010E94E125BBC0652D70E0970142
:10147A0040E050E0CE010B960E94C522892B09F468
:10148A00B2C0D601ED91FC911197CF0101968D93CF
:10149A009C9320811CC0970140E050E060EF70E00F
:1014AA00CE010B960E94C522892B09F49CC0F60135
:1014BA00808191810196808391838B859C85892B7C
:1014CA0029F420E030E048EA5DE484C028E7AE0170
:1014DA00455F5F4FBE016F5F7F4FC4010E946D1071
:1014EA007FC0A501400F511F652D70E09701CE0105
:1014FA000B960E940000892B09F475C0D6018D91C4
:10150A009C91119701968D939C9373C0652D70E001
:10151A00A701CE010B960E940000892B09F463C033
:10152A00D601ED91FC911197CF0101968D939C9371
:10153A002081AE01455F5F4FBE016F5F7F4FC401DF
:10154A000E9400004DC0B0E85B124DC0F6018081D8
:10155A009181019680839183D701ED91FC91119736
:10156A00CF0102968D939C93808120C0B0E85B12D4
:10157A003AC0F60180819181019680839183D701D7
:10158A00ED91FC911197CF0102968D939C93408126
:10159A00518120E030E01EC0B0E85B1224C0F601A1
:1015AA00208131812F5F3F4F208331838B870DC08C
:1015BA0085E28B87D6016D927C9219821A821D82EE
:1015CA001E828FEF9FEF8B839C8321E030E0AE0178
:1015DA00455F5F4FBE016F5F7F4FC4010E94C533F5
:1015EA008A0D9B1D07C0F601808191810196808337
:0C15FA009183C5012E96EFE00C9486371B
:10160600CF93DF93CDB7DEB72697CDBFDEBF8E83F0
:101616008091684E813081F08E81882F90E08074B1
:101626009927892B09F4C5C10E9468340E94583253
:1016360081E08093684EBDC180912E4E90912F4ED1
:1016460096958795969587959C01ABE3BDE60E9496
:10165600863A96958795929582958F7089279F7081
:1016660089278A839B838A819B81419724F080E125
:1016760090E08A839B8364E370E080E190E00E94BF
:1016860017299C018A819B81820F931F80932A4E82
:1016960090932B4E8E81882F90E080729927892B0C
:1016A60089F09091694E81E08927882359F08091CD
:1016B600284E9091294E8093264E9093274E81E096
:1016C6008093694E8091694E882309F442C08091C7
:1016D600264E9091274E04968093264E9093274E41
:1016E6002091244E3091254E8091264E9091274E82
:1016F600820F931F8093244E9093254E8091244E03
:101706009091254E8038910584F480E890E080938E
:10171600244E9093254E8091264E9091274E9923E4
:1017260024F41092264E1092274E8091244E9091CA
:10173600254E80369240F4F080E692E08093244E67
:101746009093254E1092264E1092274E1092694E77
:1017560011C080916B4E8F5F80936B4E80916B4E64
:10176600843040F010926B4E90916A4E81E089274A
:1017760080936A4E1982BDC08981282F30E0C90145
:10178600880F991F880F991F820F931F8658924BB7
:10179600FC018081882309F4A9C08981282F30E0C3
:1017A6008981482F50E0CA01880F991F880F991F19
:1017B600840F951F8A58924BFC014081518180917C
:1017C6002A4E90912B4E481B590BC901880F991F21
:1017D600880F991F820F931F8A58924BFC014083F2
:1017E60051838981282F30E0C901880F991F880FFE
:1017F600991F820F931F8A58924BFC018081918119
:10180600AC015595479555954795559547955595E9
:1018160047958981282F30E0C901880F991F880FC5
:10182600991F820F931F8858924BFC0180819181EA
:10183600FC018081882F90E0840F951F99237CF40A
:101846008981282F30E0C901880F991F880F991FB9
:10185600820F931F8658924BFC01108247C08981E4
:10186600282F30E0C901880F991F880F991F820F12
:10187600931F8A58924B0E94B91B8823B9F1209175
:101886002E4E30912F4E8091304E9091314E8217D0
:10189600930740F480912E4E90912F4E8093304EB8
:1018A6009093314E82E08093684E81E080936D4E36
:1018B6002091304E3091314E80912E4E90912F4E88
:1018C600432F4F932F93292F2F938F9380E799E4DC
:1018D600892F8F9380E799E48F930E943B370F906F
:1018E6000F900F900F900F900F9064C089818F5FBB
:1018F60089838981833008F43FCF0E9494238C83A7
:101906009D8380912C4E90912D4E9C0180E890E015
:10191600AC01421B530B9A018C819D818217930760
:1019260014F40E94401480912A4E90912B4E9C01F3
:10193600990F440B550B8091BE4D9091BF4DA091D0
:10194600C04DB091C14D820F931FA41FB51F809348
:10195600BE4D9093BF4DA093C04DB093C14D8091A5
:10196600BE4D9091BF4DA091C04DB091C14D6894B0
:1019760015F8B695A795979587951694D1F7809300
:101986002E4E90932F4E80916C4E882F90E0209192
:101996002A4E30912B4E35952795359527953595B9
:1019A600279535952795820F931F877080936C4EE8
:1019B60001C000002696CDBFDEBFDF91CF9108950E
:1019C600CF93DF93CDB7DEB780E094E0FC011482BD
:1019D60080E294E0FC01148280E494E021E0FC01C2
:1019E600248380E694E0FC01148280E894E0FC0104
:1019F600148280EA94E0FC01148280E094E0FC0109
:101A0600108280E294E0FC01108280E494E021E4FC
:101A1600FC01208380E694E0FC01108280E894E0DB
:101A2600FC01108280EA94E0FC01108280E094E0E0
:101A3600FC01108A80E094E0FC01118A80E094E0C9
:101A4600FC01128A80E094E0FC01138A80E094E0B5
:101A5600FC01148A80E094E0FC01158A80E094E0A1
:101A6600FC01168A80E094E0FC01178A80E294E08B
:101A7600FC01108A80E294E0FC01118A80E294E085
:101A8600FC01128A80E294E0FC01138A80E294E071
:101A9600FC01148A80E294E0FC01158A80E294E05D
:101AA600FC01168A80E294E0FC01178A80E494E047
:101AB600FC01108A80E494E0FC01118A80E494E041
:101AC600FC01128A80E494E0FC01138A80E494E02D
:101AD600FC01148A80E494E0FC01158A80E494E019
:101AE600FC01168A80E494E0FC01178A80E694E003
:101AF600FC01108A80E694E0FC01118A80E694E0FD
:101B0600FC01128A80E694E0FC01138A80E694E0E8
:101B1600FC01148A80E694E0FC01158A80E694E0D4
:101B2600FC01168A80E694E0FC01178A80E894E0BE
:101B3600FC01108A80E894E0FC01118A80E894E0B8
:101B4600FC01128A80E894E0FC01138A80E894E0A4
:101B5600FC01148A80E894E0FC01158A80E894E090
:101B6600FC01168A80E894E0FC01178A80EA94E07A
:101B7600FC01108A80EA94E0FC01118A80EA94E074
:101B8600FC01128A80EA94E0FC01138A80EA94E060
:101B9600FC01148A80EA94E0FC01158A80EA94E04C
:101BA600FC01168A80EA94E0FC01178A80EE95E033
:101BB600FC01118680EE95E0FC01118280EE95E035
:101BC600FC01108280EE95E0FC01148280EE95E027
:101BD600FC01168280EE95E0FC01178280EE95E00E
:101BE600FC01108680EE95E022E0FC01258380EE64
:101BF60095E0FC01128280EE95E0FC01138280EEF6
:101C060095E0FC01128682E59BE30E9409398AE58C
:101C16009BE30E941C3982E69BE30E942F398AE6E9
:101C26009BE30E94423982E79BE30E9455398AE78B
:0E1C36009BE30E9468390000DF91CF91089572
:101C4400CF93DF93CDB7DEB72597CDBFDEBF8091AD
:101C5400244E9091254E95958795959587959595C4
:101C64008795959587958C839D830E94292566E0A9
:101C740081E00E9439278091684E882F90E0009778
:101C840019F00297F1F08EC062E979E480E190E006
:101C94000E94F4316BE979E48EE190E00E94F43122
:101CA4006FEA79E488E290E00E94F4310E94112EF8
:101CB40042ED5DE466E270E08AE090E00E94580F35
:101CC400ECC06EEB79E48EE090E00E94F43168ECB5
:101CD40079E48AE190E00E94F4310E94112E42EDF1
:101CE4005DE466E270E08AE090E00E94580F1B8297
:101CF40054C08B81282F30E0C901880F991F880FA9
:101D0400991F820F931F8658924BFC018081882370
:101D140009F440C08B81282F30E0C901880F991F36
:101D2400880F991F820F931F8858924BFC014081A2
:101D340051818B81282F30E0C901880F991F880FAA
:101D4400991F820F931F8858924BFC0180819181C7
:101D5400FC018181882F90E026E330E0B901681B03
:101D6400790B8B81282F30E0C901880F991F880FC8
:101D7400991F820F931F8A58924BFC018081918195
:101D84009595879595958795959587959595879537
:101D94000E94580F8B818F5F8B838B81833008F473
:101DA400A8CF7BC00E94112E8091694E882329F010
:101DB40082ED9DE489839A830BC080916A4E8823C7
:101DC40019F08EEC9DE402C08AEC9DE489839A8329
:101DD40029813A818C819D81A901BC018AE090E02E
:101DE4000E94580F1B8254C08B81282F30E0C901F8
:101DF400880F991F880F991F820F931F8658924B43
:101E0400FC018081882309F440C08B81282F30E0B5
:101E1400C901880F991F880F991F820F931F885833
:101E2400924BFC01408151818B81282F30E0C90104
:101E3400880F991F880F991F820F931F8858924B00
:101E4400FC0180819181FC018181882F90E026E34F
:101E540030E0B901681B790B8B81282F30E0C90170
:101E6400880F991F880F991F820F931F8A58924BCE
:101E7400FC01808191819595879595958795959598
:101E84008795959587950E94580F8B818F5F8B83DB
:101E94008B81833008F4A8CF00000E941F12000039
:0C1EA4002596CDBFDEBFDF91CF910895E1
:101EB000CF93DF93CDB7DEB76597CDBFDEBF888BFD
:101EC000998B6A8B7B8B4C8B5D8B8C899D89892B45
:101ED00009F4FCC08C899D89FC0182819381892B46
:101EE00009F4F4C08C899D89FC018181813208F05C
:101EF000EDC01982E3C08C899D89FC018081282F67
:101F000030E08981882F90E0A901481B590BCA0154
:101F10009C012150310981E090E002C0880F991F97
:101F20002A95E2F789879A871A821B821C821D8272
:101F30001E8232C08C899D89FC01228133818E8171
:101F4000882F90E0880F991F820F931FFC0120813A
:101F5000318189859A8582239323892BD1F08E81C3
:101F6000282F30E081E090E0A0E0B0E004C0880FCE
:101F7000991FAA1FBB1F2A95D2F72A813B814C814A
:101F80005D81822B932BA42BB52B8A839B83AC83FF
:101F9000BD838E818F5F8E838C899D89FC019181A9
:101FA0008E81891738F28A819B81AC81BD81892B12
:101FB0008A2B8B2B09F47FC08981282F30E08889F8
:101FC0009989820F931F8B879C878A899B898F832E
:101FD000988766C08F8187708D878F819885969549
:101FE000879596958795969587958E878A818F8711
:101FF0008D858823B9F18F85882F90E02D85222F3C
:1020000030E002C0880F991F2A95E2F7382F8B85A0
:102010009C8521E0432FBC018E850E942E208D855A
:10202000882F90E028E030E0281B390B8A819B81C3
:10203000AC81BD8104C0B695A795979587952A95E3
:10204000D2F78A839B83AC83BD832F8138858D85AE
:10205000882F90E0A901481B590BCA0108968F836D
:10206000988719C08B859C8521E04F85BC018E85A2
:102070000E942E208A819B81AC81BD81892F9A2F5D
:10208000AB2FBB278A839B83AC83BD838F819885CD
:1020900008968F8398878F8198858034910554F4B2
:1020A0008A819B81AC81BD81892B8A2B8B2B09F086
:1020B00091CF01C0000089818F5F89838C899D89C0
:1020C000FC0190818981891708F415CF000065967D
:0A20D000CDBFDEBFDF91CF91089570
:1020DA00AFE0B0E0E3E7F0E10C94F2361C016B01EB
:1020EA0049835A832B83FB01828193818480958063
:1020FA0000811181A680B78097FD02C00D7F02C0C2
:10210A0081E090E0E981FA814080518062807380A9
:10211A009801207133272C833D83740104FF08C082
:10212A00411451046104710419F032E0E31AF10810
:10213A00F801E870FF27EE83FF8303FF03C0F1E095
:10214A00EF1AF108F6010084F185E02D3197EE8748
:10215A00FF87EA0DFB1D10829C012E193F09288773
:10216A003987C801827099278A879B87EB818E2FCE
:10217A00EE0F990B9C01215431092C873D872E853E
:10218A003F852230310530F48C819D81892B09F0FD
:10219A0042C05CC0411451046104710461F18E852E
:1021AA009F8501978E879F87C2018F7099278A30F2
:1021BA00910514F4C09602C0895A9F4FEC85FD859B
:1021CA007A9748F49C012062215631092A31310557
:1021DA0010F40E94493BEE85FF85EA0DFB1D8083C2
:1021EA00F1E0EF1AF10884E07694679457944794E3
:1021FA008A95D1F7C4CF888599858E0D9F1D1816AB
:10220A0019066CF21E141F040CF0BECFEA85FB857A
:10221A00EF2B29F6B9CFE981FA8180819181A281D8
:10222A00B381892B8A2B8B2B89F0EE85FF85EA0DEA
:10223A00FB1D31972B8120838E859F8502978E8780
:10224A009F87FC01EA0DFB1D80E38083EE81FF81FD
:10225A00EF2B59F02E853F85215031092E873F8774
:10226A00F901EA0DFB1D80E28083F6014085518564
:10227A00415051092E853F85421B530BB9016A0D06
:10228A007B1D9401C1010E943A2F9C01F1018081BA
:10229A00918190FF06C0F60182819381821793078C
:0C22AA000CF4C9012F96E2E10C9483377C
:1022B600CF93DF93CDB7DEB76097CDBFDEBF8A87FA
:1022C6009B876C877D874E875F87288B19828981DC
:1022D600E82FF0E04E855F859A01ADECBCEC0E94DC
:1022E600863A969587959695879596958795880FBC
:1022F600991F9C01220F331F220F331F820F931F3A
:102306009A01281B390BC90120E3280FCE01049638
:102316008E0F9F1FFC0120838E859F859C01ADEC4F
:10232600BCEC0E94863A96958795969587959695E4
:1023360087958E879F8789818F5F89838E859F8505
:10234600892B91F08981853010F20EC08981882F02
:1023560090E09E012C5F3F4F820F931F20E3FC010C
:10236600208389818F5F898399818889981718F4DA
:102376008981853058F31A823EC08A81882F90E081
:102386009E012C5F3F4F820F931FFC0180818B8340
:102396008A81882F90E02981422F50E02A81222FBE
:1023A60030E0BA01621B730B9B0121503109AE016B
:1023B6004C5F5F4F240F351FF90140819E012C5F52
:1023C6003F4F820F931FFC0140838981282F30E005
:1023D6008A81882F90E0A901481B590BCA010197F1
:1023E6009E012C5F3F4F820F931F2B81FC012083A0
:1023F6008A818F5F8A838981982F96958A8189172A
:1024060008F4BBCF8981882F90E09E012C5F3F4F57
:10241600820F931FFC011082AE014C5F5F4F2C852B
:102426003D858A859B85B9010E9498156096CDBF2A
:08243600DEBFDF91CF91089594
:10243E000F931F93CF93DF93CDB7DEB72897CDBF02
:10244E00DEBF198281E08A83A1C08091804E282F41
:10245E0030E08981482F50E081E090E002C0880F83
:10246E00991F4A95E2F7992782239323892B21F40A
:10247E0089818F5F89838AC089818B8303C08B8119
:10248E008F5F8B838B81882F90E001960897B0F435
:10249E008091804E282F30E08B81882F90E0AC0108
:1024AE004F5F5F4F81E090E002C0880F991F4A9501
:1024BE00E2F7992782239323892B09F76B81898170
:1024CE000E949B33882309F452C08B81282F30E061
:1024DE008981882F90E0A901481B590BCA010196EA
:1024EE009695982F8827979587958C839D838981BC
:1024FE00882F90E09695982F882797958795815DE0
:10250E009B4B8E839F838E819F81FC018081888768
:10251E008E819F8120E4FC0120838C819D81AC0102
:10252E004F5F5F4F8091FA4D9091FB4DA091FC4D06
:10253E00B091FD4D2E813F818A014DE350E0BC01EB
:10254E00CD010E942831882331F08A81882319F029
:10255E0081E090E002C080E090E08A838A81817001
:10256E008A838E819F812885FC01208301C01A8277
:10257E006B8189810E944034982F90958091804E76
:10258E0089238093804E8B818F5F898389818830E8
:10259E0008F45BCF8A812896CDBFDEBFDF91CF9145
:0625AE001F910F9108953A
:1025B400EF92FF920F931F93CF93DF93CDB7DEB7C4
:1025C4002797CDBFDEBF8E839F830E948B35DC01AE
:1025D400CB018A839B83AC83BD8319822AC08E81FD
:1025E4009F81892B29F08E819F81FC01808101C00C
:1025F40080E00E94DC048E819F81892B21F08E81F2
:102604009F81FC0110828091AE4D9091AF4DA091BD
:10261400B04DB091B14D4496A11DB11D8093AE4D06
:102624009093AF4DA093B04DB093B14D89818F5F1E
:1026340089838091AE4D9091AF4DA091B04DB091F2
:10264400B14D2A813B814C815D8179018A01E81A6F
:10265400F90A0A0B1B0BD801C7014497A105B10560
:1026640020F08981843008F4BACF8091AE4D9091E6
:10267400AF4DA091B04DB091B14D2A813B814C81B9
:102684005D8179018A01E81AF90A0A0B1B0BD8014A
:10269400C70180359105A105B10560F08A819B8150
:1026A400AC81BD818093AE4D9093AF4DA093B04D5E
:1026B400B093B14D8091B24D9091B34DA091B44D72
:1026C400B091B54D2A813B814C815D8179018A01AC
:1026D400E81AF90A0A0B1B0BD801C7014497A10594
:1026E400B10570F08A819B81AC81BD818093B24D2C
:1026F4009093B34DA093B44DB093B54D0E94FA237B
:1027040000002796CDBFDEBFDF91CF911F910F91BF
:06271400FF90EF90089514
:10271A00EF92FF920F931F93CF93DF93CDB7DEB75C
:10272A002797CDBFDEBF8E839F830E948B35DC0146
:10273A00CB018A839B83AC83BD8319822AC08E8195
:10274A009F81892B29F08E819F81FC01808101C0A4
:10275A0080E00E94030B8E819F81892B21F08E815C
:10276A009F81FC0110828091C24D9091C34DA0912E
:10277A00C44DB091C54D4496A11DB11D8093C24D63
:10278A009093C34DA093C44DB093C54D89818F5F7B
:10279A0089838091C24D9091C34DA091C44DB0914F
:1027AA00C54D2A813B814C815D8179018A01E81AF4
:1027BA00F90A0A0B1B0BD801C7014497A105B105F9
:1027CA0020F08981843008F4BACF8091C24D90916B
:1027DA00C34DA091C44DB091C54D2A813B814C8116
:1027EA005D8179018A01E81AF90A0A0B1B0BD801E3
:1027FA00C70180359105A105B10560F08A819B81E9
:10280A00AC81BD818093C24D9093C34DA093C44DBA
:10281A00B093C54D8091C64D9091C74DA091C84DBA
:10282A00B091C94D2A813B814C815D8179018A0130
:10283A00E81AF90A0A0B1B0BD801C7014497A1052C
:10284A00B10570F08A819B81AC81BD818093C64DB0
:10285A009093C74DA093C84DB093C94D0E94220EC4
:10286A0000002796CDBFDEBFDF91CF911F910F9158
:06287A00FF90EF900895AD
:10288000CF93DF9300D000D0CDB7DEB719829EC0C2
:102890008981282F30E0C901880F991F880F991F5F
:1028A000820F931F8658924BFC01908181E089270B
:1028B000882309F488C00E94E8328A839B83898137
:1028C000282F30E0C901880F991F880F991F820FA8
:1028D000931F8658924B21E0FC0120838981282F89
:1028E00030E0C901880F991F880F991F820F931F2D
:1028F0008A58924B20E038E0FC01208331838A81A2
:1029000087708C838C81843090F48981282F30E00B
:10291000C901880F991F880F991F820F931F88582C
:10292000924B26ED3DE4FC012083318326C08C814F
:10293000873090F48981282F30E0C901880F991FD2
:10294000880F991F820F931F8858924B2AED3DE400
:10295000FC012083318311C08981282F30E0C90117
:10296000880F991F880F991F820F931F8858924BC9
:102970002EED3DE4FC01208331838A819B81AC01F3
:102980005695479556954795569547959A01A9E8C6
:10299000B8E80E94863A96958795929582958F70B1
:1029A00089279F7089276CE3689F9001699F300D8C
:1029B0001124CA01821B930B805C9F4F80932C4E85
:1029C00090932D4E07C089818F5F898389818330E1
:1029D00008F45ECF00002496CDBFDEBFDF91CF911B
:0229E000089558
:1029E200EF92FF920F931F93CF93DF93CDB7DEB792
:1029F2002797CDBFDEBF8E839F8384E089830E94A9
:102A02008B35DC01CB018A839B83AC83BD838E81B2
:102A12009F81892B09F454C08E819F81FC018081A2
:102A2200882F90E080729927892BC1F08E819F8137
:102A3200FC018081282F2F7D8E819F81FC012083C4
:102A420080917D4E8F5F80937D4E80917D4E83304D
:102A520010F010927D4E81E080937E4E8E819F8198
:102A6200FC018081882F90E080749927892B41F1A5
:102A72008E819F81FC018081282F2F7B8E819F81F7
:102A8200FC01208380917D4E898380917D4E882F29
:102A920090E0880F991F8E55924BFC0180819181A5
:102AA200292F2F938F938FEE9BE4892F8F938FEE95
:102AB2009BE48F930E9453370F900F900F900F90CB
:102AC20080917E4E882341F18091EE4D9091EF4DA1
:102AD200A091F04DB091F14D2A813B814C815D81F5
:102AE20079018A01E81AF90A0A0B1B0BD801C701FE
:102AF2008897A105B10580F08A819B81AC81BD8157
:102B02008093EE4D9093EF4DA093F04DB093F14D25
:102B120010927E4E0E94F12189812796CDBFDEBFA1
:0E2B2200DF91CF911F910F91FF90EF900895DA
:102B3000CF93DF93CDB7DEB76097CDBFDEBF8B8776
:102B40009C876D877E874F87588B8B859C85898373
:102B50009A838F859889892B09F487C08F859889F6
:102B60008B839C838D8587708E838D859E859695BE
:102B7000879596958795969587958F836FC08B815E
:102B80009C81FC0180810E94D035282F30E0C90152
:102B9000880F991F880F991F820F931F805D974B95
:102BA000888799871D824CC08D81882F90E0288569
:102BB0003985820F931FFC0180818A878A8588234B
:102BC000E1F18A85882F90E02E81222F30E002C02B
:102BD000880F991F2A95E2F7482F8D81282F30E022
:102BE00089819A81820F931F21E0BC018F810E940D
:102BF0002E208E81882309F18A85882F90E02E81EE
:102C0000222F30E048E050E0BA01621B730B9B01B9
:102C100002C0959587952A95E2F7482F8D81282F38
:102C200030E089819A81820F931F2F8131E0320F2A
:102C300021E0BC01832F0E942E208D818F5F8D8328
:102C40008D81853008F4B0CF89819A810696898379
:102C50009A838B819C8101968B839C838B819C8141
:102C6000FC018081882309F08ACF89819A8160964E
:0A2C7000CDBFDEBFDF91CF910895C4
:102C7A00CF93DF93CDB7DEB72E97CDBFDEBF8B875D
:102C8A009C876D877E8719828CC089810E947E38D5
:102C9A008B839C838B819C8104968D839E832D8557
:102CAA003E858D819E81281739070CF077C08D8566
:102CBA009E859C012D5F3F4F8B819C8182179307D4
:102CCA000CF06CC01A8266C08981882F90E082500D
:102CDA00924BFC018081282F30E08A81482F50E0F6
:102CEA0081E090E002C0880F991F4A95E2F7992780
:102CFA0082239323892B09F44AC08A810E94E338EC
:102D0A008F8398878F8198850F9689879A872B85D5
:102D1A003C8589859A8528173907CCF58B859C854A
:102D2A009C012D5F3F4F8F819885821793077CF511
:102D3A008981882F90E02981222F30E02250324B5E
:102D4A00F90160812A81422F50E021E030E002C07F
:102D5A00220F331F4A95E2F7209526238250924B81
:102D6A00FC01208380915F4E815080935F4E40E04A
:102D7A006A8189810E9468358091164E9091174E1A
:102D8A000A968093164E9093174E81E00FC08A815F
:102D9A008F5F8A838A81883008F496CF89818F5F12
:102DAA0089838981833008F470CF80E02E96CDBF65
:082DBA00DEBFDF91CF91089507
:102DC200CF93DF9300D0CDB7DEB78091744E882FBA
:102DD20090E0880F991F8A5A924BFC01108211824F
:102DE20080E298E0FC018181882F90E0847099272D
:102DF200892BC9F08091744E882F90E0880F991F1B
:102E02008A5A924BFC0120812260FC01208380912E
:102E12004E4E90914F4E892B31F080914E4E9091B3
:102E22004F4EFC01099580E298E0FC018181882FD8
:102E320090E082709927892B89F080914C4E8160B5
:102E420080934C4E8091524E9091534E892B31F08B
:102E52008091524E9091534EFC01099580E298E088
:102E6200FC018181882F90E080749927892BC9F019
:102E72008091744E882F90E0880F991F8A5A924B46
:102E8200FC0120812460FC0120838091504E9091AE
:102E9200514E892B31F08091504E9091514EFC0150
:102EA200099580E298E0FC01808189838091744ECB
:102EB2008F5F87708A838091754E9A81981789F007
:102EC2008091744E882F90E08D56924B2981FC019F
:102ED20020838A818093744E8091764E8F5F809397
:102EE200764E8091564E9091574E892B31F08091BB
:102EF200564E9091574EFC01099500000F900F908D
:062F0200DF91CF9108955C
:102F0800EF92FF920F931F93CF93DF93CDB7DEB766
:102F18006097CDBFDEBF8D879E876F87788B8D8545
:102F28009E85CC01A0E0B0E0880F991FAA1FBB1FA7
:102F3800880F991FAA1FBB1F880F991FAA1FBB1FA5
:102F4800880F991FAA1FBB1F8B839C83AD83BE83E9
:102F580080EE91E08F8398878F859889892B19F463
:102F680080E090E065C08F8598899C0140E050E042
:102F78008F859889CC01A0E0B0E0BC01CD010E940A
:102F88002B3A7B018C018F8598899C0140E050E0A9
:102F98008B819C81AD81BE81BC01CD010E942B3A01
:102FA800DC01CB01880F991FAA1FBB1F880F991F2F
:102FB800AA1FBB1F880F991FAA1FBB1F8E0D9F1D1D
:102FC800A01FB11F89879A87AB87BC8789859A8597
:102FD800AB85BC85BC01CD010E94C91E9C018F85B3
:102FE8009889A901481B590BCA0196958795898329
:102FF8009A8305C089819A81019789839A83298157
:103008003A818F8598898217930768F42F853889C4
:1030180089819A81B9010E942D289C018F81988508
:103028008217930738F389819A819195819591093F
:103038006096CDBFDEBFDF91CF911F910F91FF90BA
:04304800EF90089568
:10304C00EF92FF920F931F93CF93DF93CDB7DEB721
:10305C002A97CDBFDEBF0E948B35DC01CB01898363
:10306C009A83AB83BC838091E64D9091E74DA09100
:10307C00E84DB091E94D29813A814B815C81790110
:10308C008A01E81AF90A0A0B1B0BD801C70105972C
:10309C00A105B10508F46BC08FEF8A8789819A81ED
:1030AC00AB81BC818093E64D9093E74DA093E84DA6
:1030BC00B093E94DCE010A96BC0189E00E945330D1
:1030CC00882309F452C08091784E8D8381E08093DF
:1030DC007C4E8A858093774E8A858095807E8E8300
:1030EC008091794E882F90E08F5F914B2E81FC015F
:1030FC0020838091794E8F5F8093794E8091794EA9
:10310C00833010F01092794E9091014E8091024EC6
:10311C0098238091034E89238F839091014E809147
:10312C00024E982B8091034E892B88879091784E74
:10313C00888598238F81892B8093784E9091784E37
:10314C008D81892789879091784E898598238091E4
:10315C007A4E892B80937A4E99858D819823809114
:10316C007B4E892B80937B4E02C010927C4E0000CC
:10317C002A96CDBFDEBFDF91CF911F910F91FF90AB
:04318C00EF90089523
:10319000EF92FF920F931F93CF93DF93CDB7DEB7DC
:1031A0000E94A1390E941F121092684E1092304E58
:1031B0001092314E64E070E088E190E00E94841744
:1031C0008093284E9093294E0E9458320E948B354E
:1031D000DC01CB018093C24D9093C34DA093C44DAD
:1031E000B093C54D8091C24D9091C34DA091C44DF7
:1031F000B091C54D8093C64D9093C74DA093C84DD7
:10320000B093C94D0E94220E8CED99E40E94373B89
:103210008091284E9091294E9C0183E090E0821B82
:10322000930B969587959695879528E2289F700130
:10323000299FF00C11248091284E9091294E9C01D9
:1032400083E090E0821B930B8C01169507951695F1
:1032500007958091284E9091294E919581959109DD
:1032600064E070E00E942D289C01329522952F7019
:1032700023273F7023278091284E9091294E4F2D70
:103280004F934E2D4F93412F4F93402F4F93432FEA
:103290004F932F93292F2F938F931F9288E18F9312
:1032A0001F9284E08F9388E19AE4892F8F9388E1BD
:1032B0009AE48F930E943B378DB79EB70E96CDBF91
:1032C000DEBF0000DF91CF911F910F91FF90EF9033
:0232D00008955F
:1032D2000F93CF93DF9300D000D0CDB7DEB78091AC
:1032E200044E9091054E9595879595958795959560
:1032F20087959595879589839A838091064E9091BB
:10330200074E95958795959587959595879595956A
:1033120087958B839C838091604E882309F441C0FA
:103322008091124E9091134E29813A8128173907C4
:1033320049F48091144E9091154E2B813C812817AF
:103342003907C9F06091144E7091154E8091124E5A
:103352009091134E00E023E043E00E9444336091D9
:10336200144E7091154E8091124E9091134E23E09F
:1033720043E00E94501D20910E4E30910F4E8091DD
:10338200104E9091114E2817390759F08091104E26
:103392009091114E00E023E048E16AE370E00E9460
:1033A200443380910E4E90910F4E01E023E048E1AC
:1033B2006AE370E00E9444336B817C8189819A8147
:1033C20001E023E043E00E94443389819A818093A3
:1033D200124E9093134E8B819C818093144E909346
:1033E200154E80910E4E90910F4E8093104E9093F9
:1033F200114E81E08093604E00002496CDBFDEBF67
:08340200DF91CF910F910895B5
:10340A00CF93DF93CDB7DEB72997CDBFDEBF8D83CC
:10341A009E836F83788749878D819E8199230CF4D7
:10342A007BC08D819E81803891050CF075C08F819B
:10343A00988599230CF470C08F8198858034910502
:10344A000CF06AC08F819885969587959695879591
:10345A009695879589838F8198859C01277081E04D
:10346A0090E002C0880F991F2A95E2F78A83898122
:10347A00882F90E09C013695322F22273795279581
:10348A008D819E81820F931F8B839C838985882FD0
:10349A0090E0009719F0029789F01FC08B819C81F8
:1034AA00805D9B4B2B813C81205D3B4BF901308138
:1034BA002A8120952323FC0120831EC08B819C81B5
:1034CA00805D9B4B2B813C81205D3B4BF901308118
:1034DA002A812327FC0120830FC08B819C81805D78
:1034EA009B4B2B813C81205D3B4BF90130812A812A
:1034FA00232BFC01208300008981282F30E081E002
:10350A0090E002C0880F991F2A95E2F7982F8091C0
:10351A00804E892B8093804E00002996CDBFDEBF56
:06352A00DF91CF9108952E
:10353000CF93DF93CDB7DEB76097CDBFDEBF8B876C
:103540009C876D877E874F87288B8D859E85898395
:103550009A838F85282F30E08D859E85820F931F5B
:1035600001978B839C838F85882309F46BC08B81A3
:103570009C8199230CF466C089819A8180349105DD
:103580000CF060C089819A81992314F419821A82FF
:103590008B819C818034910524F08FE390E08B83B4
:1035A0009C8389819A81969587959695879596951E
:1035B00087958E838B819C81969587959695879527
:1035C000969587958F838E818D8338C09D818E815E
:1035D000981719F48981877001C080E088879D81E0
:1035E0008F81981719F48B81877001C087E08987D4
:1035F0008885282F30E08FEF90E002C0880F991F58
:103600002A95E2F7482F8985882F90E027E030E05F
:10361000281B390B8FEF90E002C0969587952A956D
:10362000E2F784238A878B859C8528894A85BC019B
:103630008D810E942E208D818F5F8D839D818F8152
:10364000891720F600006096CDBFDEBFDF91CF91D5
:023650000895DB
:103652000F931F93CF93DF93CDB7DEB72697CDBFDE
:10366200DEBF6B837C838D839E838091E24D90913C
:10367200E34DA091E44DB091E54D2B813C814D810C
:103682005E81281739074A075B0709F468C021E001
:103692008B819C81AD81BE8181389A41A640B10562
:1036A20008F420E0298380E099E0FC018081882FE2
:1036B20090E08270992721E0892B09F420E02A8387
:1036C20068E572E080E090E00E94AB2F00E019E034
:1036D2008B819C81AD81BE81BC01CD010E941421F0
:1036E200F801868399818A81981769F180E099E0CF
:1036F20020E039E0F90123812E7FFC0123838981B7
:10370200882351F080E099E020E039E0F90120813E
:103712002260FC01208309C080E099E020E039E0CA
:10372200F90120812D7FFC01208380E099E020E0D7
:1037320039E0F90123812160FC01238380E099E0D3
:1037420021E0FC0125838B819C81AD81BE81809328
:10375200E24D9093E34DA093E44DB093E54D00000C
:103762002696CDBFDEBFDF91CF911F910F910895B5
:10377200CF93DF93CDB7DEB76097CDBFDEBF8F8724
:10378200988B8091244E9091254E9595879595958D
:103792008795959587959595879589839A838DE0E9
:1037A20090E08B839C8383E190E08D839E8389816B
:1037B2009A8140968F8398878F859889FC018081B2
:1037C20091819595879595958795959587959595E9
:1037D2008795019689879A878F859889FC018081D0
:1037E20091819C0135952795359527953595279596
:1037F200359527958F859889FC0182819381FC01FB
:103802008081882F90E0820F931F01978B879C877E
:103812008F859889FC0182819381FC018181882FA7
:1038220090E027E330E0A901481B590BCA018D87BC
:103832009E8789819A81039689839A832D813E810D
:1038420089859A8582179307ACF42B813C818B85FD
:103852009C852817390774F42F8138858D859E85BC
:10386200821793073CF489819A81C6971CF481E000
:1038720090E002C080E090E081706096CDBFDEBF34
:06388200DF91CF910895D3
:10388800CF93DF9300D00F92CDB7DEB760E085E02D
:103898000E94EF3389838981882349F06FEF80E0A4
:1038A8000E94EF33882319F081E090E002C080E0A5
:1038B80090E089838981817089838981882349F08F
:1038C80060E081E00E94EF33882319F081E090E006
:1038D80002C080E090E08983898181708983898131
:1038E800882349F060E086E00E94EF33882319F0CE
:1038F80081E090E002C080E090E089838981817056
:103908008983898180937C4E1092784E10927A4EEA
:1039180010927B4E1092794E0E948B35DC01CB01C0
:103928008093E64D9093E74DA093E84DB093E94D11
:103938008981882341F18FEF8B83CE010396BC01E7
:1039480089E00E9453308823D9F08B818093774E89
:103958001A820DC08A81882F90E02B812095207EC5
:103968008F5F914BFC0120838A818F5F8A838A81D4
:10397800833080F38B818095807E8093784E03C05E
:1039880010927C4E198289812396CDBFDEBFDF91CC
:04399800CF9108952E
:10399C001F920F920FB60F9211240BB60F922F930A
:1039AC003F934F935F936F937F938F939F93AF93BB
:1039BC00BF93EF93FF93CF93DF93CDB7DEB788E040
:1039CC0090E0FC018381882F90E082709927892BED
:1039DC0031F08091404E9091414EFC01099588E068
:1039EC0090E0FC018381882F90E081709927892BCE
:1039FC0031F08091424E9091434EFC01099588E044
:103A0C0090E0FC018381882F90E088709927892BA6
:103A1C0031F08091444E9091454EFC01099588E01F
:103A2C0090E0FC018381882F90E084709927892B8A
:103A3C0031F08091464E9091474EFC01099588E0FB
:103A4C0090E0FC018381882F90E080749927892B6A
:103A5C0031F08091484E9091494EFC01099588E0D7
:103A6C0090E02FEFFC0123830000DF91CF91FF91B9
:103A7C00EF91BF91AF919F918F917F916F915F91DA
:103A8C004F913F912F910F900BBE0F900FBE0F9047
:043A9C001F901895CA
:103AA000CF93DF93CDB7DEB76097CDBFDEBF8B87F7
:103AB0009C876D877E874F87288B198265C0898197
:103AC0000E947E388B839C838B819C8104968D839E
:103AD0009E832D853E858D819E81281739070CF0A8
:103AE00050C08889282F30E08D859E85280F391F8A
:103AF0008B819C81821793070CF043C01A823DC0D2
:103B00008981882F90E08250924BFC018081282F80
:103B100030E08A81482F50E081E090E002C0880FB9
:103B2000991F4A95E2F7992782239323892B11F154
:103B30008A810E94E3388F8398878F8198850F96BA
:103B400089879A872B853C8589859A852817390727
:103B50008CF48F85282F30E08B859C85280F391FAA
:103B60008F819885821793072CF441E06A818981BF
:103B70000E9468358A818F5F8A838A81883008F441
:103B8000BFCF89818F5F89838981833008F497CF84
:0E3B900000006096CDBFDEBFDF91CF9108959B
:103B9E00CF93DF9300D0CDB7DEB78091644E8823EC
:103BAE00E9F42091164E3091174E80911A4E909155
:103BBE001B4E2817390791F42091184E3091194E4B
:103BCE0080911C4E90911D4E2817390739F4909113
:103BDE00614E8091634E981709F451C060E080E009
:103BEE000E9439274DE75AE460E070E080E090E0F3
:103BFE000E94981589839A834091184E5091194EC0
:103C0E0089819A81039625E060E070E00E945B1145
:103C1E0040E85AE460E070E088E390E00E94981576
:103C2E0089839A838091614E482F50E089819A81D1
:103C3E0021E060E070E00E945B118091164E909141
:103C4E00174E25E0AC0160E070E082E690E00E9445
:103C5E005B118091164E9091174E80931A4E909351
:103C6E001B4E8091184E9091194E80931C4E90933E
:103C7E001D4E8091614E8093634E1092644E0000F3
:0A3C8E000F900F90DF91CF91089581
:103C9800CF93DF93CDB7DEB72A97CDBFDEBF898735
:103CA8009A8788E592E0A0E0B0E089839A83AB83A5
:103CB800BC838091E24D9091E34DA091E44DB09189
:103CC800E54D892B8A2B8B2B09F453C089859A855E
:103CD8009C0140E050E0DA01C901880F991FAA1F32
:103CE800BB1F880F991FAA1FBB1F880F991FAA1FE8
:103CF800BB1F820F931FA41FB51F4296A11DB11DA4
:103D08008D839E83AF83B8872D813E814F815885EF
:103D180088EE93E0DC010E94E03ADC01CB012091BF
:103D2800E24D3091E34D4091E44D5091E54DBC0199
:103D3800CD010E94AE35DA01C9010596A11DB11D5C
:103D4800880F991FAA1FBB1F89839A83AB83BC83E3
:103D580089819A81AB81BC8189359240A105B105E1
:103D680040F088E592E0A0E0B0E089839A83AB83D5
:103D7800BC8389819A81AB81BC81BC01CD012A9623
:0A3D8800CDBFDEBFDF91CF9108959B
:103D9200CF93DF93CDB7DEB72C97CDBFDEBF698758
:103DA2007A878B879C8789859A85AB85BC850297A4
:103DB200A105B10518F489859A8560C089859A851F
:103DC200AB85BC8589839A83AB83BC8389859A85BD
:103DD200AB85BC8529813A814B815C81BC01CD01D7
:103DE2000E94AE35DA01C9019C01AD0189819A8137
:103DF200AB81BC81820F931FA41FB51FB695A795F7
:103E0200979587958D839E83AF83B88728C08D81D0
:103E12009E81AF81B88589839A83AB83BC83898570
:103E22009A85AB85BC8529813A814B815C81BC0135
:103E3200CD010E94AE35DA01C9019C01AD01898133
:103E42009A81AB81BC81820F931FA41FB51FB695C7
:103E5200A795979587958D839E83AF83B8872D818C
:103E62003E814F81588589819A81AB81BC81281717
:103E720039074A075B0758F289819A812C96CDBF90
:083E8200DEBFDF91CF9108952E
:103E8A00CF93DF93CDB7DEB72597CDBFDEBF1982BB
:103E9A001A821B8281E08C8380E480932F448FEF07
:103EAA008093814E1092824E2AC089819A818D5FB9
:103EBA00934BFC0180818D8389819A8101968D5F64
:103ECA00934B6D810E94592D982F81E08927882371
:103EDA0049F08B818093814E0E94013B8093824EF0
:103EEA001C8215C08D81282F30E089819A81820F2A
:103EFA00931F019689839A838B818F5F8B83898134
:103F0A009A818D5F934BFC018081882371F68C81A5
:103F1A00882389F00E94A1390E941F12982F81E0FC
:103F2A008927882341F080EF8093814E0E94013BCC
:103F3A008093824E1C828C81882381F08FEA0E94B2
:103F4A00773A982F81E08927882341F081EF80937F
:103F5A00814E0E94013B8093824E1C828C81259661
:0A3F6A00CDBFDEBFDF91CF910895B7
:103F7400CF93DF93CDB7DEB780E099E0FC01858174
:103F8400882F90E084709927892B51F480E099E080
:103F9400FC018581882F90E088709927892B61F036
:103FA40086E08093924D83E08093914D80E099E088
:103FB4002CE0FC0125832DC080E099E0FC01878181
:103FC400882389F080E099E0FC018581882F90E0C6
:103FD40080719927892B39F085E08093924D81E097
:103FE4008093914D16C080E099E0FC018085882380
:103FF40081F080E099E0FC018581882F90E0807158
:104004009927892B31F085E08093924D82E080934B
:10401400914D8091924D882F90E0880F991F8D5C6F
:10402400924BFC0180819181FC0109958093924D12
:104034008091914D882361F080913C4E90913D4E4A
:10404400892B31F080913C4E90913D4EFC010995B5
:084054000000DF91CF910895F7
:10405C00CF93DF93CDB7DEB72797CDBFDEBF8B8372
:10406C006C837D834E832F838E81882309F45DC0FE
:10407C008C819D8199230CF458C08C819D81803852
:10408C0091050CF052C08B81883008F04EC08B81AA
:10409C00882F90E09C013695322F22273795279553
:1040AC008C819D81820F931F805D9B4B89839A83AA
:1040BC008F81882F90E0009719F0029771F019C04A
:1040CC0089819A81FC0190818E818095292F2823EA
:1040DC0089819A81FC01208318C089819A81FC0115
:1040EC0090818E81292F282789819A81FC01208338
:1040FC000CC089819A81FC0190818E81292F282BFB
:10410C0089819A81FC01208300008B81282F30E06B
:10411C0081E090E002C0880F991F2A95E2F7982F52
:10412C008091804E892B8093804E00002796CDBFC6
:08413C00DEBFDF91CF91089571
:10414400A2E0B0E0E8EAF0E20C94F2363C016B0144
:10415400FB0122813381A480B58080819181898390
:104164009A8386809780FA01208031804280538030
:10417400B201A10157FE07C044275527BA014219CD
:1041840053096409750937FD03C08D7F89839A83B8
:10419400950157FC05C0898182FD02C083FF02C0DE
:1041A40021503109CE0101967C010AE010E0C601DC
:1041B4000E94C42457FC03C0298122FF0AC001972E
:1041C400F401E80FF91F57FC02C02BE209C02DE2ED
:1041D40007C023FF06C00197F401E80FF91F20E28E
:1041E400208309811A81F601408551854150510986
:1041F400481B590BB401680F791F9501C3010E9434
:104204003A2F9C01F3018081918190FF06C0F60151
:1042140082819381821793070CF4C9012296E2E10B
:044224000C9483373C
:10422800EF92FF920F931F93CF93DF93CDB7DEB733
:104238006197CDBFDEBF6E877F87888B998B198288
:104248008E859F85A889B989892B8A2B8B2B09F4A0
:104258004DC080E096E3AEE6B1E02E853F85488903
:104268005989BC01CD010E94AE35DA01C9018A83A2
:104278009B83AC83BD838DE08E831F82188619864D
:104288002A813B814C815D818E819F81A885B9857A
:1042980082179307A407B50748F52A813B814C810B
:1042A8005D818E819F81A885B98579018A01E81A87
:1042B800F90A0A0B1B0BD801C7010196A11DB11DF4
:1042C800B695A795979587958A879B87AC87BD876D
:1042D8008A859B85AC85BD858F3F9105A105B10574
:1042E80009F010F48A8501C08FEF8983898161966E
:1042F800CDBFDEBFDF91CF911F910F91FF90EF905F
:02430800089516
:10430A00CF93DF93CDB7DEB781EE96E1809302407B
:10431A009093034089E892E3809300409093014090
:10432A0080E298E021E433E0FC012087318780E2D3
:10433A0098E020EDFC01258380E298E020ECFC0166
:10434A00268380E298E023E0FC01278380E298E05C
:10435A00FC01138680E298E0FC01148680E298E072
:10436A00FC01168680E298E0FC01158682E89BE350
:10437A000E94C9378AE89BE30E94E03782E99BE3FF
:10438A000E94F73710924C4E10924D4E1092704E7A
:10439A001092714E80E28093724E81E08093734E48
:1043AA001092744E1092754E1092764E80E298E0FA
:1043BA0020E238E0F90125812068FC0125838091FB
:1043CA005A4E90915B4E26E63DE4FC0120833183F0
:0843DA000000DF91CF9108956E
:1043E2000F93CF93DF9300D00F92CDB7DEB70E9429
:1043F200A13962ED7BE482E090E00E94F43121E099
:1044020040E86CE070E080E090E00E94FC291982B4
:104412003FC08981282F30E04BE0429FC001439F7B
:10442200900D112441968A839B838981882F90E085
:10443200880F991F8E55924BFC01208131818A8110
:104442009B81A901BC0180E190E00E9498158091B6
:104452007D4E99819817C9F48981882F90E0880F41
:10446200991F8E55924BFC01808191810E94893067
:104472003CE0380F8A819B81029702E02AE0432FB9
:10448200BC018AE090E00E94443389818F5F898376
:104492008981833008F4BDCF6EED7BE487E390E041
:1044A2000E94F4310E941F1200002396CDBFDEBF8E
:0844B200DF91CF910F910895F5
:1044BA00CF93DF930F92CDB7DEB784E089838091E3
:1044CA008E4D90918F4D019751F480E099E020E054
:1044DA0039E0F90124812460FC01248309C080E0C9
:1044EA0099E020E039E0F90124812B7FFC01248343
:1044FA0080918E4D90918F4D019780938E4D909320
:10450A008F4D892BC9F080918C4D90918D4D20E073
:10451A0039E0F9012085FC01208380918C4D90912E
:10452A008D4D019680938C4D90938D4D82E00E9423
:10453A00B23784E089831FC080918C4D90918D4D54
:10454A0020E039E0F9012085FC01208380918C4D1F
:10455A0090918D4D019680938C4D90938D4D80E076
:10456A0099E020E039E0F90124812460FC012483E8
:10457A000E94A33A898389810F90DF91CF91089590
:10458A00CF93DF93DC01F90168387105F1F05CF42F
:10459A006138710561F164387105A1F160387105FE
:1045AA0009F051C02FC0603C710509F441C0603F59
:1045BA007105F1F1603A710509F045C0C081D181F8
:1045CA00CE0102968083918325C0C081D181CE011C
:1045DA00029680839183452B39F04881042E000C82
:1045EA00550B660B770B1CC0488150E029C0C0816F
:1045FA00D181CE01049680839183488159816A8151
:10460A007B810EC0C081D181CE01029680839183C5
:10461A00452BA1F048815981052E000C660B770BBA
:10462A004D935D936D937C93139781E090E00DC059
:10463A00C081D181CE0102968083918348815981BC
:10464A0060E070E0EDCF80E090E0DF91CF910895D7
:10465A000F93CF93DF93CDB7DEB72897CDBFDEBFD9
:10466A008A839B836C837D834E832F8308878E8105
:10467A00882309F44CC08F81882309F448C06C81CF
:10468A007D818A819B8128854E810E94FC298F81A8
:10469A00282F30E08C819D81820F931FBC016150CD
:1046AA0071098A819B8128854E810E94FC2981E0BB
:1046BA00898323C08981282F30E08C819D81280F2E
:1046CA00391F8A819B814885B9010E94051A89810F
:1046DA00282F30E08C819D81B901680F791F8E8166
:1046EA00282F30E08A819B81820F931F019748858A
:1046FA000E94051A89818F5F89838981282F30E07A
:10470A008F81882F90E001972817390798F20000C7
:0E471A002896CDBFDEBFDF91CF910F9108959D
:10472800CF93DF93CDB7DEB72597CDBFDEBF8FEF31
:104738009FEF89839A831B824DC08B81282F30E09D
:10474800C901880F991F880F991F820F931F8658D8
:10475800924BFC0180818823D1F18B81282F30E096
:10476800C901880F991F880F991F820F931F8A58B4
:10477800924BFC0180819181AC01559547955595E7
:10478800479555954795559547958B81282F30E046
:10479800C901880F991F880F991F820F931F885886
:1047A800924BFC0180819181FC018081882F90E0EF
:1047B800840F951F8C839D832C813D8189819A81EB
:1047C8008217930724F48C819D8189839A838B8136
:1047D8008F5F8B838B81833008F4AFCF89819A8177
:0C47E8002596CDBFDEBFDF91CF91089574
:1047F4000F93CF93DF93CDB7DEB70E94CF1D809187
:104804005E4E882F90E0009719F0039769F14BC032
:1048140067E081E00E9439276AEB7AE482E190E064
:104824000E94F43163EC7AE480E290E00E94F43177
:1048340064ED7AE48AE290E00E94F43180910E4EB5
:1048440090910F4E01E023E048E16AE370E00E949A
:10485400443380910E4E90910F4E8093104E90935E
:10486400114E1092604E22C067E081E00E94392709
:104874006EED7AE482E190E00E94F4318091164E6C
:104884009091174E25E0AC016EE170E08EE290E06D
:104894000E945B1168EE7AE48AE290E00E94F431AF
:1048A4001092604E03C00E94691900000E941F12FA
:0A48B4000000DF91CF910F910895ED
:1048BE00CF93DF93CDB7DEB780E096E020E036E011
:1048CE00F90120812E7FFC01208380E096E020E01C
:1048DE0036E0F90124852C7FFC01248780E096E0E8
:1048EE0023E0FC0125871092384E1092394E10921B
:1048FE003A4E10923B4E80E096E0FC01118280E031
:10490E0096E0FC01128280E096E0FC01138280E0CA
:10491E0096E0FC01148280E096E0FC01158280E0B6
:10492E0096E027E0FC01208780E096E020E4FC0181
:10493E00218780E096E0FC01128680E096E0FC0183
:10494E00138680E096E0FC01168680E096E0FC017E
:10495E00148A158A80E096E0FC01128A138A80E0A0
:10496E0096E021E0FC01248780E096E021E0FC0146
:0A497E0020830000DF91CF9108951F
:10498800A0E0B0E0EAECF4E20C94F436DC01280193
:104998001696AD90BC901797F70180819181129679
:1049A800ED91FC9113971896CD91DC911997219769
:1049B800F7FF02C0E1E0F0E0CA0DDB1D18826901D3
:1049C800A1E0B0E08F01021B130B4C01F2E08F2233
:1049D8009924052C000C66087708CE018A199B09D2
:1049E800CA15DB0519F1411551056105710589F0F5
:1049F800CB01BA01A30192010E94AE35CA01A62FCC
:104A0800B72F605D6A9341E0C41AD108A901BC01BF
:104A1800E4CF98012C0D3D1D121613064CF31C14FF
:104A28001D0434F48114910419F702C080E090E069
:104A3800AB2B31F4F701208131812F7E2083318324
:0A4A4800CDB7DEB7E0E10C9485372E
:104A5200CF93DF9300D0CDB7DEB780916D4E882320
:104A6200B1F420912E4E30912F4E8091324E909182
:104A7200334E2817390759F42091304E3091314E78
:104A82008091344E9091354E28173907D1F160E06C
:104A920080E00E9439274FE859E460E070E080E04E
:104AA20090E00E94981589839A834091304E5091EC
:104AB200314E89819A81039625E060E070E00E9480
:104AC2005B1189839A8380912E4E90912F4E25E01F
:104AD200AC0160E070E082E690E00E945B118091A0
:104AE2002E4E90912F4E8093324E9093334E809162
:104AF200304E9091314E8093344E9093354E1092B9
:0E4B02006D4E00000F900F90DF91CF9108953F
:104B1000CF93DF93CDB7DEB780E09AE0FC0110A61B
:104B200011A680E09AE0FC0112A613A680E09AE0AC
:104B3000FC0114A615A680E09AE0FC0110A211A2C7
:104B400080E09AE0FC01118280E09AE0FC01128290
:104B500080E09AE0FC01138280E09AE0FC0114827C
:104B600080E09AE0FC01158280E09AE0FC01168268
:104B700080E09AE0FC01178280E09AE0FC01168652
:104B800080E09AE0FC01118680E09AE021E0FC01DF
:104B9000228780E09AE0FC01138680E09AE02FEB08
:104BA0003DE5FC0126A337A380E09AE0FC011786CF
:104BB00080E09AE021E0FC0120830000DF91CF91AA
:024BC000089556
:104BC200A2E0B0E0E7EEF5E20C94F6364C016B01A0
:104BD200FB01228133816480758080819181898388
:104BE2009A83A680B78037FD03C08D7F89839A831D
:104BF200FA014081518162817381CE0101967C016B
:104C020008E010E09301C6010E94C424298124FF18
:104C120006C00197F501E80FF91F20E320832981DF
:104C220023FF06C00197F501E80FF91F20E2208358
:104C320009811A81F6014085518541505109481B6D
:104C4200590BB501680F791F9301C4010E943A2FD5
:104C52009C01F4018081918190FF06C0F60182815E
:104C62009381821793070CF4C9012296EEE00C940B
:024C7200873782
:104C7400CF93DF93CDB7DEB70E94A1390E941F12F4
:104C840010925E4E1092184E1092194E1092164EBB
:104C94001092174E83E08093614E81E08093624EC0
:104CA40084E190E080930C4E90930D4E0E94103658
:104CB4001092604E81E08093644E68E670E080E07C
:104CC40090E00E94172980930E4E90930F4E0E94FD
:104CD4008F340E948B35DC01CB018093AE4D9093D1
:104CE400AF4DA093B04DB093B14D8091AE4D909126
:104CF400AF4DA091B04DB091B14D8093B24D909312
:104D0400B34DA093B44DB093B54D0E94FA238CEFEC
:0E4D14009AE40E94373B0000DF91CF91089592
:104D2200CF93DF93CDB7DEB70E94A1396CE37BE46A
:104D320080E090E00E94F43121E040E869E070E018
:104D420080E090E00E94FC2949E45BE46CE070E0C2
:104D520080E090E00E9498154DE45BE462E270E02E
:104D620080E090E00E9498150E948B35DC01CB0117
:104D72008093B64D9093B74DA093B84DB093B94D73
:104D82008091B64D9091B74DA091B84DB091B94D6B
:104D92008093BA4D9093BB4DA093BC4DB093BD4D43
:104DA2001092204E1092214E1092224E1092234EBB
:104DB2008FEF8093664E8FEF8093674E0E941F1293
:084DC2000000DF91CF9108957C
:104DCA00CF93DF93CDB7DEB72697CDBFDEBF0E9464
:104DDA00BD3A89839A8389819A81992314F4198225
:104DEA001A828091584E9091594E9C0189819A81DC
:104DFA00821B930B8B839C838B819C8197FF03C0BF
:104E0A009195819591098D839E838D819E81499784
:104E1A003CF089819A818093584E9093594E1BC0D9
:104E2A008D819E8105973CF489819A818093584EA1
:104E3A009093594E10C08B819C8195958795959535
:104E4A0087952091584E3091594E820F931F809327
:104E5A00584E9093594E10927F4E00002696CDBF21
:084E6A00DEBFDF91CF91089536
:104E7200CF93DF9300D000D0CDB7DEB78B836C83A6
:104E82008B81883008F040C08C818830E8F59B81A6
:104E92008C818917C8F19C818B81292F281B822F35
:104EA2008F5F8A838A81882F90E09C013695322F0A
:104EB2002227379527958B81882F90E09695982FFA
:104EC200882797958795805D9B4BA90160E070E0EC
:104ED2000E94403B8B81898313C08981282F30E057
:104EE20081E090E002C0880F991F2A95E2F7982F7F
:104EF2008091804E892B8093804E89818F5F898338
:104F020099818C81891748F700002496CDBFDEBFB6
:064F1200DF91CF9108952C
:104F1800CF93DF93CDB7DEB72B97CDBFDEBF8E83A0
:104F28009F83488759876A877B8719828E819F81EB
:104F3800892BC1F10E948B35DC01CB018A839B83CD
:104F4800AC83BD838E819F81FC0180819181A28188
:104F5800B3812A813B814C815D81281B390B4A0B27
:104F68005B0B88859985AA85BB85281739074A0769
:104F78005B07C0F08E819F81FC01208131814281D5
:104F8800538188859985AA85BB85820F931FA41FA5
:104F9800B51F2E813F81F90180839183A283B3835A
:104FA80081E0898389812B96CDBFDEBFDF91CF91C8
:024FB80008955A
:104FBA001F920F920FB60F9211240BB60F922F93D6
:104FCA003F934F935F936F937F938F939F93AF9387
:104FDA00BF93EF93FF93CF93DF93CDB7DEB780E212
:104FEA0098E0FC018481882F90E08074992721E061
:104FFA00892B09F420E02093734E8091544E9091AE
:10500A00554E892B31F08091544E9091554EFC01AA
:10501A00099580E298E020E238E0F90124812064D1
:10502A00FC0124830000DF91CF91FF91EF91BF91A2
:10503A00AF919F918F917F916F915F914F913F9126
:10504A002F910F900BBE0F900FBE0F901F901895C7
:10505A00CF93DF93CDB7DEB72697CDBFDEBF8B8365
:10506A009C836D837E832B813C818D819E81820FFF
:10507A00931F01972D813E81B9010E94CF38CB0140
:10508A0089839A8329813A818B819C81289FF001A7
:10509A00299FF00D389FF00D11248D819E819C016E
:1050AA0040E050E089819A81CC01A0E0B0E0BC01E7
:1050BA00CD010E942B3A9B01AC0189819A8101970B
:1050CA00CC01A0E0B0E0BC01CD010E942B3ADC018A
:1050DA00CB01B695A795979587959F01281B390B04
:0E50EA00C9012696CDBFDEBFDF91CF9108959C
:1050F8000F931F93CF93DF93CDB7DEB72B97CDBF19
:10510800DEBF8A839B836C837D834E835F8328877E
:1051180039870A871B8719820E94BC36982F81E03D
:105128008927882351F181E08093854D8A819B816D
:105138008093864D9093874D81E08093904D8C812C
:105148009D818093884D9093894D8E819F81809316
:105158008A4D90938B4D8885998580938C4D90933B
:105168008D4D8A859B8580938E4D90938F4D10929F
:10517800914D0E94C93A81E0898389812B96CDBFE0
:0C518800DEBFDF91CF911F910F910895C1
:10519400CF93DF93CDB7DEB72C97CDBFDEBF698742
:1051A4007A878B879C8789859A85AB85BC85BC016A
:1051B400CD010E941421882F90E0A0E0B0E0059674
:1051C400A11DB11D89839A83AB83BC8389819A8194
:1051D400AB81BC819C01AD0160E472E48FE090E09E
:1051E4000E942B3ADC01CB0120EC3DE540E050E08D
:1051F400BC01CD010E94AE35DA01C9018D839E83C5
:10520400AF83B8878D819E81AF81B8850097A14017
:10521400B10518F48D819E8102C08FEF9FEF2C960B
:0A522400CDBFDEBFDF91CF910895EA
:10522E00CF93DF93CDB7DEB72A97CDBFDEBF8F8387
:10523E00988769877A878F81988589839A8329854C
:10524E003A858F8198858217930778F529853A8557
:10525E008F819885A901481B590BCA01CC01A0E08A
:10526E00B0E08B839C83AD83BE830E9425389C0166
:10527E0040E050E08B819C81AD81BE81BC01CD01AF
:10528E000E942B3ADC01CB012FEF3FE040E050E0D3
:10529E00BC01CD010E94AE35DA01C9019C018F819E
:1052AE009885820F931F89839A8389819A812A9682
:0A52BE00CDBFDEBFDF91CF91089550
:1052C800EF92FF920F931F93CF93DF9300D000D0FC
:1052D800CDB7DEB70E948B35DC01CB0189839A8379
:1052E800AB83BC8390917F4E81E08927882349F165
:1052F8008091F64D9091F74DA091F84DB091F94DF0
:1053080029813A814B815C8179018A01E81AF90A7D
:105318000A0B1B0BD801C7010597A105B10588F039
:1053280089819A81AB81BC818093F64D9093F74D2A
:10533800A093F84DB093F94D81E080937F4E0E9481
:10534800E83900002496CDBFDEBFDF91CF911F91D1
:085358000F91FF90EF90089502
:105360000F931F93CF93DF93DB01109719F48FEF07
:105370009FEF3DC02D913C91119730FF25C01696AF
:105380004D915C91179714962D913C91159742176A
:10539000530778F41296ED91FC911397808312963F
:1053A0002D913C9113972F5F3F4F12962D933C9375
:1053B000139716962D913C9117972F5F3F4F169696
:1053C0002D933C93179713C01C96ED91FC911D975C
:1053D000309769F2EB01092F182F0995892B39F6BF
:1053E0008E819F8101968E839F83812F902FDF91E5
:0853F000CF911F910F91089568
:1053F800CF93DF93CDB7DEB72997CDBFDEBF8C83C0
:105408009D836E837F83488729878E819F81992317
:1054180084F18E819F81803491055CF58E819F8116
:105428009695879596958795969587958A838E8183
:105438009F819C01277081E090E002C0880F991F2E
:105448002A95E2F78B83198210C08981282F30E0D2
:105458008C819D81820F931F29854B81BC018A8194
:105468000E942E2089818F5F89839981888598176A
:1054780060F300002996CDBFDEBFDF91CF9108957C
:10548800A2E0B0E0EAE4FAE20C94F6365C016B01C3
:10549800FB01228133818480958080819181898379
:1054A8009A836680778037FD03C08D7F89839A83CE
:1054B800FA014081518162817381CE0101967C019C
:1054C8000AE010E09401C6010E94C42409811A81EF
:1054D800F6014085518541505109481B590BB301CC
:1054E800680F791F9401C5010E943A2F9C01F501AC
:1054F8008081918190FF06C0F60182819381821795
:0E55080093070CF4C9012296EEE00C9487374D
:10551600CF93DF9300D0CDB7DEB767E081E00E947E
:10552600392721E040E868E070E080E090E00E94E2
:10553600FC29198228C01A8220C08981882F90E010
:105546008250924BFC018081282F30E08A81482FBF
:1055560050E081E090E002C0880F991F4A95E2F77B
:10556600992782239323892B29F041E06A81898137
:105576000E9468358A818F5F8A838A818830E8F243
:1055860089818F5F898389818330A8F21092604E6A
:0C55960000000F900F90DF91CF9108955E
:1055A200CF92DF92EF92FF920F931F93CF93DF93ED
:1055B200CDB7DEB72E97CDBFDEBF69837A838B83EB
:1055C2009C834D835E832F83388709871A87EB86F6
:1055D200FC86CD86DE8689819A81AB81BC81BC0145
:1055E200CD010E94291B29853A858D859E857901E9
:1055F200E80EF91EED85FE852B853C8549855A8589
:105602006F8178858D819E818F010E947C28B701F0
:105612000E94E32F2E96CDBFDEBFDF91CF911F9167
:0C5622000F91FF90EF90DF90CF90089563
:10562E001F920F920FB60F9211240BB60F922F935B
:10563E003F934F935F936F937F938F939F93AF930C
:10564E00BF93EF93FF93CF93DF93CDB7DEB780E099
:10565E0099E0FC018581882F90E08C719927892B28
:10566E0019F00E94BA1F0CC080E099E0FC01858100
:10567E00882F90E0807E9927892B11F00E949B370E
:10568E000000DF91CF91FF91EF91BF91AF919F916C
:10569E008F917F916F915F914F913F912F910F90CD
:0C56AE000BBE0F900FBE0F901F901895C0
:1056BA00CF93DF93CDB7DEB72997CDBFDEBF6B831C
:1056CA007C838D839E834F835887298719828F8194
:1056DA009885892B51F188E08A8322C0998189852E
:1056EA00981710F58A81282F30E08B819C81AD8133
:1056FA00BE81A901BC01CD010E944D2E882369F00B
:10570A008981882F90E02F813885820F931F2A8103
:10571A00FC01208389818F5F89838A818F5F8A83D5
:10572A008A818837D8F201C0000089812996CDBFC5
:08573A00DEBFDF91CF9108955D
:10574200CF93DF93CDB7DEB72A97CDBFDEBF6F838E
:10575200788789879A878F819885A985BA85BC01C0
:10576200CD010E94C52EDC01CB018B839C83AD83CE
:10577200BE838B819C81AD81BE81813A9648A140D6
:10578200B10528F48CE592E189839A8312C08B815A
:105792009C81AD81BE8181389A41A640B10528F431
:1057A20084E195E089839A8304C084EF91E0898340
:1057B2009A8389819A812A96CDBFDEBFDF91CF91EC
:0257C200089548
:1057C400CF93DF93CDB7DEB72797CDBFDEBF8A83F4
:1057D4009B836C837D834E835F8319820E94BC36D6
:1057E400982F81E08927882329F181E08093854DD2
:1057F4008A819B818093864D9093874D1092904D22
:105804008C819D818093884D9093894D8E819F8159
:1058140080938A4D90938B4D10928C4D10928D4DA8
:1058240010928E4D10928F4D1092914D0E94C93A54
:1058340081E0898389812796CDBFDEBFDF91CF9137
:025844000895C5
:10584600CF93DF930F92CDB7DEB719822FC0898130
:10585600282F30E0C901880F991F880F991F820FE2
:10586600931F8658924BFC0110828981282F30E0C5
:10587600C901880F991F880F991F820F931F8A5895
:10588600924BFC01108211828981282F30E0C901D8
:10589600880F991F880F991F820F931F8858924B64
:1058A600FC011082118289818F5F8983898183300F
:0C58B60070F200000F90DF91CF91089578
:1058C2001F920F920FB60F9211240BB60F922F93C5
:1058D2003F934F935F936F937F938F939F93AF9376
:1058E200BF93EF93FF93CF93DF93CDB7DEB780E003
:1058F20096E021E0FC0125878091384E9091394E47
:10590200892B31F08091384E9091394EFC010995E6
:105912000000DF91CF91FF91EF91BF91AF919F91E5
:105922008F917F916F915F914F913F912F910F9046
:0C5932000BBE0F900FBE0F901F90189539
:10593E001F920F920FB60F9211240BB60F922F9348
:10594E003F934F935F936F937F938F939F93AF93F9
:10595E00BF93EF93FF93CF93DF93CDB7DEB780E086
:10596E0096E022E0FC01258780913A4E90913B4EC5
:10597E00892B31F080913A4E90913B4EFC01099566
:10598E000000DF91CF91FF91EF91BF91AF919F9169
:10599E008F917F916F915F914F913F912F910F90CA
:0C59AE000BBE0F900FBE0F901F901895BD
:1059BA001F920F920FB60F9211240BB60F922F93CC
:1059CA003F934F935F936F937F938F939F93AF937D
:1059DA00BF93EF93FF93CF93DF93CDB7DEB78CE0FE
:1059EA0090E0FC018381882334F480913E4E9091AB
:1059FA003F4EFC0109958CE090E02FEFFC012383D8
:105A0A000000DF91CF91FF91EF91BF91AF919F91EC
:105A1A008F917F916F915F914F913F912F910F904D
:0C5A2A000BBE0F900FBE0F901F90189540
:105A36001F920F920FB60F9211240BB60F922F934F
:105A46003F934F935F936F937F938F939F93AF9300
