:100000000C94A7000C94DD210C94DD210C94DD21CF
:100010000C94DD210C94DD210C94701C0C94D616EC
:100020000C94DD210C94DD210C94DD210C94DD2158
:100030000C94DD210C94DD210C94DD210C94DD2148
:100040000C94DD210C94C7150C94DD210C94DD215A
:100050000C94DD210C94DD210C94B81C0C94DD2152
:100060000C94DD210C94DD210C94DD210C94DD2118
:100070000C94DD210C94260D0C94DD210C94EC19CC
:100080000C941F1A0C9405140C94001D0C94DD2183
:100090000C94DD210C94DD210C94DD210C94DD21E8
:1000A0000C94DD210C94DD210C94DD210C94DD21D8
:1000B0000C94941C0C94DC1C0C94DD210C94DD211C
:1000C0000C94DD210C94DD210C94DD210C94DD21B8
:1000D0000C94DD210C94DD210C94DD210C94DD21A8
:1000E0000C94DD210C94DD21400044078044074836
:1000F000130043C848134833804833486C0047D442
:10010000486C487C80487C488C00480D488C48A24C
:100110008048A248AF00481D48AF48EA8048EA48F6
:10012000EC00482A48EC48EE8048EE48F000482CA5
:1001300048F048F88048F848F900482E48F948FF48
:100140008048FF490000482F4900490180001124E0
:100150001FBECFEFCDBFDFE7DEBFE8EEF0E041E04E
:1001600019C0B791A79137912791079107FD0EC04C
:1001700097918791EF01F92FE82F0BBF07900D9210
:10018000A217B307D9F7FE011BBE04C01D92A21728
:10019000B307E1F7ED34F40721F70E94CF040C9484
:0601A0002921F894FFCFB5
:1001A600EF92FF920F931F93CF93DF93CDB7DEB7F6
:1001B6002C97CDBFDEBF0E94471DDC01CB01898392
:1001C6009A83AB83BC838091AF489091B048A0914D
:1001D600B148B091B24829813A814B815C8179015D
:1001E6008A01E81AF90A0A0B1B0BD801C7014997BD
:1001F600A105B10508F4C7C189819A81AB81BC818B
:100206008093AF489093B048A093B148B093B2485A
:100216008091CA489091CB4801968093CA489093A2
:10022600CB488091B3489091B448A091B548B0911D
:10023600B64829813A814B815C8179018A01E81AA5
:10024600F90A0A0B1B0BD801C701883E9340A1058A
:10025600B105C0F08091CA489091CB488093CC48B4
:100266009093CD481092CA481092CB4889819A81C2
:10027600AB81BC818093B3489093B448A093B548B2
:10028600B093B6480E9413218D839E830E94CC1D95
:100296008F830E94482188870E945121898767E0C1
:1002A60081E00E94611321E040E869E070E080E0AF
:1002B60090E00E94D01B40E857E46CE070E080E0DC
:1002C60090E00E94A10C8A879B878A859B8504966D
:1002D6004D815E8124E06CE070E00E943E088A87D2
:1002E6009B878F81482F50E08A859B85089623E05F
:1002F6006CE070E00E943E088A879B878A859B8512
:1003060048E857E46CE070E00E94A10C01E029E0A7
:100316004CE766E170E082E090E00E942D118D814D
:100326009E819C0140E050E088E790E0DC010E945D
:100336001E21DC01CB012FEF3FE040E050E0BC0185
:10034600CD010E946A1DDA01C9018C878C8588233C
:1003560049F001E025E04C8568E170E084E090E03A
:100366000E944A1B44E857E462E270E080E090E0B5
:100376000E94A10C8885882F90E08072992721E041
:10038600892B09F420E0422F6AE488E190E00E947C
:1003960002188885882F90E08074992721E0892BA0
:1003A60009F420E0422F63E588E290E00E940218FB
:1003B6008885881F8827881F482F62E588E390E094
:1003C6000E9402184AE857E462E270E08CE490E08A
:1003D6000E94A10C8A879B878A859B85498562E254
:1003E60070E00E94521A4EE857E46EE270E080E038
:1003F60090E00E94A10C8A879B870E945A2188233D
:1004060019F08BE997E402C08EE997E42A853B85CB
:10041600AC016EE270E0C9010E94A10C41EA57E40A
:1004260068E370E080E090E00E94A10C8A879B87D9
:100436004091CC485091CD488A859B85049622E010
:1004460068E370E00E943E088A879B878A859B85C1
:10045600089645EA57E468E370E00E94A10C8A8793
:100466009B870E94471DDC01CB0128EE33E040E06C
:1004760050E0BC01CD010E946A1DDA01C901AC0140
:100486008A859B85049624E068E370E00E943E0816
:100496008A879B878A859B8548EA57E468E370E0EC
:1004A6000E94A10C0E9402098091EE489885981737
:1004B60031F48091EF489F81981709F465C08885CB
:1004C6008093EE488F818093EF480091CC4810913D
:1004D600CD480E945A21882319F06BE977E402C0BF
:1004E6006EE977E48985A82FB0E0888588231CF417
:1004F6004AE250E002C04EE250E08885882F90E044
:1005060080749927892B19F02AE230E002C02EE286
:1005160030E08885882F90E080729927892B19F022
:100526008AE290E002C08EE290E0EF81EE2FF0E0EA
:10053600F12EFF92102F1F93172F1F936F936B2F80
:100546006F936A2F6F93652F6F934F93432F4F933C
:100556002F93292F2F938F938F2F8F938E2F8F93D8
:100566008E818F938D818F938AEA97E4892F8F935B
:100576008AEA97E48F930E948F1E8DB79EB74296A4
:10058600CDBFDEBF01C000002C96CDBFDEBFDF9120
:0C059600CF911F910F91FF90EF900895FE
:1005A200AEE0B0E0E7EDF2E00C94791E4C016B0195
:1005B20019821A828FEF9FEF8B839C831D821E828A
:1005C2004F83588729873A87A12CB12CD6016D9089
:1005D2007C90F301EA0DFB1D808181110FC0D601D1
:1005E200ED93FC938081853209F0D3C13F01BFEFC7
:1005F2006B1A7B0AF6016082718219C0853279F327
:10060200B401082E000C990B0E94A3144FEFA41AF8
:10061200B40ADCCF8C32ACF08D32F9F489819A8144
:10062200816089839A833196D601ED93FC93D6013A
:10063200ED91FC9180818B3269F789819A81846086
:10064200F0CF803221F489819A818860EACF8332A7
:1006520051F489819A818061E4CF803321F48981C8
:100662009A818260DECFB701C6010E94781B8D831A
:100672009E8397FF0BC029813A81B1E02B27298302
:100682003A839195819591098D839E8389819A817F
:1006920080FF03C08D7F89839A83D601ED91FC91FF
:1006A200119780818E3249F43196ED93FC93B70114
:1006B200C6010E94781B8B839C83C6010E94AC1DDD
:1006C200582ED601ED91FC918081082E000C990BD9
:1006D2000E94D021893609F443C084F4833609F498
:1006E20002C134F4853209F427C18136E1F030C108
:1006F2008436B1F188360CF4D9C02AC1803709F4A6
:100702009AC03CF48E3609F4BCC08F3609F461C03D
:100712001FC1853709F440C0883709F476C0833792
:1007220009F016C1F3C0652D70E0A701CE010B964A
:100732000E940000892B09F426C1D601ED91FC919B
:100742001197CF0101968D939C932081AE01455F55
:100752005F4FBE016F5F7F4FC4010E94000010C156
:10076200652D70E0970141E050E0CE010B960E94AA
:10077200C510892B09F407C1F60180819181019688
:1007820080839183AE01455F5F4FBE016F5F7F4FF4
:10079200C4010E940E0FF4C0652D70E0970140E085
:1007A20050E0CE010B960E94C510892B09F4EBC0D4
:1007B200D6018D919C91119701968D939C93AE01D8
:1007C200455F5F4FBE016F5F7F4FC4010E943A15C4
:1007D200D7C0652D70E0970140E050E0CE010B9646
:1007E2000E94C510892B09F4CEC0F6018081918147
:1007F200019680839183AE01455F5F4FBE016F5FBB
:100802007F4FC4010E94B412BBC0652D70E09701F6
:1008120040E050E0CE010B960E94C510892B09F4EE
:10082200B2C0D601ED91FC911197CF0101968D9343
:100832009C9320811CC0970140E050E060EF70E083
:10084200CE010B960E94C510892B09F49CC0F601BB
:10085200808191810196808391838B859C85892BF0
:1008620029F420E030E049EA58E484C028E7AE01E8
:10087200455F5F4FBE016F5F7F4FC4010E9450070B
:100882007FC0A501400F511F652D70E09701CE0179
:100892000B960E940000892B09F475C0D6018D9138
:1008A2009C91119701968D939C9373C0652D70E076
:1008B200A701CE010B960E940000892B09F463C0A8
:1008C200D601ED91FC911197CF0101968D939C93E6
:1008D2002081AE01455F5F4FBE016F5F7F4FC40154
:1008E2000E9400004DC0B0E85B124DC0F60180814D
:1008F2009181019680839183D701ED91FC911197AB
:10090200CF0102968D939C93808120C0B0E85B1248
:100912003AC0F60180819181019680839183D7014B
:10092200ED91FC911197CF0102968D939C9340819A
:10093200518120E030E01EC0B0E85B1224C0F60115
:10094200208131812F5F3F4F208331838B870DC000
:1009520085E28B87D6016D927C9219821A821D8262
:100962001E828FEF9FEF8B839C8321E030E0AE01EC
:10097200455F5F4FBE016F5F7F4FC4010E94FA1B4C
:100982008A0D9B1D07C0F6018081918101968083AB
:0C0992009183C5012E96EFE00C94C21E6C
:10099E000F931F93CF93DF93CDB7DEB76097CDBF85
:1009AE00DEBF0E94A01F0E94B41F87E094E40E9445
:1009BE0075211F928DE38F9389E08F931F928FE1A4
:1009CE0094E4892F8F938FE194E48F930E948F1E6E
:1009DE000F900F900F900F900F900F908EE394E466
:1009EE000E9475210E943A20882319F08AE594E42A
:1009FE0002C080E694E4292F2F938F9382E794E42C
:100A0E00892F8F9382E794E48F930E948F1E0F900D
:100A1E000F900F900F9089E994E40E9475210E9427
:100A2E00EF140E941321292F2F938F9385EC94E4BA
:100A3E00892F8F9385EC94E48F930E948F1E0F90D5
:100A4E000F900F900F90CE01099628E0AC0160EA4E
:100A5E0076E881E090E00E9451168A838A81882F81
:100A6E0090E0292F2F938F938FEE94E4892F8F93FD
:100A7E008FEE94E48F930E948F1E0F900F900F9025
:100A8E000F9019821FC08981882F90E09E01275FE9
:100A9E003F4F820F931FFC018081882F90E0292FFA
:100AAE002F938F9381E195E4892F8F9381E195E4C4
:100ABE008F930E948F1E0F900F900F900F90898131
:100ACE008F5F898399818A819817E8F28A818823BA
:100ADE0059F489E195E4892F8F9389E195E48F93F9
:100AEE000E948F1E0F900F908BE495E40E9475214B
:100AFE000E94250E8B838B81882319F08DE495E45B
:100B0E0002C080E595E4292F2F938F931F928DE3DA
:100B1E008F9387E595E4892F8F9387E595E48F93DF
:100B2E000E948F1E0F900F900F900F900F900F90AE
:100B3E009B8181E089278823F1F00E946C21082F88
:100B4E0010E00E946321882F90E0212F2F93202FF9
:100B5E002F93292F2F938F9382E795E4892F8F93CD
:100B6E0082E795E48F930E948F1E0F900F900F9047
:100B7E000F900F900F908BE495E40E9475210E94C8
:100B8E00900B8C838C81882319F08DE495E402C040
:100B9E0080E995E4292F2F938F931F9284E28F93F0
:100BAE008CE995E4892F8F938CE995E48F930E94BD
:100BBE008F1E0F900F900F900F900F900F9089ED4A
:100BCE0095E40E9475218B81882319F00E940D13E4
:100BDE0004C08DE096E40E9475210E94471DDC0141
:100BEE00CB018D839E83AF83B8870E945B0A0E94E0
:100BFE001A0C8B81882311F00E94D300CE0105962A
:100C0E0044EF51E060E070E00E94B413882369F372
:0C0C1E0087E494E020E4FC012083E7CF91
:100C2A00CF93DF93CDB7DEB780E094E0FC01148266
:100C3A0080E294E0FC01148280E494E021E0FC016B
:100C4A00248380E694E0FC01148280E894E0FC01AD
:100C5A00148280EA94E0FC01148280E094E0FC01B2
:100C6A00108280E294E0FC01108280E494E021E4A6
:100C7A00FC01208380E694E0FC01108280E894E085
:100C8A00FC01108280EA94E0FC01108280E094E08A
:100C9A00FC01108A80E094E0FC01118A80E094E073
:100CAA00FC01128A80E094E0FC01138A80E094E05F
:100CBA00FC01148A80E094E0FC01158A80E094E04B
:100CCA00FC01168A80E094E0FC01178A80E294E035
:100CDA00FC01108A80E294E0FC01118A80E294E02F
:100CEA00FC01128A80E294E0FC01138A80E294E01B
:100CFA00FC01148A80E294E0FC01158A80E294E007
:100D0A00FC01168A80E294E0FC01178A80E494E0F0
:100D1A00FC01108A80E494E0FC01118A80E494E0EA
:100D2A00FC01128A80E494E0FC01138A80E494E0D6
:100D3A00FC01148A80E494E0FC01158A80E494E0C2
:100D4A00FC01168A80E494E0FC01178A80E694E0AC
:100D5A00FC01108A80E694E0FC01118A80E694E0A6
:100D6A00FC01128A80E694E0FC01138A80E694E092
:100D7A00FC01148A80E694E0FC01158A80E694E07E
:100D8A00FC01168A80E694E0FC01178A80E894E068
:100D9A00FC01108A80E894E0FC01118A80E894E062
:100DAA00FC01128A80E894E0FC01138A80E894E04E
:100DBA00FC01148A80E894E0FC01158A80E894E03A
:100DCA00FC01168A80E894E0FC01178A80EA94E024
:100DDA00FC01108A80EA94E0FC01118A80EA94E01E
:100DEA00FC01128A80EA94E0FC01138A80EA94E00A
:100DFA00FC01148A80EA94E0FC01158A80EA94E0F6
:100E0A00FC01168A80EA94E0FC01178A80EE95E0DC
:100E1A00FC01118680EE95E0FC01118280EE95E0DE
:100E2A00FC01108280EE95E0FC01148280EE95E0D0
:100E3A00FC01168280EE95E0FC01178280EE95E0B7
:100E4A00FC01108680EE95E022E0FC01258380EE0D
:100E5A0095E0FC01128280EE95E0FC01138280EE9F
:100E6A0095E0FC01128680E991E20E94C81F88E998
:100E7A0091E20E94DB1F80EA91E20E94EE1F88EA5B
:100E8A0091E20E94012080EB91E20E94142000006E
:060E9A00DF91CF910895E5
:100EA000AFE0B0E0E6E5F7E00C94761E1C016B01C4
:100EB00049835A832B83FB018281938184809580AF
:100EC00000811181A680B78097FD02C00D7F02C00E
:100ED00081E090E0E981FA814080518062807380F6
:100EE0009801207133272C833D83740104FF08C0CF
:100EF000411451046104710419F032E0E31AF1085D
:100F0000F801E870FF27EE83FF8303FF03C0F1E0E1
:100F1000EF1AF108F6010084F185E02D3197EE8794
:100F2000FF87EA0DFB1D10829C012E193F092887BF
:100F30003987C801827099278A879B87EB818E2F1A
:100F4000EE0F990B9C01215431092C873D872E858A
:100F50003F852230310530F48C819D81892B09F049
:100F600042C05CC0411451046104710461F18E857A
:100F70009F8501978E879F87C2018F7099278A303E
:100F8000910514F4C09602C0895A9F4FEC85FD85E7
:100F90007A9748F49C012062215631092A313105A3
:100FA00010F40E948721EE85FF85EA0DFB1D8083EA
:100FB000F1E0EF1AF10884E076946794579447942F
:100FC0008A95D1F7C4CF888599858E0D9F1D1816F7
:100FD00019066CF21E141F040CF0BECFEA85FB85C7
:100FE000EF2B29F6B9CFE981FA8180819181A28125
:100FF000B381892B8A2B8B2B89F0EE85FF85EA0D37
:10100000FB1D31972B8120838E859F8502978E87CC
:101010009F87FC01EA0DFB1D80E38083EE81FF8149
:10102000EF2B59F02E853F85215031092E873F87C0
:10103000F901EA0DFB1D80E28083F60140855185B0
:10104000415051092E853F85421B530BB9016A0D52
:101050007B1D9401C1010E94C9179C01F10180818F
:10106000918190FF06C0F6018281938182179307D8
:0C1070000CF4C9012F96E2E10C94BF1EA5
:10107C00CF93DF93CDB7DEB76097CDBFDEBF8A8746
:10108C009B876C877D874E875F87288B1982898128
:10109C00E82FF0E04E855F859A01ADECBCEC0E9428
:1010AC00D020969587959695879596958795880FD8
:1010BC00991F9C01220F331F220F331F820F931F86
:1010CC009A01281B390BC90120E3280FCE01049685
:1010DC008E0F9F1FFC0120838E859F859C01ADEC9C
:1010EC00BCEC0E94D0209695879596958795969501
:1010FC0087958E879F8789818F5F89838E859F8552
:10110C00892B91F08981853010F20EC08981882F4E
:10111C0090E09E012C5F3F4F820F931F20E3FC0158
:10112C00208389818F5F898399818889981718F426
:10113C008981853058F31A823EC08A81882F90E0CD
:10114C009E012C5F3F4F820F931FFC0180818B838C
:10115C008A81882F90E02981422F50E02A81222F0A
:10116C0030E0BA01621B730B9B0121503109AE01B7
:10117C004C5F5F4F240F351FF90140819E012C5F9E
:10118C003F4F820F931FFC0140838981282F30E051
:10119C008A81882F90E0A901481B590BCA0101973D
:1011AC009E012C5F3F4F820F931F2B81FC012083EC
:1011BC008A818F5F8A838981982F96958A81891776
:1011CC0008F4BBCF8981882F90E09E012C5F3F4FA4
:1011DC00820F931FFC011082AE014C5F5F4F2C8578
:1011EC003D858A859B85B9010E94A10C6096CDBF77
:0811FC00DEBFDF91CF910895E1
:101204000F931F93CF93DF93CDB7DEB72897CDBF4E
:10121400DEBF198281E08A839CC08091FE48282F1A
:1012240030E08981482F50E081E090E002C0880FCF
:10123400991F4A95E2F7992782239323892B21F456
:1012440089818F5F898385C089818B8303C08B816A
:101254008F5F8B838B81882F90E001960897B0F481
:101264008091FE48282F30E08B81882F90E0AC01DC
:101274004F5F5F4F81E090E002C0880F991F4A954D
:10128400E2F7992782239323892B09F76B818981BC
:101294000E94A61B882309F44DC08B81282F30E0BF
:1012A4008981882F90E0A901481B590BCA01019636
:1012B4009695982F8827979587958C839D83898108
:1012C400882F90E09695982F8827979587958A5F21
:1012D4009F4B8E839F838E819F81FC0180818887B1
:1012E4008E819F8120E4FC0120838C819D819C015F
:1012F4002F5F3F4F8E819F8189019C014DE350E018
:1013040060EA76E881E090E00E94B919882331F020
:101314008A81882319F081E090E002C080E090E0A7
:101324008A838A8181708A838E819F812885FC01CA
:10133400208301C01A826B8189810E94241C982F0A
:1013440090958091FE4889238093FE488B818F5F1E
:1013540089838981883008F460CF8A812896CDBF3B
:0C136400DEBFDF91CF911F910F91089523
:10137000CF93DF9300D0CDB7DEB78091F548882FAB
:1013800090E0880F991F8459974BFC0110821182BD
:1013900080E298E0FC018181882F90E08470992799
:1013A000892BC9F08091F548882F90E0880F991F0C
:1013B0008459974BFC0120812260FC01208380919D
:1013C000DE489091DF48892B31F08091DE48909182
:1013D000DF48FC01099580E298E0FC018181882FBB
:1013E00090E082709927892B89F08091DC48816098
:1013F0008093DC488091E2489091E348892B31F05A
:101400008091E2489091E348FC01099580E298E0E0
:10141000FC018181882F90E080749927892BC9F085
:101420008091F548882F90E0880F991F8459974B39
:10143000FC0120812460FC0120838091E048909190
:10144000E148892B31F08091E0489091E148FC011E
:10145000099580E298E0FC01808189838091F548BC
:101460008F5F87708A838091F6489A81981789F0F8
:101470008091F548882F90E08656974B2981FC0192
:1014800020838A818093F5488091F7488F5F80930D
:10149000F7488091E6489091E748892B31F0809198
:1014A000E6489091E748FC01099500000F900F90E5
:0614B000DF91CF910895C9
:1014B600EF92FF920F931F93CF93DF93CDB7DEB7D3
:1014C6002A97CDBFDEBF0E94471DDC01CB01898371
:1014D6009A83AB83BC838091BB489091BC48A09112
:1014E600BD48B091BE4829813A814B815C81790122
:1014F6008A01E81AF90A0A0B1B0BD801C7010597DE
:10150600A105B10508F46BC08FEF8A8789819A819E
:10151600AB81BC818093BB489093BC48A093BD48E7
:10152600B093BE48CE010A96BC0189E00E941A1B00
:10153600882309F452C08091F9488D8381E0809315
:10154600FD488A858093F8488A858095807E8E83BB
:101556008091FA48882F90E08953974B2E81FC01A1
:1015660020838091FA488F5F8093FA488091FA48E9
:10157600833010F01092FA489091C7488091C8487D
:1015860098238091C94889238F839091C748809179
:10159600C848982B8091C948892B88879091F9482B
:1015A600888598238F81892B8093F9489091F948F3
:1015B6008D81892789879091F9488985982380911B
:1015C600FB48892B8093FB4899858D8198238091D0
:1015D600FC48892B8093FC4802C01092FD4800000D
:1015E6002A96CDBFDEBFDF91CF911F910F91FF905D
:0415F600EF900895D5
:1015FA00CF93DF93CDB7DEB72997CDBFDEBF8D83FB
:10160A009E836F83788749878D819E8199230CF405
:10161A007BC08D819E81803891050CF075C08F81C9
:10162A00988599230CF470C08F8198858034910530
:10163A000CF06AC08F8198859695879596958795BF
:10164A009695879589838F8198859C01277081E07B
:10165A0090E002C0880F991F2A95E2F78A83898150
:10166A00882F90E09C013695322F222737952795AF
:10167A008D819E81820F931F8B839C838985882FFE
:10168A0090E0009719F0029789F01FC08B819C8126
:10169A00895F9F4B2B813C81295F3F4BF901308148
:1016AA002A8120952323FC0120831EC08B819C81E3
:1016BA00895F9F4B2B813C81295F3F4BF901308128
:1016CA002A812327FC0120830FC08B819C81895F9B
:1016DA009F4B2B813C81295F3F4BF90130812A8145
:1016EA00232BFC01208300008981282F30E081E030
:1016FA0090E002C0880F991F2A95E2F7982F8091EF
:10170A00FE48892B8093FE4800002996CDBFDEBF94
:06171A00DF91CF9108955C
:10172000CF93DF9300D00F92CDB7DEB760E085E0B6
:101730000E94241D89838981882349F06FEF80E00E
:101740000E94241D882319F081E090E002C080E00F
:1017500090E089838981817089838981882349F018
:1017600060E081E00E94241D882319F081E090E070
:1017700002C080E090E089838981817089838981BA
:10178000882349F060E086E00E94241D882319F038
:1017900081E090E002C080E090E0898389818170DF
:1017A000898389818093FD481092F9481092FB4803
:1017B0001092FC481092FA480E94471DDC01CB01B0
:1017C0008093BB489093BC48A093BD48B093BE485B
:1017D0008981882341F18FEF8B83CE010396BC0171
:1017E00089E00E941A1B8823D9F08B818093F848E6
:1017F0001A820DC08A81882F90E02B812095207E4F
:101800008953974BFC0120838A818F5F8A838A8169
:10181000833080F38B818095807E8093F94803C06C
:101820001092FD48198289812396CDBFDEBFDF91DA
:04183000CF910895B7
:10183400EF92FF920F931F93CF93DF93CDB7DEB751
:101844002897CDBFDEBF0E94471DDC01CB018983F1
:101854009A83AB83BC838091C3489091C448A09180
:10186400C548B091C64829813A814B815C81790190
:101874008A01E81AF90A0A0B1B0BD801C7010A9757
:10188400A105B10508F450C01F82188689819A8188
:10189400AB81BC818093C3489093C448A093C5484E
:1018A400B093C648CE0107960E94F9118823E1F14E
:1018B4008F8198859C018091E8489091E94889013D
:1018C400081B190BC8018D839E838D819E8195957C
:1018D4008795959587952091E8483091E948820F3E
:1018E400931F8093E8489093E9488D819E81181650
:1018F40019065CF48D819E8104973CF48F81988550
:101904008093E8489093E9480FC08D819E81992384
:101914005CF48D819E818D3F9F4F34F08F8198853B
:101924008093E8489093E94800002896CDBFDEBF35
:0E193400DF91CF911F910F91FF90EF900895DA
:10194200CF93DF93CDB7DEB72F97CDBFDEBF8A87A8
:101952009B876C877D874E875F878A859B85898376
:101962009A838E859F85892B09F467C08E859F8512
:101972008B839C835BC08B819C81FC0180810E9454
:101982008C1D282F30E0C901880F991F880F991FDD
:10199200820F931F8D5C994B8F8398871D8239C06C
:1019A2008D81882F90E02F813885820F931FFC0153
:1019B200808189871E8227C08985282F30E08E8109
:1019C200482F50E081E090E002C0880F991F4A95AD
:1019D200E2F7992782239323892B91F08E81282F76
:1019E20030E08C859D85B901680F791F8D81282F84
:1019F20030E089819A81820F931F41E00E94FD0AA3
:101A02008E818F5F8E838E818730B0F28D818F5F62
:101A12008D838D81853020F289819A810696898312
:101A22009A838B819C8101968B839C838B819C8181
:101A3200FC018081882309F09ECF89819A812F96AB
:0A1A4200CDBFDEBFDF91CF91089504
:101A4C001F920F920FB60F9211240BB60F922F9379
:101A5C003F934F935F936F937F938F939F93AF932A
:101A6C00BF93EF93FF93CF93DF93CDB7DEB788E0AF
:101A7C0090E0FC018381882F90E082709927892B5C
:101A8C0031F08091D0489091D148FC01099588E0C3
:101A9C0090E0FC018381882F90E081709927892B3D
:101AAC0031F08091D2489091D348FC01099588E09F
:101ABC0090E0FC018381882F90E088709927892B16
:101ACC0031F08091D4489091D548FC01099588E07B
:101ADC0090E0FC018381882F90E084709927892BFA
:101AEC0031F08091D6489091D748FC01099588E057
:101AFC0090E0FC018381882F90E080749927892BDA
:101B0C0031F08091D8489091D948FC01099588E032
:101B1C0090E02FEFFC0123830000DF91CF91FF9128
:101B2C00EF91BF91AF919F918F917F916F915F9149
:101B3C004F913F912F910F900BBE0F900FBE0F90B6
:041B4C001F90189539
:101B5000CF93DF93CDB7DEB72A97CDBFDEBF89879E
:101B60009A8788E592E0A0E0B0E089839A83AB830E
:101B7000BC838091B7489091B848A091B948B09182
:101B8000BA48892B8A2B8B2B09F453C089859A85F7
:101B90009C0140E050E0DA01C901880F991FAA1F9B
:101BA000BB1F880F991FAA1FBB1F880F991FAA1F51
:101BB000BB1F820F931FA41FB51F4296A11DB11D0D
:101BC0008D839E83AF83B8872D813E814F81588559
:101BD00088EE93E0DC010E941E21DC01CB01209104
:101BE000B7483091B8484091B9485091BA48BC01C3
:101BF000CD010E946A1DDA01C9010596A11DB11D22
:101C0000880F991FAA1FBB1F89839A83AB83BC834C
:101C100089819A81AB81BC8189359240A105B1054A
:101C200040F088E592E0A0E0B0E089839A83AB833E
:101C3000BC8389819A81AB81BC81BC01CD012A968C
:0A1C4000CDBFDEBFDF91CF91089504
:101C4A00CF93DF93CDB7DEB72597CDBFDEBF19821D
:101C5A001A821B8281E08C8380E4809306408FEF96
:101C6A008093FF48109200492AC089819A8187513E
:101C7A00984BFC0180818D8389819A8101968751D5
:101C8A00984B6D810E94E218982F81E0892788235A
:101C9A0049F08B818093FF480E943F21809300493D
:101CAA001C8215C08D81282F30E089819A81820F8C
:101CBA00931F019689839A838B818F5F8B83898196
:101CCA009A818751984BFC018081882371F68C8117
:101CDA00882389F00E944D200E940209982F81E0F2
:101CEA008927882341F080EF8093FF480E943F2193
:101CFA00809300491C828C81882381F08FEA0E949C
:101D0A00C120982F81E08927882341F081EF8093B1
:101D1A00FF480E943F21809300491C828C812596AE
:0A1D2A00CDBFDEBFDF91CF91089519
:101D3400CF93DF93CDB7DEB780E099E0FC018581D6
:101D4400882F90E084709927892B51F480E099E0E2
:101D5400FC018581882F90E088709927892B61F098
:101D640086E08093994883E08093984880E099E0E6
:101D74002CE0FC0125832DC080E099E0FC018781E3
:101D8400882389F080E099E0FC018581882F90E028
:101D940080719927892B39F085E08093994881E0F7
:101DA4008093984816C080E099E0FC0180858823E0
:101DB40081F080E099E0FC018581882F90E08071BA
:101DC4009927892B31F085E08093994882E08093AC
:101DD400984880919948882F90E0880F991F875BD5
:101DE400974BFC0180819181FC010995809399486E
:101DF40080919848882361F08091CE489091CF4893
:101E0400892B31F08091CE489091CF48FC010995FF
:081E14000000DF91CF91089559
:101E1C00A2E0B0E0E4E1FFE00C94761E3C016B0123
:101E2C00FB0122813381A480B580808191818983DB
:101E3C009A8386809780FA0120803180428053807B
:101E4C00B201A10157FE07C044275527BA01421918
:101E5C0053096409750937FD03C08D7F89839A8303
:101E6C00950157FC05C0898182FD02C083FF02C029
:101E7C0021503109CE0101967C010AE010E0C60127
:101E8C000E94941157FC03C0298122FF0AC00197BC
:101E9C00F401E80FF91F57FC02C02BE209C02DE238
:101EAC0007C023FF06C00197F401E80FF91F20E2D9
:101EBC00208309811A81F6014085518541505109D1
:101ECC00481B590BB401680F791F9501C3010E947F
:101EDC00C9179C01F3018081918190FF06C0F60126
:101EEC0082819381821793070CF4C9012296E2E157
:041EFC000C94BF1E65
:101F0000EF92FF920F931F93CF93DF93CDB7DEB77E
:101F10006197CDBFDEBF6E877F87888B998B1982D3
:101F20008E859F85A889B989892B8A2B8B2B09F4EB
:101F30004DC080E099E0ADE3B0E02E853F85488953
:101F40005989BC01CD010E946A1DDA01C9018A8349
:101F50009B83AC83BD838BE08E831F82188619869A
:101F60002A813B814C815D818E819F81A885B985C5
:101F700082179307A407B50748F52A813B814C8156
:101F80005D818E819F81A885B98579018A01E81AD2
:101F9000F90A0A0B1B0BD801C7010196A11DB11D3F
:101FA000B695A795979587958A879B87AC87BD87B8
:101FB0008A859B85AC85BD858F3F9105A105B105BF
:101FC00009F010F48A8501C08FEF898389816196B9
:101FD000CDBFDEBFDF91CF911F910F91FF90EF90AA
:021FE000089562
:101FE200CF93DF93CDB7DEB788EB99E080930240C1
:101FF2009093034089EE9AE18093004090930140D0
:1020020080E298E02AE830E0FC012087318780E214
:1020120098E020EDFC01258380E298E020ECFC01B1
:10202200268380E298E023E0FC01278380E298E0A7
:10203200FC01138680E298E0FC01148680E298E0BD
:10204200FC01168680E298E0FC01158688EB91E29D
:102052000E94051F80EC91E20E941C1F88EC91E215
:102062000E94331F1092DC481092DD481092F14812
:102072001092F24880E28093F34881E08093F44822
:102082001092F5481092F6481092F74880E298E0D4
:1020920020E238E0F90125812068FC012583809146
:1020A200EA489091EB482CE738E4FC012083318325
:0820B2000000DF91CF910895B9
:1020BA00CF93DF930F92CDB7DEB784E08983809107
:1020CA00954890919648019751F480E099E020E074
:1020DA0039E0F90124812460FC01248309C080E0ED
:1020EA0099E020E039E0F90124812B7FFC01248367
:1020FA00809195489091964801978093954890933E
:10210A009648892BC9F0809193489091944820E091
:10211A0039E0F9012085FC01208380919348909150
:10212A0094480196809393489093944882E00E9441
:10213A00EE1E84E089831FC0809193489091944851
:10214A0020E039E0F9012085FC0120838091934841
:10215A00909194480196809393489093944880E094
:10216A0099E020E039E0F90124812460FC0124830C
:10217A000E94ED20898389810F90DF91CF91089584
:10218A00CF93DF93DC01F90168387105F1F05CF453
:10219A006138710561F164387105A1F16038710522
:1021AA0009F051C02FC0603C710509F441C0603F7D
:1021BA007105F1F1603A710509F045C0C081D1811C
:1021CA00CE0102968083918325C0C081D181CE0140
:1021DA00029680839183452B39F04881042E000CA6
:1021EA00550B660B770B1CC0488150E029C0C08193
:1021FA00D181CE01049680839183488159816A8175
:10220A007B810EC0C081D181CE01029680839183E9
:10221A00452BA1F048815981052E000C660B770BDE
:10222A004D935D936D937C93139781E090E00DC07D
:10223A00C081D181CE0102968083918348815981E0
:10224A0060E070E0EDCF80E090E0DF91CF910895FB
:10225A000F93CF93DF93CDB7DEB72897CDBFDEBFFD
:10226A008A839B836C837D834E832F8308878E8129
:10227A00882309F44CC08F81882309F448C06C81F3
:10228A007D818A819B8128854E810E94D01B8F8106
:10229A00282F30E08C819D81820F931FBC016150F1
:1022AA0071098A819B8128854E810E94D01B81E019
:1022BA00898323C08981282F30E08C819D81280F52
:1022CA00391F8A819B814885B9010E94FD0A89814B
:1022DA00282F30E08C819D81B901680F791F8E818A
:1022EA00282F30E08A819B81820F931F01974885AE
:1022FA000E94FD0A89818F5F89838981282F30E0B6
:10230A008F81882F90E001972817390798F20000EB
:0E231A002896CDBFDEBFDF91CF910F910895C1
:10232800A0E0B0E0EAE9F1E10C94781EDC012801B4
:102338001696AD90BC901797F701808191811296FF
:10234800ED91FC9113971896CD91DC9119972197EF
:10235800F7FF02C0E1E0F0E0CA0DDB1D1882690159
:10236800A1E0B0E08F01021B130B4C01F2E08F22B9
:102378009924052C000C66087708CE018A199B0958
:10238800CA15DB0519F1411551056105710589F07B
:10239800CB01BA01A30192010E946A1DCA01A62FAE
:1023A800B72F605D6A9341E0C41AD108A901BC0146
:1023B800E4CF98012C0D3D1D121613064CF31C1486
:1023C8001D0434F48114910419F702C080E090E0F0
:1023D800AB2B31F4F701208131812F7E20833183AB
:0A23E800CDB7DEB7E0E10C94C11E92
:1023F200EF92FF920F931F93CF93DF93CDB7DEB788
:102402002797CDBFDEBF8E839F830E94471DDC01CD
:10241200CB018A839B83AC83BD83198280E096E0E3
:1024220021E0FC01228714C00E94471D9B01AC01E0
:102432008A819B81AC81BD8179018A01E81AF90AFE
:102442000A0B1B0BD801C7010597A105B10558F46A
:1024520080E096E0FC018585882F90E081709927C5
:10246200892B11F301C0000080E096E0FC01858514
:10247200882F90E081709927892B89F080E096E07F
:10248200FC01208931898E819F81FC012083318367
:1024920080E096E021E0FC01258781E08983898143
:1024A2002796CDBFDEBFDF91CF911F910F91FF9095
:0424B200EF9008950A
:1024B600CF93DF93CDB7DEB780E09AE0FC0110A69C
:1024C60011A680E09AE0FC0112A613A680E09AE02D
:1024D600FC0114A615A680E09AE0FC0110A211A248
:1024E60080E09AE0FC01118280E09AE0FC01128211
:1024F60080E09AE0FC01138280E09AE0FC011482FD
:1025060080E09AE0FC01158280E09AE0FC011682E8
:1025160080E09AE0FC01178280E09AE0FC011686D2
:1025260080E09AE0FC01118680E09AE021E0FC015F
:10253600228780E09AE0FC01138680E09AE02FE98A
:102546003FE0FC0126A337A380E09AE0FC01178652
:1025560080E09AE021E0FC0120830000DF91CF912A
:022566000895D6
:10256800A2E0B0E0EAEBF2E10C947A1E4C016B01B8
:10257800FB01228133816480758080819181898308
:102588009A83A680B78037FD03C08D7F89839A839D
:10259800FA014081518162817381CE0101967C01EB
:1025A80008E010E09301C6010E949411298124FFDC
:1025B80006C00197F501E80FF91F20E32083298160
:1025C80023FF06C00197F501E80FF91F20E22083D9
:1025D80009811A81F6014085518541505109481BEE
:1025E800590BB501680F791F9301C4010E94C917DF
:1025F8009C01F4018081918190FF06C0F6018281DF
:102608009381821793070CF4C9012296EEE00C948B
:02261800C31EDF
:10261A00CF93DF93CDB7DEB70E944D2063E777E40F
:10262A0080E090E00E94851A21E040E869E070E0CD
:10263A0080E090E00E94D01B40E857E46CE070E034
:10264A0080E090E00E94A10C44E857E462E270E066
:10265A0080E090E00E94A10C0E94471DDC01CB01A2
:10266A008093AF489093B048A093B148B093B248D2
:10267A008091AF489091B048A091B148B091B248CA
:10268A008093B3489093B448A093B548B093B648A2
:10269A001092CA481092CB481092CC481092CD485A
:1026AA008FEF8093EE488FEF8093EF480E940209E4
:0826BA000000DF91CF910895AB
:1026C200CF93DF9300D000D0CDB7DEB78B836C837E
:1026D2008B81883008F040C08C818830E8F59B817E
:1026E2008C818917C8F19C818B81292F281B822F0D
:1026F2008F5F8A838A81882F90E09C013695322FE2
:102702002227379527958B81882F90E09695982FD1
:10271200882797958795895F9F4BA90160E070E0B4
:102722000E947E218B81898313C08981282F30E00A
:1027320081E090E002C0880F991F2A95E2F7982F56
:102742008091FE48892B8093FE4889818F5F89831F
:1027520099818C81891748F700002496CDBFDEBF8E
:06276200DF91CF91089504
:10276800CF93DF93CDB7DEB72B97CDBFDEBF8E8378
:102778009F83488759876A877B8719828E819F81C3
:10278800892BC1F10E94471DDC01CB018A839B8301
:10279800AC83BD838E819F81FC0180819181A28160
:1027A800B3812A813B814C815D81281B390B4A0BFF
:1027B8005B0B88859985AA85BB85281739074A0741
:1027C8005B07C0F08E819F81FC01208131814281AD
:1027D800538188859985AA85BB85820F931FA41F7D
:1027E800B51F2E813F81F90180839183A283B38332
:1027F80081E0898389812B96CDBFDEBFDF91CF91A0
:02280800089531
:10280A001F920F920FB60F9211240BB60F922F93AD
:10281A003F934F935F936F937F938F939F93AF935E
:10282A00BF93EF93FF93CF93DF93CDB7DEB780E2E9
:10283A0098E0FC018481882F90E08074992721E038
:10284A00892B09F420E02093F4488091E448909180
:10285A00E548892B31F08091E4489091E548FC01E4
:10286A00099580E298E020E238E0F90124812064A9
:10287A00FC0124830000DF91CF91FF91EF91BF917A
:10288A00AF919F918F917F916F915F914F913F91FE
:10289A002F910F900BBE0F900FBE0F901F9018959F
:1028AA000F931F93CF93DF93CDB7DEB72B97CDBF8F
:1028BA00DEBF8A839B836C837D834E835F832887F5
:1028CA0039870A871B8719820E94401E982F81E048
:1028DA008927882351F181E080938C488A819B81E2
:1028EA0080938D4890938E4881E0809397488C819D
:1028FA009D8180938F48909390488E819F81809389
:10290A0091489093924888859985809393489093AB
:10291A0094488A859B85809395489093964810920F
:10292A0098480E94072181E0898389812B96CDBF2F
:0C293A00DEBFDF91CF911F910F91089537
:102946000F931F93CF93DF93DB01109719F48FEF4B
:102956009FEF3DC02D913C91119730FF25C01696F3
:102966004D915C91179714962D913C9115974217AE
:10297600530778F41296ED91FC9113978083129683
:102986002D913C9113972F5F3F4F12962D933C93B9
:10299600139716962D913C9117972F5F3F4F1696DA
:1029A6002D933C93179713C01C96ED91FC911D97A0
:1029B600309769F2EB01092F182F0995892B39F603
:1029C6008E819F8101968E839F83812F902FDF9129
:0829D600CF911F910F910895AC
:1029DE00CF93DF9300D0CDB7DEB719821A8280E68F
:1029EE0094E024E0FC01278B80EA90E025E0FC01D6
:1029FE00208380E096E021E0FC01228380E096E0D7
:102A0E00FC01118280E096E02EE0FC01258380E03F
:102A1E0096E027E0FC01208780E096E021E0FC01B3
:102A2E002083CE0101960E94F911CE0101960E94DB
:102A3E00F911882331F089819A818093E848909327
:102A4E00E9480E94471DDC01CB018093C348909357
:102A5E00C448A093C548B093C64800000F900F908D
:062A6E00DF91CF910895F5
:102A7400A2E0B0E0E0E4F5E10C947A1E5C016B01A5
:102A8400FB012281338184809580808191818983B7
:102A94009A836680778037FD03C08D7F89839A830C
:102AA400FA014081518162817381CE0101967C01DA
:102AB4000AE010E09401C6010E94941109811A8170
:102AC400F6014085518541505109481B590BB3010A
:102AD400680F791F9401C5010E94C9179C01F50173
:102AE4008081918190FF06C0F601828193818217D3
:0E2AF40093070CF4C9012296EEE00C94C31E69
:102B0200CF92DF92EF92FF920F931F93CF93DF93B7
:102B1200CDB7DEB72E97CDBFDEBF69837A838B83B5
:102B22009C834D835E832F83388709871A87EB86C0
:102B3200FC86CD86DE8689819A81AB81BC81BC010F
:102B4200CD010E940D1629853A858D859E857901D4
:102B5200E80EF91EED85FE852B853C8549855A8553
:102B62006F8178858D819E818F010E945514B701F6
:102B72000E9472182E96CDBFDEBFDF91CF911F91BA
:0C2B82000F91FF90EF90DF90CF9008952E
:102B8E001F920F920FB60F9211240BB60F922F9326
:102B9E003F934F935F936F937F938F939F93AF93D7
:102BAE00BF93EF93FF93CF93DF93CDB7DEB780E064
:102BBE0099E0FC018581882F90E08C719927892BF3
:102BCE0019F00E949A0E0CC080E099E0FC018581FC
:102BDE00882F90E0807E9927892B11F00E94D71EB6
:102BEE000000DF91CF91FF91EF91BF91AF919F9137
:102BFE008F917F916F915F914F913F912F910F9098
:0C2C0E000BBE0F900FBE0F901F9018958A
:102C1A000F931F93CF93DF9300D000D0CDB7DEB7C9
:102C2A0069837A838B839C838091B7489091B84853
:102C3A00A091B948B091BA4829813A814B815C8107
:102C4A00281739074A075B07F1F068E572E080E068
:102C5A0090E00E943A1800E019E089819A81AB81DC
:102C6A00BC81BC01CD010E94800FF8018683898155
:102C7A009A81AB81BC818093B7489093B848A0935E
:102C8A00B948B093BA4800002496CDBFDEBFDF91A1
:082C9A00CF911F910F910895E5
:102CA200CF93DF93CDB7DEB72997CDBFDEBF6B835E
:102CB2007C838D839E834F835887298719828F81D6
:102CC2009885892B51F188E08A8322C09981898570
:102CD200981710F58A81282F30E08B819C81AD8175
:102CE200BE81A901BC01CD010E945117882369F060
:102CF2008981882F90E02F813885820F931F2A8146
:102D0200FC01208389818F5F89838A818F5F8A8317
:102D12008A818837D8F201C0000089812996CDBF07
:082D2200DEBFDF91CF9108959F
:102D2A00CF93DF93CDB7DEB72797CDBFDEBF8A83B8
:102D3A009B836C837D834E835F8319820E94401E2E
:102D4A00982F81E08927882329F181E080938C4894
:102D5A008A819B8180938D4890938E4810929748E0
:102D6A008C819D8180938F48909390488E819F811A
:102D7A008093914890939248109293481092944865
:102D8A001092954810929648109298480E940721EE
:102D9A0081E0898389812796CDBFDEBFDF91CF91FC
:022DAA0008958A
:102DAC001F920F920FB60F9211240BB60F922F9306
:102DBC003F934F935F936F937F938F939F93AF93B7
:102DCC00BF93EF93FF93CF93DF93CDB7DEB7809193
:102DDC00DA489091DB48892B31F08091DA48909158
:102DEC00DB48FC01099580E09AE021E0FC01238797
:102DFC000000DF91CF91FF91EF91BF91AF919F9127
:102E0C008F917F916F915F914F913F912F910F9087
:0C2E1C000BBE0F900FBE0F901F9018957A
:102E2800CF93DF930F92CDB7DEB783E0898380918C
:102E3800914890919248892BF9F08091914890910E
:102E480092480197809391489093924880E099E046
:102E580020918F4830919048F9012081FC0120870A
:102E680080918F4890919048019680938F489093D5
:102E7800904883E089830CC080919748882329F083
:102E88001092974881E0898303C00E94ED208983CE
:0A2E980089810F90DF91CF9108951A
:102EA200CF93DF93CDB7DEB72797CDBFDEBF6A835F
:102EB2007B838C839D834E835F8319828A819B816E
:102EC200AC81BD81BC01CD010E940D168E819F8116
:102ED20041E050E09E012F5F3F4FB9010E949516DD
:102EE20061E070E00E9472188091F048813059F0E0
:102EF2008091F048803139F08091F048813119F0A9
:102F020081E090E002C080E090E081702796CDBF22
:082F1200DEBFDF91CF910895AD
:102F1A00CF93DF93CDB7DEB780E099E020E039E0C8
:102F2A00F90123812E7FFC01238380E099E0FC01D3
:102F3A00108280E099E0FC01128280E099E02EE0A4
:102F4A00FC01268380E099E0FC01178280E099E089
:102F5A00FC01108680E099E0FC01158280E099E08E
:102F6A00FC01148280E099E021ECFC01238380E0DB
:102F7A0099E021E0FC0125831092CE481092CF48B7
:082F8A000000DF91CF910895D2
:102F9200A0E0B0E0EFECF7E10C947C1E6C015B0169
:102FA2007A01E901480181E08822992400FD03C0E9
:102FB2004217530750F0A701B501C6010E94EB1D4D
:102FC200EC16FD0610F0C70117C08E010E191F097D
:102FD2000115110541F0B60180E290E00E94A314B0
:102FE20001501109F5CF8114910429F4A701B5010B
:102FF200C6010E94EB1DCE01CDB7DEB7ECE00C940A
:02300200C51EE9
:103004000F93CF93DF93CDB7DEB72697CDBFDEBF47
:103014008B839C836D834E838D8189831A828B81FC
:103024009C8101E029E04BE061E270E00E942D11F7
:103034008B819C8103969E012F5F3F4FA90162E221
:1030440070E00E94A10C8E81882351F08B819C81B9
:10305400019602E027E049E062E270E00E944A1B28
:1030640000002696CDBFDEBFDF91CF910F9108956A
:10307400CF93DF93CDB7DEB72997CDBFDEBF6E8385
:103084007F83888799870E94471DDC01CB018A834F
:103094009B83AC83BD8381E0898317C00E94471D55
:1030A4009B01AC018A819B81AC81BD81281B390BBA
:1030B4004A0B5B0B8E819F81A885B9852817390738
:1030C4004A075B0710F0198204C00E94401E88233F
:1030D40029F789812996CDBFDEBFDF91CF9108956D
:1030E400CF93DF9300D000D0CDB7DEB78A836B8354
:1030F4007C8319829A8181E08927882321F081E1E8
:103104008093F0481EC08B819C810E94A80DDC0135
:10311400CB01BC01CD010E943A18982F81E0892788
:10312400882321F080E18093F0480BC00E94942012
:103134008093F0489091F04881E0992309F080E071
:10314400898389812496CDBFDEBFDF91CF91089515
:10315400CF93DF9300D0CDB7DEB78A838091F34855
:103164008823F9F08091F148882F90E08D5E974B89
:103174002A81FC0120838091F1488F5F8F718983BC
:1031840089818093F14880E298E020E238E0F901F7
:1031940025812F7DFC0125838091F3488150809304
:1031A400F34880E298E020E238E0F90125812062CA
:1031B400FC01258300000F900F90DF91CF910895BB
:1031C4000F931F93CF93DF93CDB7DEB72C97CDBF6B
:1031D400DEBF8A879B876C8719828C858830F8F4D8
:1031E4001A828C85482F50E02A853B85CE010296B1
:1031F4000196B9010E9434218C85882F90E09C01AE
:103204002F5F3F4FCE01029689019C014DE350E0B0
:1032140060EA76E881E090E00E94B91989838981A7
:103224002C96CDBFDEBFDF91CF911F910F910895F2
:10323400CF93DF93CDB7DEB72697CDBFDEBF8D83A7
:103244009E8319828D819E81892B09F18D819E81B6
:10325400FC0180818823D9F08D819E818A839B83A0
:103264001C8208C08C818F5F8C838A819B8101962C
:103274008A839B838A819B81FC018081882391F7C7
:103284009C81892F880F890F880F815089838981B8
:0C3294002696CDBFDEBFDF91CF910895DC
:1032A000CF93DF93CDB7DEB760E080E690E00E9479
:1032B0004A1F60E081E690E00E944A1F60E082E6DB
:1032C00090E00E944A1F60E083E690E00E944A1F5F
:1032D0006CE088E690E00E944A1F60E089E690E09A
:1032E0000E944A1F60E088E790E00E944A1F60E069
:1032F00080E790E00E944A1F60E08CE790E00E9427
:0A3300004A1F0000DF91CF910895ED
:10330A00A2E8B0E0EBE8F9E10C947C1E5C014A010A
:10331A0069837A83C12CD12CE981FA81808188233F
:10332A00E9F07401860120E830E0AE014D5F5F4F9D
:10333A00BE016F5F7F4FC5010E94D1028C0D9D1D9A
:10334A008C159D054CF48FE490E080930440909393
:10335A0005408FEF9FEF03C06C01DECFC601CE5749
:08336A00DF4FECE00C94C51EDE
:103372000F931F93CF93DF93CDB7DEB72A97CDBFBD
:10338200DEBF69837A838B839C834D835E832F8325
:10339200388709871A8789819A81AB81BC81BC01F0
:1033A200CD010E940D1649855A852F8138858D8160
:1033B2009E81B9010E949516282F89859A85BC01A4
:1033C200822F0E9472182A96CDBFDEBFDF91CF9165
:0633D2001F910F91089508
:1033D8001F920F920FB60F9211240BB60F922F93D4
:1033E8003F934F935F936F937F938F939F93AF9385
:1033F800BF93EF93FF93CF93DF93CDB7DEB7809161
:10340800024090910340FC0109950000DF91CF91A3
:10341800FF91EF91BF91AF919F918F917F916F91A4
:103428005F914F913F912F910F900BBE0F900FBE60
:063438000F901F90189593
:10343E001F920F920FB60F9211240BB60F922F936D
:10344E003F934F935F936F937F938F939F93AF931E
:10345E00BF93EF93FF93CF93DF93CDB7DEB78091FA
:10346E00004090910140FC0109950000DF91CF9141
:10347E00FF91EF91BF91AF919F918F917F916F913E
:10348E005F914F913F912F910F900BBE0F900FBEFA
:06349E000F901F9018952D
:1034A400CF93DF93CDB7DEB72897CDBFDEBF8C8334
:1034B4009D836E837F834887888582958F70882F4C
:1034C40090E08F709927855A974BFC0180818983FE
:1034D4008885882F90E08F709927855A974BFC0137
:1034E40080818A831B822E813F818C819D81AE01E4
:1034F4004F5F5F4FB9010E94A10C2896CDBFDEBF7C
:06350400DF91CF91089554
:10350A00CF93DF93CDB7DEB72797CDBFDEBF8C83CE
:10351A009D836E837F838E819F810E941A198B837C
:10352A0019821A828B8188236CF08B81882F90E014
:10353A0020E830E0A901481B590BCA0196958795E6
:10354A0089839A834E815F812C813D8189819A8109
:10355A00B9010E94A10C00002796CDBFDEBFDF9102
:04356A00CF91089560
:10356E000F931F93CF93DF938C010F5F1F4FFC01BF
:10357E0080816115710519F48FEF9FEF1EC0FB015D
:10358E0024853585232BC1F3EB01EC85FD85BE012A
:10359E00882339F00995892B79F7F80181918F01EC
:1035AE00F4CF8AE0099521E030E0892B11F420E078
:1035BE0030E088279927821B930BDF91CF911F91C3
:0435CE000F910895BC
:1035D200CF93DF930F92CDB7DEB78091F34880325D
:1035E200D0F480E298E02091F248222F30E02D5E64
:1035F200374BF9012081FC0122838091F2488F5FD1
:103602008F71898389818093F2488091F3488F5F1B
:103612008093F34809C080E298E020E238E0F901A3
:1036220025812F7DFC01258300000F90DF91CF9132
:023632000895F9
:10363400CF92DF92EF92FF920F931F93CF93DF937A
:1036440000D000D0CDB7DEB78A836B837C838A81B8
:1036540089838B819C81CC24C394D12C7C0101E08F
:1036640010E0CE0101969C0144E250E060EA76E865
:1036740081E090E00E9481152496CDBFDEBFDF91EA
:10368400CF911F910F91FF90EF90DF90CF9008950D
:103694000F93CF93DF93CDB7DEB72897CDBFDEBFAF
:1036A4008A839B836C837D834E832F83088719824F
:1036B40011C08981282F30E08C819D81B901680F68
:1036C400791F8A819B8128854E810E94D01B898124
:1036D4008F5F898399818F81981758F3000028960A
:0C36E400CDBFDEBFDF91CF910F910895A4
:1036F000DC01ED91FC91119780818A3221F080E00C
:1037000090E03AE00EC03196ED93FC93DB01ED9131
:10371000FC911197CF0102968D939C9380819181AA
:103720000895ED91FC911197208120532A3068F47F
:10373000389FA001399F500D1124CA01820F911D9D
:0C3740003196ED93FC931197ECCF0895A7
:10374C00CF93DF93CDB7DEB72997CDBFDEBF888788
:10375C00698781E28A831B828FE78C8382E28D8367
:10376C0088858E8389858F83CE01029663E00E94C3
:10377C00E21889838981882331F0CE01059663E0B4
:10378C000E94E218898389812996CDBFDEBFDF9123
:04379C00CF9108952C
:1037A000CF93DF93CDB7DEB72797CDBFDEBF8A8338
:1037B0009B836C837D834E832F83198210C0898104
:1037C000282F30E08A819B81820F931F2C813D81BD
:1037D0004F81B9010E94FD0A89818F5F8983998198
:1037E0008E81981760F300002796CDBFDEBFDF9172
:0437F000CF910895D8
:1037F400A0E0B0E0E0E0FCE10C947E1E7C01FB0163
:10380400EA01C901A280B380C480D58000811181FE
:10381400209711F4C2EAD8E4009719F4CE010E946B
:10382400DF20B7FC04C0A816B90608F4C501960148
:10383400AC01BE01C7010E94C917CDB7DEB7EAE0EB
:043844000C94C71EFB
:10384800CF93DF9300D000D0CDB7DEB78B836C83E6
:1038580019828B818A8311C08A81282F30E081E008
:1038680090E002C0880F991F2A95E2F7982F898166
:10387800892B89838A818F5F8A839A818C818917B2
:1038880058F789812496CDBFDEBFDF91CF91089587
:10389800CF93DF93CDB7DEB710928C488FEF90E0CF
:1038A80080938D4890938E4810928F48109290483C
:1038B80010929348109294481092994880E099E0A9
:1038C80020ECFC01258380E099E021E0FC012583C0
:0838D8000000DF91CF9108957B
:1038E0001F920F920FB60F9211240BB60F922F93C7
:1038F0008F939F93EF93FF93CF93DF93CDB7DEB773
:1039000080E090E02FEFFC0123830000DF91CF9156
:10391000FF91EF919F918F912F910F900BBE0F9080
:083920000FBE0F901F901895D7
:103928001F920F920FB60F9211240BB60F922F937E
:103938008F939F93EF93FF93CF93DF93CDB7DEB72A
:1039480084E090E02FEFFC0123830000DF91CF910A
:10395800FF91EF919F918F912F910F900BBE0F9038
:083968000FBE0F901F9018958F
:103970001F920F920FB60F9211240BB60F922F9336
:103980008F939F93EF93FF93CF93DF93CDB7DEB7E2
:103990008CE090E02FEFFC0123830000DF91CF91BA
:1039A000FF91EF919F918F912F910F900BBE0F90F0
:0839B0000FBE0F901F90189547
:1039B8001F920F920FB60F9211240BB60F922F93EE
:1039C8008F939F93EF93FF93CF93DF93CDB7DEB79A
:1039D80080E190E02FEFFC0123830000DF91CF917D
:1039E800FF91EF919F918F912F910F900BBE0F90A8
:0839F8000FBE0F901F901895FF
:103A00001F920F920FB60F9211240BB60F922F93A5
:103A10008F939F93EF93FF93CF93DF93CDB7DEB751
:103A200084E190E02FEFFC0123830000DF91CF9130
:103A3000FF91EF919F918F912F910F900BBE0F905F
:083A40000FBE0F901F901895B6
:103A48000F931F93CF93DF9300D000D0CDB7DEB78D
:103A58008B836C838B8189838C818A8302E010E05D
:103A6800CE0101969C0144E250E060EA76E881E0EC
:103A780090E00E94B9192496CDBFDEBFDF91CF91A7
:063A88001F910F9108954B
:103A8E00CF93DF9300D000D0CDB7DEB70FB6F8944A
:103A9E000F928091BF489091C048A091C148B091BB
:103AAE00C24889839A83AB83BC830F900FBE8981F2
:103ABE009A81AB81BC81BC01CD012496CDBFDEBF06
:063ACE00DF91CF91089585
:103AD400A1E21A2EAA1BBB1BFD010DC0AA1FBB1F0E
:103AE400EE1FFF1FA217B307E407F50720F0A21B80
:103AF400B30BE40BF50B661F771F881F991F1A94ED
:103B040069F760957095809590959B01AC01BD0116
:043B1400CF01089540
:103B1800CF93DF9300D0CDB7DEB78A838A818983BC
:103B28008981813630F089818B3718F489818052F8
:103B380089838981803218F08981803610F080E28B
:103B48008983898180520F900F90DF91CF910895DA
:103B5800CF93DF93EC0190E0E92FF0E0EE0FFF1F29
:103B6800ED5CF74B8081811102C081810EC0A88174
:103B7800B9812C91821305C091811196A883B983CC
:103B880001C09F5F9B3040F3892FDF91CF9108954B
:103B9800CF93DF93CDB7DEB78091E8489091E9489D
:103BA8009C0140E050E084E690E0DC010E941E2188
:103BB800DC01CB012FEF3FE040E050E0BC01CD013C
:0E3BC8000E946A1DDA01C901DF91CF910895B4
:103BD600A0E0B0E0E1EFFDE10C94801E6C01EB018A
:103BE6008A017B01E40EF51ECE15DF0541F08991B1
:103BF600B601082E000C990B0E94A314F5CFC8013C
:0A3C0600CDB7DEB7E8E00C94C91E4C
:103C1000CF93DF93CDB7DEB780E099E020E039E0C5
:103C2000F90123812E7FFC01238380E099E020E0CD
:103C300039E0F90123812160FC01238310928C4833
:083C400080E0DF91CF910895AF
:103C4800CF93DF9300D00F92CDB7DEB789836A8315
:103C58007B8300000E94FA20982F81E0892788231F
:103C6800C9F789810E94AA1880E090E02396CDBF09
:083C7800DEBFDF91CF9108953A
:103C8000CF93DF93CDB7DEB780918C48882351F472
:103C900080E099E0FC018581882F90E0837099276E
:103CA000019719F081E090E002C080E090E081701F
:063CB000DF91CF910895A1
:103CB600CF93DF93CDB7DEB78091BF489091C048D0
:103CC600A091C148B091C2480196A11DB11D809333
:103CD600BF489093C048A093C148B093C248000023
:063CE600DF91CF9108956B
:103CEC002F923F924F925F926F927F928F929F9200
:103CFC00AF92BF92CF92DF92EF92FF920F931F93EE
:103D0C00CF93DF93CDB7DEB7CA1BDB0BCDBFDEBFC6
:023D1C00099408
:103D1E00A0E0B0E0E5E9FEE10C94861EAE014B5F3B
:103D2E005F4FFA0161917191AF01E091EA48F09114
:103D3E00EB48808191810E94A71EE2E00C94CF1E79
:103D4E00A2E0B0E0EDEAFEE10C94841E8C01498302
:103D5E005A83AE014F5F5F4F0E948519F801208193
:103D6E0024FF02C08FEF9FEF2296E4E00C94CD1E4D
:103D7E002A88398848885F846E847D848C849B84ED
:103D8E00AA84B984C884DF80EE80FD800C811B81FB
:103D9E00AA81B981CE0FD11DCDBFDEBFED01089531
:103DAE00CF93DF93CDB7DEB780919948882F90E0FF
:103DBE00880F991F875B974BFC0180819181FC01D5
:0E3DCE000995809399480000DF91CF910895E8
:103DDC00CF93DF930F92CDB7DEB7898380E099E064
:103DEC0020E039E0F9012481322F3C7F2981232BFB
:0E3DFC00FC01248300000F90DF91CF91089509
:103E0A00CF93DF9300D0CDB7DEB789839A838981B8
:103E1A009A81892B31F089819A818093DE48909327
:0E3E2A00DF4800000F900F90DF91CF910895B8
:103E3800CF93DF9300D0CDB7DEB789839A8389818A
:103E48009A81892B31F089819A818093E0489093F7
:0E3E5800E14800000F900F90DF91CF91089588
:103E6600CF93DF9300D0CDB7DEB789839A8389815C
:103E76009A81892B31F089819A818093E2489093C7
:0E3E8600E34800000F900F90DF91CF91089558
:103E9400CF93DF9300D00F92CDB7DEB789839A8397
:103EA4006B8389819A814B8168ED0E94D82100003F
:0C3EB4002396CDBFDEBFDF91CF910895B3
:103EC000CF93DF9300D00F92CDB7DEB789839A836B
:103ED0006B8389819A814B8168ED0E94D821000013
:0C3EE0002396CDBFDEBFDF91CF91089587
:103EEC00CF93DF93CDB7DEB760E080E191E00E9425
:103EFC00601F80E191E0FC01128280E191E0FC0105
:0C3F0C001382789480E0DF91CF9108953B
:103F1800CF93DF930F92CDB7DEB786E0898380E039
:103F280099E020ECFC0125830E94081E8983898181
:083F38000F90DF91CF91089575
:103F4000CF93DF93CDB7DEB70E9450190E941506BC
:103F50000E948D170E945B120E94F10F0E94761F33
:083F60000000DF91CF910895EC
:103F6800CF93DF93CDB7DEB71092BF481092C04809
:103F78001092C1481092C2488BE59EE10E9427200A
:083F88000000DF91CF910895C4
:103F9000CF93DF9300D0CDB7DEB789839A83898131
:103FA0009A818093D0489093D14800000F900F9051
:063FB000DF91CF9108959E
:103FB600CF93DF9300D0CDB7DEB789839A8389810B
:103FC6009A818093D2489093D34800000F900F9027
:063FD600DF91CF91089578
:103FDC00CF93DF9300D0CDB7DEB789839A838981E5
:103FEC009A818093D4489093D54800000F900F90FD
:063FFC00DF91CF91089552
:10400200CF93DF9300D0CDB7DEB789839A838981BE
:104012009A818093D6489093D74800000F900F90D2
:06402200DF91CF9108952B
:10402800CF93DF9300D0CDB7DEB789839A83898198
:104038009A818093D8489093D94800000F900F90A8
:06404800DF91CF91089505
:10404E00CF93DF9300D0CDB7DEB789839A83898172
:10405E009A818093DA489093DB4800000F900F907E
:06406E00DF91CF910895DF
:10407400CF93DF93CDB7DEB70E948320DC01CB0161
:1040840021E08F399F40A105B10509F020E0822F7E
:06409400DF91CF910895B9
:10409A00CF93DF93CDB7DEB740E054E060E070E045
:1040AA0087E090E40E947E218FEF8093FE48000013
:0640BA00DF91CF91089593
:1040C000CF93DF93CDB7DEB780E099E020918D48A4
:1040D00030918E48220F2160FC01278384E0DF911C
:0440E000CF910895DF
:1040E400CF93DF93CDB7DEB780E099E020918D4880
:1040F40030918E48220FFC01278383E0DF91CF911A
:0241040008951C
:10410600CF93DF93CDB7DEB780E09AE0FC0186A1BE
:1041160097A1CC01A0E0B0E0BC01CD01DF91CF9129
:024126000895FA
:10412800CF93DF930F92CDB7DEB7809198488983FC
:0E4138001092984889810F90DF91CF910895E1
:10414600CF93DF93CDB7DEB710928C4880E099E02D
:0E41560021E0FC01258388E0DF91CF910895E0
:10416400CF93DF930F92CDB7DEB785E089830E94AA
:0E417400ED20898389810F90DF91CF9108950E
:10418200CF93DF930F92CDB7DEB7898361E0CE0183
:0E41920001960E94E2180F90DF91CF910895E0
:1041A000A29FB001B39FC001A39F700D811D112478
:0E41B000911DB29F700D811D1124911D089567
:1041BE00FC01AF014F5F5F4F2081222311F0FA0106
:0C41CE00F8CF9F01281B390BC901089590
:1041DA00CF93DF93CDB7DEB783E00E94EE1E0E9435
:0A41EA004C1C80E0DF91CF91089596
:1041F400CF93DF93CDB7DEB79091F34881E0992355
:0A42040009F480E0DF91CF910895E6
:10420E00CF93DF93CDB7DEB70E947220809399488B
:08421E000000DF91CF9108952B
:10422600CF93DF93CDB7DEB78091E8489091E94808
:06423600DF91CF91089515
:10423C000E94D020A59F900DB49F900DA49F800D3F
:06424C00911D11240895EC
:10425200EC010E94E2210E94E121CE010E94E321B1
:06426200CE010E94DF21E5
:10426800FB01DC01480F591FA417B50719F021916C
:064278002D93FACF08951A
:10427E00CF93DF93CDB7DEB78091F048DF91CF912A
:02428E00089591
:10429000CF93DF93CDB7DEB78091F948DF91CF910F
:0242A00008957F
:1042A200CF93DF93CDB7DEB78091F848DF91CF91FE
:0242B20008956D
:1042B400CF93DF93CDB7DEB78091FD48DF91CF91E7
:0242C40008955B
:1042C600CF93DF93CDB7DEB78091FF48DF91CF91D3
:0242D600089549
:1042D800CF93DF93CDB7DEB780910049DF91CF91BF
:0242E800089537
:1042EA00E091EA48F091EB48608171810E94B71A27
:0242FA00089525
:1042FC00FC01480F591FE417F50711F06193FBCF30
:02430C00089512
:10430E009C01215631092A31310510F48F759927F8
:02431E00089500
:10432000CF93DF93CDB7DEB70000DF91CF91089533
:10433000CF93DF93CDB7DEB70000DF91CF91089523
:10434000CF93DF93CDB7DEB70000DF91CF91089513
:10435000CF93DF93CDB7DEB70000DF91CF91089503
:10436000CF93DF93CDB7DEB70000DF91CF910895F3
:10437000CF93DF93CDB7DEB70000DF91CF910895E3
:10438000CF93DF93CDB7DEB70000DF91CF910895D3
:10439000CF93DF93CDB7DEB70000DF91CF910895C3
:1043A0009C01215431092A31310508F480620895B5
:0A43B0001BBEFC0164BF40830895AA
:0443BA000C9400005F
:0443BE000E94D10088
:0243C20008955C
:0243C40008955A
:0243C600089558
:1043C8000D0A3D3D3D205465737441693220626F8A
:1043D8006F74203D3D3D0D00446576696365203A64
:1043E8002041565231323844413438204020256C1F
:1043F8007520487A0D0A00554152542020203A2051
:104408005553415254312031313532303020384EF5
:10441800310D007265616479005449434B2049535A
:10442800204E4F542031206D73210054696D657200
:1044380020203A20544341302031206D7320746984
:10444800636B2C206D696C6C697328292025730DAA
:104458000A00493243202020203A2054574930206E
:104468006F6E205043322F5043332C207065722DCD
:104478006465766963652073706565640D00504FE7
:1044880054202020203A20414443302041494E37CF
:104498002028504437292C2066697273742072656D
:1044A80061642025750D0A004932437363616E3AD1
:1044B80020257520646576696365287329206174F1
:1044C80020313030206B487A3A002030782530325D
:1044D8005800206E6F6E65202D20636865636B2021
:1044E8005344413D5043322053434C3D5043332CB9
:1044F8002070756C6C2D75707320616E6420706F00
:10450800776572000D004F4B004641494C45440009
:104518004F4C45442020203A205353443133303601
:10452800203078253032582025730020617420739C
:10453800746570203078253032582C206932632019
:104548006572726F72202575004E4F205245535088
:104558004F4E534500494F45585020203A204D436F
:104568005032333030382030782530325820257397
:1045780020284750353D4A554D50204750363D5329
:1045880054415254204750373D5245534554290D04
:104598000A00427574746F6E733A206163746976A9
:1045A80065206C6F772C2065787465726E616C205D
:1045B80070756C6C2D7570732C2047505055206F9A
:1045C80066660D0A0D004272696E672D757020735C
:1045D800637265656E20736B69707065642C206EFC
:0C45E8006F20646973706C61792E0D0007
:1045F400000000000000005F000000070007001436
:104604007F147F14242A7F2A1223130864623649F4
:104614005522500005030000001C224100004122E5
:104624001C0014083E081408083E08080050300016
:104634000008080808080060600000201008040250
:104644003E5149453E00427F400042615149462166
:1046540041454B311814127F1027454545393C4AD2
:104664004949300171090503364949493606494922
:10467400291E003636000000563600000814224178
:1046840000141414141400412214080201510906E0
:10469400324979413E7E1111117E7F494949363EA6
:1046A400414141227F4141221C7F494949417F09BF
:1046B4000909013E4149497A7F0808087F00417F82
:1046C40041002040413F017F081422417F40404087
:1046D400407F020C027F7F0408107F3E4141413E2F
:1046E4007F090909063E4151215E7F091929464681
:1046F4004949493101017F01013F4040403F1F20AA
:1047040040201F3F4038403F63140814630708707B
:1047140008076151494543007F41410002040810E4
:10472400200041417F000402010204404040404017
:1047340044494E4F204252494E47555000504F5421
:104744000042544E00250047503A004F4C45442047
:104754004F4B2020494F20004F4B002D2D00465039
:1047640053005550005300504F54202534752028D1
:10477400253375252529202042544E204A256320BF
:104784005325632052256320204750494F20307819
:10479400253032582020494F20257320204650537D
:0647A4002025750D0A003E
:1047AA0001AE02D58002A83F02D3000140028D1457
:1047BA0002200001A101C802DA120281CF02D9F156
:0A47CA0002DB4001A401A6012E004D
:1047D40068076C094C836A9074A07AC0008068886A
:0647E40000846C820081DC
:1047EA00A3206020722014175D10B2208C1FED20C8
:0247FA00081E97
:1047FC00303132333435363738394142434445460B
:01480C0000AB
:10480D00030000000000000000000000241E000056
:07481D00286E756C6C290088
:06482400286E696C2900FA
:02482A00EC4858
:01482C00FF8C
:01482D00FF8B
:01482E00FF8A
:01482F00FF89
:02000004008278
:090000000000000000C000000037
:00000001FF
