:100000000C9495000C943B120C943B120C943B12F4
:100010000C943B120C943B120C941B0E0C94450B4D
:100020000C943B120C943B120C943B120C943B121C
:100030000C943B120C943B120C943B120C943B120C
:100040000C943B120C94FF0A0C943B120C943B1240
:100050000C943B120C943B120C94630E0C943B12C8
:100060000C943B120C943B120C943B120C943B12DC
:100070000C943B120C9410060C943B120C94D60C6E
:100080000C94090D0C941C0A0C94AB0E0C943B12AE
:100090000C943B120C943B120C943B120C943B12AC
:1000A0000C943B120C943B120C943B120C943B129C
:1000B0000C943F0E0C94870E0C943B120C943B1244
:1000C0000C943B120C943B120C943B120C943B127C
:1000D0000C943B120C943B120C943B120C943B126C
:1000E0000C943B120C943B124000400680400640AA
:1000F000C100248440C140E18040E1410900253F26
:100100004109411980411941290025674129413F91
:1001100080413F414C002577414C416A80416A4112
:100120006C002584416C4175800011241FBECFEF07
:10013000CDBFDFE7DEBFE8EEF0E041E019C0B791E8
:10014000A79137912791079107FD0EC0979187914D
:10015000EF01F92FE82F0BBF07900D92A217B307FD
:10016000D9F7FE011BBE04C01D92A217B307E1F729
:10017000E932F40721F70E948B050C94D111F89411
:02018000FFCFAF
:10018200AEE0B0E0E7ECF0E00C94A70F4C016B019D
:1001920019821A828FEF9FEF8B839C831D821E82AE
:1001A2004F83588729873A87A12CB12CD6016D90AD
:1001B2007C90F301EA0DFB1D808181110FC0D601F5
:1001C200ED93FC938081853209F0D3C13F01BFEFEB
:1001D2006B1A7B0AF6016082718219C0853279F34B
:1001E200B401082E000C990B0E946C0A4FEFA41A5E
:1001F200B40ADCCF8C32ACF08D32F9F489819A8169
:10020200816089839A833196D601ED93FC93D6015E
:10021200ED91FC9180818B3269F789819A818460AA
:10022200F0CF803221F489819A818860EACF8332CB
:1002320051F489819A818061E4CF803321F48981EC
:100242009A818260DECFB701C6010E949F0D8D8325
:100252009E8397FF0BC029813A81B1E02B27298326
:100262003A839195819591098D839E8389819A81A3
:1002720080FF03C08D7F89839A83D601ED91FC9123
:10028200119780818E3249F43196ED93FC93B70138
:10029200C6010E949F0D8B839C83C6010E94140F8E
:1002A200582ED601ED91FC918081082E000C990BFD
:1002B2000E942E12893609F443C084F4833609F46D
:1002C20002C134F4853209F427C18136E1F030C12C
:1002D2008436B1F188360CF4D9C02AC1803709F4CA
:1002E2009AC03CF48E3609F4BCC08F3609F461C062
:1002F2001FC1853709F440C0883709F476C08337B7
:1003020009F016C1F3C0652D70E0A701CE010B966E
:100312000E940000892B09F426C1D601ED91FC91BF
:100322001197CF0101968D939C932081AE01455F79
:100332005F4FBE016F5F7F4FC4010E94000010C17A
:10034200652D70E0970141E050E0CE010B960E94CE
:100352004C08892B09F407C1F6018081918101962D
:1003620080839183AE01455F5F4FBE016F5F7F4F18
:10037200C4010E940607F4C0652D70E0970140E0B9
:1003820050E0CE010B960E944C08892B09F4EBC079
:10039200D6018D919C91119701968D939C93AE01FC
:1003A200455F5F4FBE016F5F7F4FC4010E94B80A75
:1003B200D7C0652D70E0970140E050E0CE010B966A
:1003C2000E944C08892B09F4CEC0F60180819181EC
:1003D200019680839183AE01455F5F4FBE016F5FDF
:1003E2007F4FC4010E947209BBC0652D70E0970166
:1003F20040E050E0CE010B960E944C08892B09F494
:10040200B2C0D601ED91FC911197CF0101968D9367
:100412009C9320811CC0970140E050E060EF70E0A7
:10042200CE010B960E944C08892B09F49CC0F60160
:10043200808191810196808391838B859C85892B14
:1004420029F420E030E046E451E484C028E7AE011C
:10045200455F5F4FBE016F5F7F4FC4010E94FA0389
:100462007FC0A501400F511F652D70E09701CE019D
:100472000B960E940000892B09F475C0D6018D915C
:100482009C91119701968D939C9373C0652D70E09A
:10049200A701CE010B960E940000892B09F463C0CC
:1004A200D601ED91FC911197CF0101968D939C930A
:1004B2002081AE01455F5F4FBE016F5F7F4FC40178
:1004C2000E9400004DC0B0E85B124DC0F601808171
:1004D2009181019680839183D701ED91FC911197CF
:1004E200CF0102968D939C93808120C0B0E85B126D
:1004F2003AC0F60180819181019680839183D70170
:10050200ED91FC911197CF0102968D939C934081BE
:10051200518120E030E01EC0B0E85B1224C0F60139
:10052200208131812F5F3F4F208331838B870DC024
:1005320085E28B87D6016D927C9219821A821D8286
:100542001E828FEF9FEF8B839C8321E030E0AE0110
:10055200455F5F4FBE016F5F7F4FC4010E94CD0DAB
:100562008A0D9B1D07C0F6018081918101968083CF
:0C0572009183C5012E96EFE00C94F00F71
:10057E00CF93DF93CDB7DEB780E094E0FC01148219
:10058E0080E294E0FC01148280E494E021E0FC011E
:10059E00248380E694E0FC01148280E894E0FC0160
:1005AE00148280EA94E0FC01148280E094E0FC0165
:1005BE00108280E294E0FC01108280E494E021E459
:1005CE00FC01208380E694E0FC01108280E894E038
:1005DE00FC01108280EA94E0FC01108280E094E03D
:1005EE00FC01108A80E094E0FC01118A80E094E026
:1005FE00FC01128A80E094E0FC01138A80E094E012
:10060E00FC01148A80E094E0FC01158A80E094E0FD
:10061E00FC01168A80E094E0FC01178A80E294E0E7
:10062E00FC01108A80E294E0FC01118A80E294E0E1
:10063E00FC01128A80E294E0FC01138A80E294E0CD
:10064E00FC01148A80E294E0FC01158A80E294E0B9
:10065E00FC01168A80E294E0FC01178A80E494E0A3
:10066E00FC01108A80E494E0FC01118A80E494E09D
:10067E00FC01128A80E494E0FC01138A80E494E089
:10068E00FC01148A80E494E0FC01158A80E494E075
:10069E00FC01168A80E494E0FC01178A80E694E05F
:1006AE00FC01108A80E694E0FC01118A80E694E059
:1006BE00FC01128A80E694E0FC01138A80E694E045
:1006CE00FC01148A80E694E0FC01158A80E694E031
:1006DE00FC01168A80E694E0FC01178A80E894E01B
:1006EE00FC01108A80E894E0FC01118A80E894E015
:1006FE00FC01128A80E894E0FC01138A80E894E001
:10070E00FC01148A80E894E0FC01158A80E894E0EC
:10071E00FC01168A80E894E0FC01178A80EA94E0D6
:10072E00FC01108A80EA94E0FC01118A80EA94E0D0
:10073E00FC01128A80EA94E0FC01138A80EA94E0BC
:10074E00FC01148A80EA94E0FC01158A80EA94E0A8
:10075E00FC01168A80EA94E0FC01178A80EE95E08F
:10076E00FC01118680EE95E0FC01118280EE95E091
:10077E00FC01108280EE95E0FC01148280EE95E083
:10078E00FC01168280EE95E0FC01178280EE95E06A
:10079E00FC01108680EE95E022E0FC01258380EEC0
:1007AE0095E0FC01128280EE95E0FC01138280EE52
:1007BE0095E0FC0112868EEE91E10E94F61086EF16
:1007CE0091E10E9409118EEF91E10E941C1186E0C9
:1007DE0092E10E942F118EE092E10E9442110000E0
:0607EE00DF91CF91089598
:1007F400AFE0B0E0E0E0F4E00C94A40F1C016B0166
:1008040049835A832B83FB01828193818480958061
:1008140000811181A680B78097FD02C00D7F02C0C0
:1008240081E090E0E981FA814080518062807380A8
:100834009801207133272C833D83740104FF08C081
:10084400411451046104710419F032E0E31AF1080F
:10085400F801E870FF27EE83FF8303FF03C0F1E094
:10086400EF1AF108F6010084F185E02D3197EE8747
:10087400FF87EA0DFB1D10829C012E193F09288772
:100884003987C801827099278A879B87EB818E2FCD
:10089400EE0F990B9C01215431092C873D872E853D
:1008A4003F852230310530F48C819D81892B09F0FC
:1008B40042C05CC0411451046104710461F18E852D
:1008C4009F8501978E879F87C2018F7099278A30F1
:1008D400910514F4C09602C0895A9F4FEC85FD859A
:1008E4007A9748F49C012062215631092A31310556
:1008F40010F40E94E511EE85FF85EA0DFB1D80834F
:10090400F1E0EF1AF10884E07694679457944794E1
:100914008A95D1F7C4CF888599858E0D9F1D1816A9
:1009240019066CF21E141F040CF0BECFEA85FB8579
:10093400EF2B29F6B9CFE981FA8180819181A281D7
:10094400B381892B8A2B8B2B89F0EE85FF85EA0DE9
:10095400FB1D31972B8120838E859F8502978E877F
:100964009F87FC01EA0DFB1D80E38083EE81FF81FC
:10097400EF2B59F02E853F85215031092E873F8773
:10098400F901EA0DFB1D80E28083F6014085518563
:10099400415051092E853F85421B530BB9016A0D05
:1009A4007B1D9401C1010E94FC0B9C01F10180811B
:1009B400918190FF06C0F60182819381821793078B
:0C09C4000CF4C9012F96E2E10C94ED0F39
:1009D000CF93DF9300D0CDB7DEB780917241882FDF
:1009E00090E0880F991F875F9E4BFC011082118257
:1009F00080E298E0FC018181882F90E08470992743
:100A0000892BC9F080917241882F90E0880F991F3F
:100A1000875F9E4BFC0120812260FC012083809136
:100A2000604190916141892B31F0809160419091BA
:100A30006141FC01099580E298E0FC018181882FE9
:100A400090E082709927892B89F080915E418160C6
:100A500080935E418091644190916541892B31F092
:100A60008091644190916541FC01099580E298E094
:100A7000FC018181882F90E080749927892BC9F02F
:100A800080917241882F90E0880F991F875F9E4B5D
:100A9000FC0120812460FC012083809162419091BF
:100AA0006341892B31F08091624190916341FC0157
:100AB000099580E298E0FC018081898380917241F0
:100AC0008F5F87708A83809173419A81981789F02C
:100AD00080917241882F90E0895C9E4B2981FC01B6
:100AE00020838A8180937241809174418F5F8093CB
:100AF00074418091684190916941892B31F08091D6
:100B0000684190916941FC01099500000F900F9098
:060B1000DF91CF91089572
:100B16000F931F93CF93DF9300D000D0CDB7DEB7EE
:100B26000E94CE100E94E21086E090E40E94DC1142
:100B36001F928DE38F9389E08F931F928EE190E44D
:100B4600892F8F938EE190E48F930E94BD0F0F90B3
:100B56000F900F900F900F900F908DE390E40E94EE
:100B6600DC1189E590E40E94DC111F921F9283E05C
:100B76008F9388EE8F9382E890E4892F8F9382E893
:100B860090E48F930E94BD0F0F900F900F900F90DF
:100B96000F900F900E94CF0EDC01CB0189839A83C0
:100BA600AB83BC8348EE53E060E070E0CE01019673
:100BB6000E94CB098823B1F387E494E020E4FC018A
:100BC600208388E090E0FC018281882F90E0807489
:100BD600992721E0892B09F420E0022F10E00E94DA
:100BE600CF0EDC01CB01212F2F93202F2F932B2FFC
:100BF6002F932A2F2F93292F2F938F9389EA90E4EF
:100C0600892F8F9389EA90E48F930E94BD0F8DB749
:0A0C16009EB70896CDBFDEBFC5CF24
:100C20001F920F920FB60F9211240BB60F922F93B3
:100C30003F934F935F936F937F938F939F93AF9364
:100C4000BF93EF93FF93CF93DF93CDB7DEB788E0E9
:100C500090E0FC018381882F90E082709927892B96
:100C600031F08091524190915341FC01099588E007
:100C700090E0FC018381882F90E081709927892B77
:100C800031F08091544190915541FC01099588E0E3
:100C900090E0FC018381882F90E088709927892B50
:100CA00031F08091564190915741FC01099588E0BF
:100CB00090E0FC018381882F90E084709927892B34
:100CC00031F08091584190915941FC01099588E09B
:100CD00090E0FC018381882F90E080749927892B14
:100CE00031F080915A4190915B41FC01099588E077
:100CF00090E02FEFFC0123830000DF91CF91FF9163
:100D0000EF91BF91AF919F918F917F916F915F9183
:100D10004F913F912F910F900BBE0F900FBE0F90F0
:040D20001F90189573
:100D2400CF93DF93CDB7DEB780E099E0FC018581F6
:100D3400882F90E084709927892B51F480E099E002
:100D4400FC018581882F90E088709927892B61F0B8
:100D540086E08093364183E08093354180E099E0DA
:100D64002CE0FC0125832DC080E099E0FC01878103
:100D7400882389F080E099E0FC018581882F90E048
:100D840080719927892B39F085E08093364181E081
:100D94008093354116C080E099E0FC01808588236A
:100DA40081F080E099E0FC018581882F90E08071DA
:100DB4009927892B31F085E08093364182E0809336
:100DC400354180913641882F90E0880F991F8950D2
:100DD4009F4BFC0180819181FC01099580933641F0
:100DE40080913541882361F0809150419091514127
:100DF400892B31F08091504190915141FC0109952A
:080E04000000DF91CF91089579
:100E0C00A2E0B0E0ECE0F7E00C94A40F3C016B0125
:100E1C00FB0122813381A480B580808191818983FB
:100E2C009A8386809780FA0120803180428053809B
:100E3C00B201A10157FE07C044275527BA01421938
:100E4C0053096409750937FD03C08D7F89839A8323
:100E5C00950157FC05C0898182FD02C083FF02C049
:100E6C0021503109CE0101967C010AE010E0C60147
:100E7C000E94B40857FC03C0298122FF0AC00197C5
:100E8C00F401E80FF91F57FC02C02BE209C02DE258
:100E9C0007C023FF06C00197F401E80FF91F20E2F9
:100EAC00208309811A81F6014085518541505109F1
:100EBC00481B590BB401680F791F9501C3010E949F
:100ECC00FC0B9C01F3018081918190FF06C0F6011F
:100EDC0082819381821793070CF4C9012296E2E177
:040EEC000C94ED0F66
:100EF000CF93DF93CDB7DEB788EE94E080930240C6
:100F0000909303408EE69DE08093004090930140D3
:100F100080E298E02AE830E0FC012087318780E217
:100F200098E020EDFC01258380E298E020ECFC01B4
:100F3000268380E298E023E0FC01278380E298E0AA
:100F4000FC01138680E298E0FC01148680E298E0C0
:100F5000FC01168680E298E0FC01158686E192E1AC
:100F60000E9433108EE192E10E944A1086E292E1E3
:100F70000E94611010925E4110925F4110926E418A
:100F800010926F4180E28093704181E080937141C3
:100F900010927241109273411092744180E298E075
:100FA00020E238E0F90125812068FC012583809149
:100FB0006A4190916B4129E131E4FC012083318346
:080FC0000000DF91CF910895BC
:100FC800CF93DF930F92CDB7DEB784E0898380910A
:100FD800324190913341019751F480E099E020E04B
:100FE80039E0F90124812460FC01248309C080E0F0
:100FF80099E020E039E0F90124812B7FFC0124836A
:10100800809132419091334101978093324190937E
:101018003341892BC9F0809130419091314120E0D2
:1010280039E0F9012085FC012083809130419091BD
:1010380031410196809330419093314182E00E9482
:101048001C1084E089831FC0809130419091314108
:1010580020E039E0F9012085FC01208380913041AE
:10106800909131410196809330419093314180E0D5
:1010780099E020E039E0F90124812460FC0124830F
:101088000E94B711898389810F90DF91CF910895CC
:10109800CF93DF93DC01F90168387105F1F05CF456
:1010A8006138710561F164387105A1F16038710525
:1010B80009F051C02FC0603C710509F441C0603F80
:1010C8007105F1F1603A710509F045C0C081D1811F
:1010D800CE0102968083918325C0C081D181CE0143
:1010E800029680839183452B39F04881042E000CA9
:1010F800550B660B770B1CC0488150E029C0C08196
:10110800D181CE01049680839183488159816A8177
:101118007B810EC0C081D181CE01029680839183EC
:10112800452BA1F048815981052E000C660B770BE1
:101138004D935D936D937C93139781E090E00DC080
:10114800C081D181CE0102968083918348815981E3
:1011580060E070E0EDCF80E090E0DF91CF910895FE
:10116800A0E0B0E0EAEBF8E00C94A60FDC0128015F
:101178001696AD90BC901797F701808191811296D1
:10118800ED91FC9113971896CD91DC9119972197C1
:10119800F7FF02C0E1E0F0E0CA0DDB1D188269012B
:1011A800A1E0B0E08F01021B130B4C01F2E08F228B
:1011B8009924052C000C66087708CE018A199B092A
:1011C800CA15DB0519F1411551056105710589F04D
:1011D800CB01BA01A30192010E94F20ECA01A62F07
:1011E800B72F605D6A9341E0C41AD108A901BC0118
:1011F800E4CF98012C0D3D1D121613064CF31C1458
:101208001D0434F48114910419F702C080E090E0C1
:10121800AB2B31F4F701208131812F7E208331837C
:0A122800CDB7DEB7E0E10C94EF0F44
:10123200CF93DF93CDB7DEB780E09AE0FC0110A632
:1012420011A680E09AE0FC0112A613A680E09AE0C3
:10125200FC0114A615A680E09AE0FC0110A211A2DE
:1012620080E09AE0FC01118280E09AE0FC011282A7
:1012720080E09AE0FC01138280E09AE0FC01148293
:1012820080E09AE0FC01158280E09AE0FC0116827F
:1012920080E09AE0FC01178280E09AE0FC01168669
:1012A20080E09AE0FC01118680E09AE021E0FC01F6
:1012B200228780E09AE0FC01138680E09AE02FE921
:1012C2003FE0FC0126A337A380E09AE0FC011786E9
:1012D20080E09AE021E0FC0120830000DF91CF91C1
:0212E20008956D
:1012E400A2E0B0E0E8E7F9E00C94A80F4C016B0130
:1012F400FB0122813381648075808081918189839F
:101304009A83A680B78037FD03C08D7F89839A8333
:10131400FA014081518162817381CE0101967C0181
:1013240008E010E09301C6010E94B408298124FF5B
:1013340006C00197F501E80FF91F20E320832981F6
:1013440023FF06C00197F501E80FF91F20E220836F
:1013540009811A81F6014085518541505109481B84
:10136400590BB501680F791F9301C4010E94FC0B4E
:101374009C01F4018081918190FF06C0F601828175
:101384009381821793070CF4C9012296EEE00C9422
:02139400F10F57
:10139600CF93DF93CDB7DEB72B97CDBFDEBF8E835E
:1013A6009F83488759876A877B8719828E819F81A9
:1013B600892BC1F10E94CF0EDC01CB018A839B836E
:1013C600AC83BD838E819F81FC0180819181A28146
:1013D600B3812A813B814C815D81281B390B4A0BE5
:1013E6005B0B88859985AA85BB85281739074A0727
:1013F6005B07C0F08E819F81FC0120813181428193
:10140600538188859985AA85BB85820F931FA41F62
:10141600B51F2E813F81F90180839183A283B38317
:1014260081E0898389812B96CDBFDEBFDF91CF9185
:02143600089517
:101438001F920F920FB60F9211240BB60F922F9393
:101448003F934F935F936F937F938F939F93AF9344
:10145800BF93EF93FF93CF93DF93CDB7DEB780E2CF
:1014680098E0FC018481882F90E08074992721E01E
:10147800892B09F420E02093714180916641909175
:101488006741892B31F08091664190916741FC0159
:10149800099580E298E020E238E0F901248120648F
:1014A800FC0124830000DF91CF91FF91EF91BF9160
:1014B800AF919F918F917F916F915F914F913F91E4
:1014C8002F910F900BBE0F900FBE0F901F90189585
:1014D8000F931F93CF93DF93DB01109719F48FEFCE
:1014E8009FEF3DC02D913C91119730FF25C0169676
:1014F8004D915C91179714962D913C911597421731
:10150800530778F41296ED91FC9113978083129605
:101518002D913C9113972F5F3F4F12962D933C933B
:10152800139716962D913C9117972F5F3F4F16965C
:101538002D933C93179713C01C96ED91FC911D9722
:10154800309769F2EB01092F182F0995892B39F685
:101558008E819F8101968E839F83812F902FDF91AB
:08156800CF911F910F9108952E
:10157000A2E0B0E0EEEBFAE00C94A80F5C016B0186
:10158000FB012281338184809580808191818983D0
:101590009A836680778037FD03C08D7F89839A8325
:1015A000FA014081518162817381CE0101967C01F3
:1015B0000AE010E09401C6010E94B40809811A8172
:1015C000F6014085518541505109481B590BB30123
:1015D000680F791F9401C5010E94FC0B9C01F50165
:1015E0008081918190FF06C0F601828193818217EC
:0E15F00093070CF4C9012296EEE00C94F10F63
:1015FE001F920F920FB60F9211240BB60F922F93CC
:10160E003F934F935F936F937F938F939F93AF937C
:10161E00BF93EF93FF93CF93DF93CDB7DEB780E009
:10162E0099E0FC018581882F90E08C719927892B98
:10163E0019F00E9492060CC080E099E0FC018581B1
:10164E00882F90E0807E9927892B11F00E9405103B
:10165E000000DF91CF91FF91EF91BF91AF919F91DC
:10166E008F917F916F915F914F913F912F910F903D
:0C167E000BBE0F900FBE0F901F90189530
:10168A001F920F920FB60F9211240BB60F922F933F
:10169A003F934F935F936F937F938F939F93AF93F0
:1016AA00BF93EF93FF93CF93DF93CDB7DEB78091CC
:1016BA005C4190915D41892B31F080915C41909120
:1016CA005D41FC01099580E09AE021E0FC01238755
:1016DA000000DF91CF91FF91EF91BF91AF919F9160
:1016EA008F917F916F915F914F913F912F910F90C1
:0C16FA000BBE0F900FBE0F901F901895B4
:10170600CF93DF930F92CDB7DEB783E089838091C5
:101716002E4190912F41892BF9F080912E41909185
:101726002F41019780932E4190932F4180E099E0BD
:1017360020912C4130912D41F9012081FC01208717
:1017460080912C4190912D41019680932C4190934C
:101756002D4183E089830CC080913441882329F090
:101766001092344181E0898303C00E94B7118983B6
:0A17760089810F90DF91CF91089553
:10178000CF93DF93CDB7DEB780E099E020E039E07A
:10179000F90123812E7FFC01238380E099E0FC0185
:1017A000108280E099E0FC01128280E099E02EE056
:1017B000FC01268380E099E0FC01178280E099E03B
:1017C000FC01108680E099E0FC01158280E099E040
:1017D000FC01148280E099E021ECFC01238380E08D
:1017E00099E021E0FC012583109250411092514173
:0817F0000000DF91CF91089584
:1017F800A0E0B0E0E2E0FCE00C94AA0F6C015B0111
:101808007A01E901480181E08822992400FD03C09A
:101818004217530750F0A701B501C6010E94340FC3
:10182800EC16FD0610F0C70117C08E010E191F092E
:101838000115110541F0B60180E290E00E946C0AA2
:1018480001501109F5CF8114910429F4A701B501BC
:10185800C6010E94340FCE01CDB7DEB7ECE00C9480
:02186800F30F7C
:10186A00CF93DF9300D0CDB7DEB78A8380917041E2
:10187A008823F9F080916E41882F90E08F539F4B17
:10188A002A81FC01208380916E418F5F8F71898349
:10189A00898180936E4180E298E020E238E0F90184
:1018AA0025812F7DFC012583809170418150809391
:1018BA00704180E298E020E238E0F9012581206257
:1018CA00FC01258300000F900F90DF91CF910895BE
:1018DA00CF93DF93CDB7DEB760E080E690E00E9459
:1018EA00781060E081E690E00E94781060E082E67D
:1018FA0090E00E94781060E083E690E00E94781001
:10190A006CE088E690E00E94781060E089E690E05A
:10191A000E94781060E088E790E00E94781060E00A
:10192A0080E790E00E94781060E08CE790E00E94E7
:0A193A0078100000DF91CF910895AE
:10194400A2E8B0E0E8EAFCE00C94AA0F5C014A01CA
:1019540069837A83C12CD12CE981FA81808188231F
:10196400E9F07401860120E830E0AE014D5F5F4F7D
:10197400BE016F5F7F4FC5010E94C1008C0D9D1D8C
:101984008C159D054CF48FE490E080930440909373
:1019940005408FEF9FEF03C06C01DECFC601CE5729
:0819A400DF4FECE00C94F30F9F
:1019AC001F920F920FB60F9211240BB60F922F931A
:1019BC003F934F935F936F937F938F939F93AF93CB
:1019CC00BF93EF93FF93CF93DF93CDB7DEB78091A7
:1019DC00024090910340FC0109950000DF91CF91EA
:1019EC00FF91EF91BF91AF919F918F917F916F91EB
:1019FC005F914F913F912F910F900BBE0F900FBEA7
:061A0C000F901F901895D9
:101A12001F920F920FB60F9211240BB60F922F93B3
:101A22003F934F935F936F937F938F939F93AF9364
:101A3200BF93EF93FF93CF93DF93CDB7DEB7809140
:101A4200004090910140FC0109950000DF91CF9187
:101A5200FF91EF91BF91AF919F918F917F916F9184
:101A62005F914F913F912F910F900BBE0F900FBE40
:061A72000F901F90189573
:101A78000F931F93CF93DF938C010F5F1F4FFC01D0
:101A880080816115710519F48FEF9FEF1EC0FB016E
:101A980024853585232BC1F3EB01EC85FD85BE013B
:101AA800882339F00995892B79F7F80181918F01FD
:101AB800F4CF8AE0099521E030E0892B11F420E089
:101AC80030E088279927821B930BDF91CF911F91D4
:041AD8000F910895CD
:101ADC00CF93DF930F92CDB7DEB7809170418032F8
:101AEC00D0F480E298E020916F41222F30E02F5308
:101AFC003F4BF9012081FC01228380916F418F5F64
:101B0C008F718983898180936F41809170418F5F40
:101B1C008093704109C080E298E020E238E0F9013E
:101B2C0025812F7DFC01258300000F90DF91CF9143
:021B3C0008950A
:101B3E00DC01ED91FC91119780818A3221F080E0D9
:101B4E0090E03AE00EC03196ED93FC93DB01ED91FF
:101B5E00FC911197CF0102968D939C938081918178
:101B6E000895ED91FC911197208120532A3068F44D
:101B7E00389FA001399F500D1124CA01820F911D6B
:0C1B8E003196ED93FC931197ECCF089575
:101B9A00A0E0B0E0E3EDFDE00C94AC0F7C01FB01AA
:101BAA00EA01C901A280B380C480D5800081118175
:101BBA00209711F4CFE3D1E4009719F4CE010E94E3
:101BCA00A911B7FC04C0A816B90608F4C501960104
:101BDA00AC01BE01C7010E94FC0BCDB7DEB7EAE03B
:041BEA000C94F50F53
:101BEE00CF93DF93CDB7DEB7109229418FEF90E000
:101BFE0080932A4190932B4110922C4110922D41AB
:101C0E0010923041109231411092364180E099E0AD
:101C1E0020ECFC01258380E099E021E0FC01258386
:081C2E000000DF91CF91089541
:101C36001F920F920FB60F9211240BB60F922F938D
:101C46008F939F93EF93FF93CF93DF93CDB7DEB739
:101C560080E090E02FEFFC0123830000DF91CF911D
:101C6600FF91EF919F918F912F910F900BBE0F9047
:081C76000FBE0F901F9018959E
:101C7E001F920F920FB60F9211240BB60F922F9345
:101C8E008F939F93EF93FF93CF93DF93CDB7DEB7F1
:101C9E0084E090E02FEFFC0123830000DF91CF91D1
:101CAE00FF91EF919F918F912F910F900BBE0F90FF
:081CBE000FBE0F901F90189556
:101CC6001F920F920FB60F9211240BB60F922F93FD
:101CD6008F939F93EF93FF93CF93DF93CDB7DEB7A9
:101CE6008CE090E02FEFFC0123830000DF91CF9181
:101CF600FF91EF919F918F912F910F900BBE0F90B7
:081D06000FBE0F901F9018950D
:101D0E001F920F920FB60F9211240BB60F922F93B4
:101D1E008F939F93EF93FF93CF93DF93CDB7DEB760
:101D2E0080E190E02FEFFC0123830000DF91CF9143
:101D3E00FF91EF919F918F912F910F900BBE0F906E
:081D4E000FBE0F901F901895C5
:101D56001F920F920FB60F9211240BB60F922F936C
:101D66008F939F93EF93FF93CF93DF93CDB7DEB718
:101D760084E190E02FEFFC0123830000DF91CF91F7
:101D8600FF91EF919F918F912F910F900BBE0F9026
:081D96000FBE0F901F9018957D
:101D9E00CF93DF9300D000D0CDB7DEB70FB6F89457
:101DAE000F9280914C4190914D41A0914E41B09136
:101DBE004F4189839A83AB83BC830F900FBE898179
:101DCE009A81AB81BC81BC01CD012496CDBFDEBF13
:061DDE00DF91CF91089592
:101DE400A1E21A2EAA1BBB1BFD010DC0AA1FBB1F1B
:101DF400EE1FFF1FA217B307E407F50720F0A21B8D
:101E0400B30BE40BF50B661F771F881F991F1A94F9
:101E140069F760957095809590959B01AC01BD0123
:041E2400CF0108954D
:101E2800CF93DF93EC0190E0E92FF0E0EE0FFF1F76
:101E3800EF51FF4B8081811102C081810EC0A881C2
:101E4800B9812C91821305C091811196A883B98319
:101E580001C09F5F9B3040F3892FDF91CF91089598
:101E6800A0E0B0E0EAE3FFE00C94AE0F6C01EB01F8
:101E78008A017B01E40EF51ECE15DF0541F089913C
:101E8800B601082E000C990B0E946C0AF5CFC80108
:0A1E9800CDB7DEB7E8E00C94F70FB9
:101EA200CF93DF93CDB7DEB780E099E020E039E051
:101EB200F90123812E7FFC01238380E099E020E059
:101EC20039E0F90123812160FC0123831092294129
:081ED20080E0DF91CF9108953B
:101EDA00CF93DF9300D00F92CDB7DEB789836A83A1
:101EEA007B8300000E94C411982F81E089278823F0
:101EFA00C9F789810E94350C80E090E02396CDBF16
:081F0A00DEBFDF91CF910895C5
:101F1200CF93DF93CDB7DEB780914C4190914D4185
:101F2200A0914E41B0914F410196A11DB11D8093E8
:101F32004C4190934D41A0934E41B0934F410000CC
:061F4200DF91CF9108952C
:101F48002F923F924F925F926F927F928F929F92C1
:101F5800AF92BF92CF92DF92EF92FF920F931F93AF
:101F6800CF93DF93CDB7DEB7CA1BDB0BCDBFDEBF88
:021F78000994CA
:101F7A00A0E0B0E0E3ECFFE00C94B40FAE014B5FDD
:101F8A005F4FFA0161917191AF01E0916A41F0915D
:101F9A006B41808191810E94D50FE2E00C94FD0F84
:101FAA00A2E0B0E0EBEDFFE00C94B20F8C014983A4
:101FBA005A83AE014F5F5F4F0E94A20CF801208145
:101FCA0024FF02C08FEF9FEF2296E4E00C94FB0FF0
:101FDA002A88398848885F846E847D848C849B84AF
:101FEA00AA84B984C884DF80EE80FD800C811B81BD
:101FFA00AA81B981CE0FD11DCDBFDEBFED010895F3
:10200A00CF93DF93CDB7DEB780913641882F90E02A
:10201A00880F991F89509F4BFC0180819181FC0197
:0E202A000995809336410000DF91CF91089513
:10203800CF93DF930F92CDB7DEB7898380E099E025
:1020480020E039E0F9012481322F3C7F2981232BBC
:0E205800FC01248300000F90DF91CF910895CA
:10206600CF93DF9300D0CDB7DEB789839A8389817A
:102076009A81892B31F089819A818093604190936E
:0E208600614100000F900F90DF91CF910895FF
:10209400CF93DF9300D0CDB7DEB789839A8389814C
:1020A4009A81892B31F089819A818093624190933E
:0E20B400634100000F900F90DF91CF910895CF
:1020C200CF93DF9300D0CDB7DEB789839A8389811E
:1020D2009A81892B31F089819A818093644190930E
:0E20E200654100000F900F90DF91CF9108959F
:1020F000CF93DF9300D00F92CDB7DEB789839A8359
:102100006B8389819A814B8168ED0E9436120000B1
:0C2110002396CDBFDEBFDF91CF91089574
:10211C00CF93DF9300D00F92CDB7DEB789839A832C
:10212C006B8389819A814B8168ED0E943612000085
:0C213C002396CDBFDEBFDF91CF91089548
:10214800CF93DF93CDB7DEB760E080E191E00E94E6
:102158008E1080E191E0FC01128280E191E0FC01A7
:0C2168001382789480E0DF91CF910895FD
:10217400CF93DF930F92CDB7DEB786E0898380E0FB
:1021840099E020ECFC0125830E94510F8983898109
:082194000F90DF91CF91089537
:10219C00CF93DF93CDB7DEB70E946D0C0E94BF02C8
:1021AC000E94C00B0E9419090E9478070E94A4107B
:0821BC000000DF91CF910895AE
:1021C400CF93DF93CDB7DEB710924C4110924D41BF
:1021D40010924E4110924F4189E89FE00E945511A0
:0821E4000000DF91CF91089586
:1021EC00CF93DF9300D0CDB7DEB789839A838981F3
:1021FC009A81809352419093534100000F900F901D
:06220C00DF91CF9108955F
:10221200CF93DF9300D0CDB7DEB789839A838981CC
:102222009A81809354419093554100000F900F90F2
:06223200DF91CF91089539
:10223800CF93DF9300D0CDB7DEB789839A838981A6
:102248009A81809356419093574100000F900F90C8
:06225800DF91CF91089513
:10225E00CF93DF9300D0CDB7DEB789839A83898180
:10226E009A81809358419093594100000F900F909E
:06227E00DF91CF910895ED
:10228400CF93DF9300D0CDB7DEB789839A8389815A
:102294009A8180935A4190935B4100000F900F9074
:0622A400DF91CF910895C7
:1022AA00CF93DF9300D0CDB7DEB789839A83898134
:1022BA009A8180935C4190935D4100000F900F904A
:0622CA00DF91CF910895A1
:1022D000CF93DF93CDB7DEB780E099E020912A411C
:1022E00030912B41220F2160FC01278384E0DF9194
:0422F000CF910895ED
:1022F400CF93DF93CDB7DEB780E099E020912A41F8
:1023040030912B41220FFC01278383E0DF91CF9191
:0223140008952A
:10231600CF93DF93CDB7DEB71092294180E099E0E5
:0E23260021E0FC01258388E0DF91CF9108952E
:10233400CF93DF930F92CDB7DEB785E089830E94F8
:0E234400B711898389810F90DF91CF910895A1
:10235200FC01AF014F5F5F4F2081222311F0FA0190
:0C236200F8CF9F01281B390BC90108951A
:10236E00CF93DF93CDB7DEB783E00E941C100E949F
:0A237E00F70D80E0DF91CF91089584
:10238800CF93DF93CDB7DEB79091704181E0992369
:0A23980009F480E0DF91CF91089571
:1023A200EC010E9440120E943F12CE010E94411293
:0623B200CE010E943D1265
:1023B800E0916A41F0916B41608171810E943C0D0E
:0223C800089576
:1023CA009C01215631092A31310510F48F7599275C
:0223DA00089564
:1023DC00CF93DF93CDB7DEB70000DF91CF91089597
:1023EC00CF93DF93CDB7DEB70000DF91CF91089587
:1023FC00CF93DF93CDB7DEB70000DF91CF91089577
:10240C00CF93DF93CDB7DEB70000DF91CF91089566
:10241C00CF93DF93CDB7DEB70000DF91CF91089556
:10242C00CF93DF93CDB7DEB70000DF91CF91089546
:10243C00CF93DF93CDB7DEB70000DF91CF91089536
:10244C00CF93DF93CDB7DEB70000DF91CF91089526
:10245C009C01215431092A31310508F48062089518
:0A246C001BBEFC0164BF408308950D
:042476000C940000C2
:04247A000E94BF00FD
:02247E000895BF
:022480000895BD
:022482000895BB
:102484000D0A3D3D3D205465737441693220626FED
:102494006F74203D3D3D0D00446576696365203AC7
:1024A4002041565231323844413438204020256C82
:1024B4007520487A0D0A00554152542020203A20B4
:1024C4005553415254312031313532303020384E59
:1024D400310D0054696D657220203A205443413017
:1024E4002031206D73207469636B2C206D696C6CD2
:1024F400697328292072656164790D004C45442074
:102504002020203A2050433620746F67676C696E30
:102514006720657665727920256C75206D730D0AC8
:102524000D0A005B256C75206D735D204C454420BD
:0B253400504336203D2025640D0A00B6
:10253F0068076C094C836A9074A07AC00080688821
:06254F0000846C82008193
:102555008B1168117A11830BE4079A11BA10B71120
:02256500510F14
:102567000300000000000000000000006D0F0000E5
:07257700286E756C6C290051
:06257E00286E696C2900C3
:022584006C41A8
:02000004008278
:090000000000000000C000000037
:00000001FF
